:0200000460009A
:100000004643464200000156000000000103030081
:1000100000000000000000000000000000000000E0
:1000200000000000000000000000000000000000D0
:1000300000000000000000000000000000000000C0
:1000400000000000010408000000000000000000A3
:100050000000800000000000000000000000000020
:100060000000000000000000000000000000000090
:100070000000000000000000000000000000000080
:10008000EB04180A063204260000000000000000FD
:10009000050404240000000000000000000000002F
:1000A0000000000000000000000000000000000050
:1000B0000604000000000000000000000000000036
:1000C0000000000000000000000000000000000030
:1000D00020041808000000000000000000000000DC
:1000E0000000000000000000000000000000000010
:1000F0000000000000000000000000000000000000
:10010000D8041808000000000000000000000000F3
:100110000204180804200000000000000000000095
:1001200000000000000000000000000000000000CF
:10013000600400000000000000000000000000005B
:1001400000000000000000000000000000000000AF
:10015000000000000000000000000000000000009F
:10016000000000000000000000000000000000008F
:10017000000000000000000000000000000000007F
:10018000000000000000000000000000000000006F
:10019000000000000000000000000000000000005F
:1001A000000000000000000000000000000000004F
:1001B000000000000000000000000000000000003F
:1001C000000100000010000001000000000000001D
:1001D000000001000000000000000000000000001E
:1001E000000000000000000000000000000000000F
:1001F00000000000000000000000000000000000FF
:10020000FFFFFFFFFFFFFFFFFFFFFFFFFFFFFFFFFE
:10021000FFFFFFFFFFFFFFFFFFFFFFFFFFFFFFFFEE
:10100000D10020434D1600600000000000000000E9
:101010002010006000100060005C04600000000010
:10102000000000600068040000000000FFFFFFFFF8
:10103000FFFFFFFFFFFFFFFFFFFFFFFFFFFFFFFFC0
:10104000FFFFFFFFFFFFFFFFFFFFFFFFFFFFFFFFB0
:10105000FFFFFFFFFFFFFFFFFFFFFFFFFFFFFFFFA0
:10106000FFFFFFFFFFFFFFFFFFFFFFFFFFFFFFFF90
:10140000814205D051F8043B40F8043B8242F9D8B0
:10141000704700BF044A05494FF0000342F8043BFF
:101420009142FBD8704700BFC06A012080060220AD
:101430002DE98848BFF34F8F00BF00BF00BF00BF3A
:1014400000F000FA684B0822C3F8542100BF00BF27
:1014500000BF00BF00BF00BF00BF00BF00BF00BF94
:1014600000BF00BF00BF00BF00BF00BF5F4A6049B0
:101470006048FFF7C5FF604A60496148FFF7C0FF59
:10148000604CFFF7C7FF4FF470004FF0E0210023DE
:101490005D4AC1F8880D44F823200133B02BFAD1FE
:1014A0005A4B80215A4A03F8011B9342FBD14FF05B
:1014B000E0254D4E4FF08039DFF884B1DFF884A18C
:1014C0004FF0FF31C5F8084D0027C6F80491C6F863
:1014D00000B1C6F8F490C6F8F0A0D5F8243DDFF8C6
:1014E000688143F4E0234B4AC5F8243DD8F81C300A
:1014F00023F07F0343F04003C8F81C30D8F82430B1
:1015000023F07F0343F04003C8F824309166D1668E
:101510001167516700F09EF93F4B4049A363404B70
:10152000E36363236B610323AF612B613D4BC5F81C
:10153000203DD5F8FC3D43F08073C5F8FC3D3A4BA7
:101540001A6842F001021A605B680B6000F0CCFB85
:10155000C6F804913548C6F800B1C6F8F490C6F84C
:10156000F0A000F049FDD8F86C10314B314A41F43D
:101570004051C8F86C101F60C3F80871C3F81871A7
:10158000C3F82871C3F83871936BDB0708D442F6AF
:101590001563294951651365936B43F00103936308
:1015A000244A264C936843F00113936000F0DAF963
:1015B00000F01EF900F01CFD00F0C4FB00F044F93F
:1015C0002368132BFCD900F055FC2368B3F5967FF4
:1015D000FBD300F03DF900F039F900F0F1FC00F028
:1015E00003FD30BFFDE700BF00800D40D8CB0200F7
:1015F0000022006000000000C06A0120DCED0260F3
:1016000000000020006801208D1E020000E400E0C0
:10161000A0E400E000C00A40AD320200A0FE0120BC
:10162000B132020000002020001000E00046C32379
:101630000040084000400D400000C056A4FE0120BC
:101640001B1018200C0D111300C00F40054B4FF458
:101650002A01054A05485A641864054A9963954663
:10166000FFF7E6FE00C00A40FFAFAAAA070020006D
:101670000000052043690A4A03EB011010B4037A05
:10168000084C02EB0313D3E901321460C2681A60FC
:1016900003690BB142691A605DF8044B704700BFE3
:1016A000283A002061F801004369027E03EB021230
:1016B00092F808C08C451CD01A7AFF2A19D09142A2
:1016C00010B5044616D01A7EFF2A06D00121D3E9B0
:1016D000002312681A4201D1217610BD064B052263
:1016E000204603EB0C135B681A60FFF7C3FF2176FB
:1016F000F3E770470021EAE7283A002043690A4AE5
:1017000003EB011010B490F82830084C02EB0313DF
:10171000D3E901321460C26A1A60036B0BB1426BE9
:101720001A605DF8044B7047283A002061F8010008
:101730004369427E03EB021292F828C08C451ED00A
:1017400093F82820FF2A1AD0914210B5044617D0EA
:1017500093F83820FF2A06D00121D3E9002312682C
:101760001A4201D1617610BD064B0522204603EBDB
:101770000C135B681A60FFF7C1FF6176F3E77047EF
:101780000021EAE7283A0020164942698B6B23F4CE
:101790007C0343F4802370B58B630446124DD2E979
:1017A00000130A681A4303690A60022200211A61C1
:1017B0000E4A19619A6401225A629D624FF43035D3
:1017C000DD624FF001159E6C1E6519629D651A6100
:1017D000017EFFF74FFF617E2046BDE87040FFF7B6
:1017E0008DBF00BF00C00F40B80B05053B3728195F
:1017F000104BA020104AD96E41F4403110B4D96684
:1018000040F23764D96E41F44071D96654649064F3
:10181000936C1B06FCD4094A40F23761A023516443
:101820009364936C13F08003FBD1054A13705DF849
:10183000044B704700C00F4000400C4000800C403B
:1018400028060220704700BF704700BF704700BFE6
:1018500000BF704710B44FF0E0230021102431483E
:10186000C3F8941DC3F89C4D1124C3F8A00D2E4855
:10187000C3F89C4D1224C3F8A00D2C48C3F89C4D0E
:101880002B4AC3F8A00D2B4C42F015022A48C3F88E
:101890009C4DC3F8A00D294C2948C3F89C4DC3F8B2
:1018A000A00D284CC3F89C2D2748284AC3F8A04D0A
:1018B000C3F89C0DC3F8A02D02F5A022244C0C32D5
:1018C0002448C3F89C4DC3F8A02D234AC3F89C0DAF
:1018D000224CC3F8A02D02F14062C3F89C4D204871
:1018E000C3F8A02D0C32C3F89C0DC3F8A02D00BF87
:1018F00000BF00BF00BF00BF0122C3F8942DBFF39B
:101900004F8FBFF36F8FC3F8501FBFF34F8FBFF3DD
:101910006F8FD3F8142D5DF8044B42F44032C3F8B6
:10192000142D70473F000010250008070900100023
:10193000800602201300200021000207140000206E
:1019400025000813090000101600202027000B13A3
:1019500017000040180000602F000B0719000070EE
:101960001A000080F0B5B84B1822B84E0120B84FCD
:1019700083B0C3F85C62B749C3F86072B64DC3F870
:101980006462A6F53046B54CC3F86862C3F86C5281
:10199000C3F87052C3F87452C3F8785248F20C7509
:1019A000DA661A675A679A67DA67C3F88020C3F85D
:1019B0008420C3F88820C1F82C03A94AC1F8300359
:1019C000C1F83403C1F83803C1F83C03C1F850032F
:1019D000A169A44B0A40A448A4491343A44AA361A3
:1019E000D4F8843043F00C03C4F884304FF0FF3453
:1019F000036843F00203036003682B404FF4005573
:101A00001A439C4B026044608A689B4C13409B4A7B
:101A100043F000538360C36823F07803C360036A14
:101A2000134023430362036A1340954A2343954CB2
:101A300043628262C2620022D1F8B83023F03F03D1
:101A400043F00103C0F8B830D1F8BC308E4923F020
:101A50003F0343F00103C0F8BC3040F2056302616C
:101A600005660467C0F88030456644670224C0F804
:101A70008430036823F0020303608161834B84494F
:101A8000C46143F8042B8B42FBD1774A136843F0BF
:101A900001031360136813F00103FBD17A4802219C
:101AA00040F2F564906140F29940D16140F26641A4
:101AB000C2F8004242F20144C2F810127549C2F85D
:101AC0002002C2F8301240F235417348C2F8344265
:101AD000C2F84012714CC2F8500242F20120704923
:101AE000C2F854120121C2F86042C2F864025E4892
:101AF000C2F8A030C2F8A430C2F8B0104369DA07C7
:101B0000FCD5012300244FF4803257494361C0F8CB
:101B1000A040C0F8A420C0F8B0304B69DB07FCD56A
:101B2000012300244FF400304F4A4B61C1F8A0401C
:101B3000C1F8A400C1F8B0305369DF07FCD5012318
:101B40000024584848495361C2F8A040C2F8A40094
:101B5000C2F8B0304B69DE07FCD5D1F8003145F64C
:101B60000D5221209BB24861934265D100244FF46D
:101B7000802201233C48C1F8A040C1F8A420C1F84C
:101B8000B0304369DD07FCD501234FF40004002188
:101B9000354A4361C0F8A040C0F8A410C0F8B03086
:101BA0005369DC07FCD501234FF400044FF4803067
:101BB0002D495361C2F8A040C2F8A400C2F8B03069
:101BC0004B69D807FCD501234FF400044FF40030D3
:101BD000254A4B61C1F8A040C1F8A400C1F8B0305B
:101BE0005369D907FCD501234FF400042D481E4941
:101BF0005361C2F8A040C2F8A400C2F8B0304B69EB
:101C0000DA07FCD5D1F8003145F60D5221209BB200
:101C10004861934250D008254FF400042249002027
:101C2000224B234A009015705A1A0123214822445E
:101C300000F0CAF903B0F0BD1E4B0022C3E9002238
:101C4000C3E9022203B0F0BD00801F40F9B00100DB
:101C5000F910010000841F40F970010000C00F401E
:101C6000FFFCFF1F000300A000402A4000802A4024
:101C70001200FFFFFF37F7004000008000FFF07CFC
:101C8000FF000F8363000200F05AF05A00422A401E
:101C900000432A409F041830EB06180A3806180A39
:101CA00006320126040003000000007000000070EE
:101CB00029060220ACF901204FF400044FF48022E1
:101CC00001230848C1F8A040C1F8A420C1F8B030F1
:101CD0004369DB07FCD5012310254FF08074436175
:101CE0009CE700BF00402A40F0B4154A40274FF45B
:101CF00080314FF480564FF400554FF4404443F286
:101D00004200136913F0020F0ED113F4005F0FD0DD
:101D100013F4805F0ED0002BF3DA13F4803F0BD165
:101D20005B060BD5F0BC7047946151619061E8E7A8
:101D30005561E6E75661E4E79161E2E75761E0E764
:101D400000800D403F4A03203F49F3EE095AD2F884
:101D500080304FF0000C9FED3D6A23F001039FEDB2
:101D60003C5A30B4C2F88030C2F89000D1F8E0108C
:101D7000384DCBB2384C39482B6007EE903A0B0DFA
:101D8000C1F30B21F8EEE77A06EE903A07EE101A4F
:101D9000334BB8EEC77A2160F8EEE66A314937EE88
:101DA000C66A37EEC55A76EEC76A77EEE57A26EE52
:101DB000266AC3ED006A25EE265AD2F8803067EE17
:101DC000A64AC0ED007AC6EE275A274885EE276A54
:101DD000C4EEA76A75EE875AFCEEE55A36EE076A3E
:101DE00015EE904ABCEEC66A43EA045376EE877A53
:101DF000C2F8803016EE103AD2F89041FCEEE77A45
:101E000001EA0341214317EE903AC2F89011C3F35F
:101E10000B03D2F890110B431449C2F89031D2F859
:101E2000803043F00203C2F88030114B80F840C08C
:101E3000C1F840314FF0E023012230BCC3F8082143
:101E4000704700BF00810D4000441F400000AA42BF
:101E50000000B442C0FD0120BCFD0120C4FD0120F2
:101E6000D0FD01200000FF0F00E400E00068012029
:101E700075200200314B40F6617210B5C3F8202185
:101E800040F2044400F0A4F82D4A2E49D2F88030E4
:101E90002D4843F00303C2F880302C4BC1F8604159
:101EA00002681A4203D1D1F8A8319A071BD0254AFB
:101EB0004FF00041244B5963D2F8403143F0020304
:101EC000C2F84031D2F840319B07FBD44FF40030C8
:101ED0004FF0E0211C4B4FF00042C1F88C0219205A
:101EE0009A6300F079F8184A4FF08040154C0021B1
:101EF00090630A20164B11604FF42072C4F8A801B9
:101F0000184600F06DF84FF4800203464FF481004C
:101F100040F243111860C4F858311A640D4B0E4A50
:101F2000C4F84811C3F804224FF0E0224FF4003106
:101F30000123C2F80C11C4F8403110BD00800D40DF
:101F400000C00F4000002E4000900D40001C1E00FD
:101F500000000020006801205D22020008B50E4B41
:101F60001B6E9B0700D4FBBE72B60C4B00200C4AC4
:101F7000C3F8400103F160430A49A3F55F231164EC
:101F80009D46BFF34F8F4FF400130748074ADB69A4
:101F900002609B68984700BF00441F4000002E402D
:101FA00000C00A400300200000802020000012EB47
:101FB000F8B500BFF8BC08BC9E46704700000000A2
:101FC0005FF800F0B96802005FF800F041330200EA
:101FD0005FF800F0CD2902005FF800F0A50D0200C7
:101FE0005FF800F0555C02005FF800F0A9140200F1
:101FF0005FF800F0991D02005FF800F0B50A0200DA
:0820000069040000F1B10000C9
:1020080080C00F400000000319000000100000000D
:10201800E8841F4001000000FF000000FF000000EE
:102028000000000000000000180000001000000080
:10203800E4841F4001000000FF000000FF000000D2
:1020480000000000000000001F00000065D500002F
:1020580070C00F40000C00001100000011000000CB
:10206800E0841F40020000002C0000001200000065
:10207800E0841F4001000000100000001100000073
:10208800DC841F40020000002D0000001200000048
:10209800DC841F40010000001E00000059D500002C
:1020A80070C00F40C00000001200000013000000C4
:1020B800D0841F4001000000FF000000FF00000066
:1020C80000000000000000001300000013000000E2
:1020D800CC841F4001000000FF000000FF0000004A
:1020E80000000000000000001C0000004DD50000AA
:1020F800160355005300420020005300650072008B
:10210800690061006C000000180354006500650058
:102118006E00730079006400750069006E006F003E
:102128000403090409026200030100C032080B001D
:102138000202020100090400000102020100052454
:1021480000100105240101010424020605240600EB
:10215800010705820310001009040100020A0000AB
:10216800000705030240000007058402400000093B
:1021780004020002FF6AFF00070581024000010710
:10218800050102400001000009026200030100C0CD
:1021980032080B00020202010009040000010202D9
:1021A8000100052400100105240101010424020690
:1021B8000524060001070582031000050904010033
:1021C800020A000000070503020002000705840256
:1021D8000002000904020002FF6AC7000705810225
:1021E8000002010705010200020100000A060002C0
:0821F800EF02014001000000AC
:1022000000000000000000000000000000000000CE
:1022100000000000000000000000000000000000BE
:102220000A49D1E900231344824298BF984234BF3F
:102230000123002308D28B68801AB0FBF3F203FB62
:102240001200B0FA80F35B0918467047B8630120AA
:102250000346024A00201A60704700BF2055012043
:102260000120704770B5054608460E46FFF7D8FFB7
:1022700038B34FF400121C4B2946D0691A68006924
:102280009B68B21A04690020A047184BB0FA80F48A
:1022900005461B686409022B01DC204670BD41F233
:1022A000B6721349134B032007F0DCFB124B134AA1
:1022B00031461348002D08BF1A4607F019FC204686
:1022C00070BD0A4B04461B68002BE6DD094B41F24A
:1022D000AE720749012007F0C5FB3146094807F0F7
:1022E00007FC204670BD00BFB8630120E45D0120FB
:1022F000C06B002004330020E0620020E462002074
:102300000C630020EC62002001231A46013B002AE6
:10231000FBD17047064908B5D1F8E0309A0705D4DB
:10232000FFF7F2FFD1F8E0309B07F9D508BD00BFF9
:1023300000802A402DE9F04F2DED028BADF5077D91
:10234000044600AF07F11803F9607A607B6172B64A
:1023500007F11400FFF77CFF002847D16F4E7A6821
:10236000F368B2FBF3F503FB1525002D4CD1336860
:10237000A34200F2A780FB687A689A189342BA6079
:1023800080F0BA801D461FE03368FA68A4EB0309A9
:1023900093424BD94FF4001341464A46D8692B4625
:1023A0000069D0F808800020C047F368B0FA80FACE
:1023B0001D444FEA5A1A1C44BB68AB4294BF002329
:1023C0000AF00103002B61D02046FFF729FFD7F860
:1023D00014800028D8D021464046FFF743FF8246AC
:1023E0000028D1D14E4B1B68022B7CDC4FF0000A39
:1023F0004C4B1B7803B962B6504607F50777BD46CC
:10240000BDEC028BBDE8F08F454B1B68002BEDDD6A
:10241000454B41F2D37245498246012007F022FB29
:10242000F2687968424807F063FBE1E76B46F068C1
:1024300008EE103A20F00303800803F1070323F0AD
:102440000703ADEB030D6B4607EE903A0ED005EB9C
:102450008000A5F1040BA3F1040A0438FFF75AFF2A
:102460005BF8043F58454AF8043FF7D14FF4001099
:1024700017EE903A41464A46C0690069D0F8088094
:102480000020C04718EE103A9D468EE7244B804648
:102490001B68022BACDD244B41F2FD722349032063
:1024A00007F0E0FAB8F1000F224A234B12BF4FF0B9
:1024B000000A4FF0010A1346224679681F4807F0C8
:1024C00017FB95E7164B1B68002B8FDD164B41F26F
:1024D000D7720120154907F0C5FA21461848AA46C7
:1024E00007F006FB84E7104B41F2FD720F49032011
:1024F00007F0B8FA104BDFE7094B1B68022B02DC30
:102500004FF0010A74E7084B41F2FD7207490320BE
:1025100007F0A8FA4FF0010A064BCDE7B863012097
:10252000E45D01204506022010330020C06B00202E
:1025300030630020E0620020E46200206C63002031
:102540004C630020B2B12DE9F041074688461D4694
:102550001646002408EB040138192C442A46FFF7DC
:10256000E9FEA642F6D84FF0E023054AC3F80C2D49
:10257000BDE8F0814FF0E023014AC3F80C2D70470D
:102580000400FA05F8B54FF084439D695A69154077
:102590000DD0254F01269D6195FAA5F4B4FA84F477
:1025A00057F8243006FA04F49847A543F4D11F4B9A
:1025B0009D695A6915400DD01D4F01269D6195FA00
:1025C000A5F4B4FA84F457F8243006FA04F49847D2
:1025D000A543F4D1174B9D695A6915400DD0164F8C
:1025E00001269D6195FAA5F4B4FA84F457F82430D5
:1025F00006FA04F49847A543F4D1104B9D695A6933
:1026000015400DD00E4F01269D6195FAA5F4B4FA40
:1026100084F457F8243006FA04F49847A543F4D11B
:10262000BFF34F8FF8BD00BF345B01200040004274
:10263000B45B012000800042345C012000C00042F5
:10264000B45C01200548064B1B1AD90F01EBA3010E
:10265000491002D0034B03B118477047C06A0120EC
:10266000C06A01200000000008B5054B1BB10549F8
:102670000548AFF30080BDE80840FFF7E3BF00BFA7
:102680000000000008FD012000680460704700BFE2
:10269000704700BF704700BF00207047034B1868A9
:1026A00010B103681B681847704700BF20F4012071
:1026B0004FF0E023014AC3F80C2D70470400FA05DF
:1026C000002070472DE9F04100F5804090B0574C54
:1026D0009646574B0094C0F860121B6A5548C3F3E6
:1026E00001230468403304F080746B4413F8406C99
:1026F000514B03FB06F60368B6FBF1F2B6FBF2F5AD
:1027000043F0A0434D1B03600368DF01FCD5052A9D
:102710004FF0000C2AD96046831C0130B2FBF3F75E
:10272000192F07FB03F3F7D84FF00108B6FBF3F3BB
:10273000CB1A002BB8BF5B42AB420BDBA7F10C03FB
:1027400018BF4FF00008062B0AD8B8F1000F07D0C9
:102750008446E1E71D46A7F10C038446062BF4D915
:10276000052FD9D80CF10103B2FBF3F2B5F5967F32
:10277000A2F105024CDC142A4AD802EB42022F4F88
:102780006E46DFF8B08002F14003BEF1020F0DEBA0
:1027900003050FCF0FC60FCF0FC60FCF0FC697E899
:1027A0000F0007C626F8023B4FEA1343337015F8B3
:1027B0003F3C15F83E2C4FEAC34315F8401C4FEA46
:1027C000024203F4601301F0070102F4E02243EA3D
:1027D000020343EA010343F4800343EA0C6343F436
:1027E0008043C8F80430D8F8043014BF23F008033D
:1027F00043F00803C8F804303CB90E4A136823F0CC
:10280000805313601368DB01FCD410B0BDE8F08185
:10281000002CFAD1074A136823F080531360136821
:10282000D901FCD410B0BDE8F08100BF3C185000C5
:1028300000C00F4000801D4040420F0048060020AD
:1028400000207047002070470820704710B50446EC
:1028500000F5407020F056F8204610BD0346104A9F
:10286000102110B590B0DC78029407A89C780194F0
:102870005C78009405AC1B7814F068FE002307A96F
:1028800020460F93CDE90B33CDE90D3317F0E8FC6B
:102890000BAA94E8030018F01FFE0B9810B010BDAF
:1028A0003C2A002010B5002184B0064C4FF4FA7287
:1028B000002300910448CDE9014114F0A1FA04B0CD
:1028C00010BD00BFB1040000BCF9012038B50849B3
:1028D000084825F057FC50B10024054D0134294625
:1028E000002025F04FFC0F2C01D00028F6D138BD78
:1028F000F019002084FA012010490B68486B0A681F
:10290000496B02F07F02C1F3036101320431B2EB83
:10291000410F10D303F07F03C0F30360053B013088
:10292000A3EB4003DBB2054A106800F07F000130E2
:10293000C01AC0B270470023F5E700BF00801D40F9
:1029400030B585B086460DF1040C8CE80E0090F889
:102950006E5090F86F402B190A2B01D90B3B9BB29C
:10296000DAB263460B2C02EB820203CB0EEB420C75
:102970001B884EF81200CCF80410ACF8083004D0D4
:1029800001348EF86F4005B030BD0135EDB20B2D2E
:1029900003D08EF86E5005B030BD00238EF86E3037
:1029A00005B030BD90F86F3093B1934210D390F8DA
:1029B0006E301A440A2A88BF0B3A02EB820200EBFF
:1029C000420350F812005A6808604A601B890B8164
:1029D000704700BF69B170B5054608460C4626F041
:1029E000EFF82B680246214628465B68BDE8704038
:1029F00018477047F8B5064600F1160500F12207A2
:102A0000EC1E14F8011F0123002230460DF050F88F
:102A1000AC42F6D1E51CBD42F2D13046F8BD00BF54
:102A200070B52D4CB4F82E16002949D1B4F83216E1
:102A3000B4F8345609BB55BBB4F84016B4F8426636
:102A4000002934D1B4F8445666B905B970BDB4F85C
:102A50004666002361192148A55DA35525F0CEFFE8
:102A6000A55570BD0023A119665D1D48635525F06D
:102A7000C5FF6655002DE9D0E9E7665D00232144D6
:102A80001848635525F0BAFF6655002DD4D0B4F828
:102A90003666002361191448A55DA35525F0AEFFE5
:102AA000B4F84016A555B4F842660029CAD0A55D11
:102AB000002321440D48A35525F0A0FFA555C1E7EB
:102AC000B4F83056002321440948665D635525F06B
:102AD00095FF6655AAE700BFB0FE012030AC01208B
:102AE0002AAC012003AC012013AC012024AC01204E
:102AF000ECAB01200C4A92F89830C3F19603012BFD
:102B000000DC704730B592F894409BB092F8951075
:102B10000023144401A8013165781144637025F045
:102B20006DFF65701BB030BD08FC0120034B1B78A6
:102B300003B970476021024822F0ACBB470602206F
:102B4000441D00202DE9F84F18212048DFF8888027
:102B500001244FF0000B1E4EDFF880A01D4FDFF860
:102B6000809022F097FB01E018F801BF33685A46C5
:102B7000514638461D1995F838502B445B7C1FF0A0
:102B80003FFD31680C2238460B1993F8383002FBB0
:102B9000031154311FF0E6FC35685946002205EB5D
:102BA000040C95F83330013448469CF838C065442D
:102BB0006D7CEB1A18BF01230CF07AFF072CD3D1E0
:102BC0000448BDE8F84F1FF0FFBC00BF0024002000
:102BD00080FA012038430120342A00201C240020E0
:102BE00020FD01202DE9F041144C94F89850C5F1D6
:102BF0009605002D01DCBDE8F08194F89560002772
:102C000094F8961026440E48013196F8018021442C
:102C1000777025F0F3FE042D86F80180EBDD94F843
:102C2000915094F892102544064801316E78214461
:102C30006F7025F0E3FE6E70BDE8F08108FC0120A6
:102C400094F10120A0F1012008B5074B1B7803B9CE
:102C500008BD5821054822F01DFB054B0548197891
:102C6000BDE808401FF0A4BC470602203023002026
:102C700008FC01203843012010B5114C0A460146DA
:102C8000206815F0A3FD98B91A210E4822F002FB26
:102C90000D481FF099FC20F0D9F90C4B1A7B22B19A
:102CA000D3E90021521A02441A6000221A7310BD9F
:102CB00020680021026D483013F02AFBEBE700BFCB
:102CC00064FE0120C81900203843012080F1012052
:102CD00038B50D46044620F0B9F9084A084B0121E1
:102CE000926B586092F884201973042A00D038BD82
:102CF00029462046BDE83840FFF7BEBFBCF9012099
:102D000080F1012038B5044649B108460D4625F04A
:102D100057FF2368024629465B68204698472046AD
:102D2000BDE838401FF050BC2DE9F84305460F467A
:102D300026480421144622F0ADFA00231022E97837
:102D400023481FF06BFC0121224822F0A3FAE97806
:102D500000230A221E481FF061FC02211E4822F0B7
:102D600099FA34B1204625F02BFF0146204622F087
:102D700091FA204625F024FFC4B2132C08D8174E30
:102D8000013401213046E4B222F084FA142CF7D148
:102D90007E1E3A4612490E481FF032FC042E12DD08
:102DA0000424DFF84090DFF828800C4F2A5D0134BE
:102DB00049464046E4B21FF023FC0121384622F088
:102DC00069FAB442F2DBBDE8F88300BFC02C0020F2
:102DD00038430120C82C0020CC2C0020D4560020E1
:102DE000D02C0020DC2C0020244B1A68D2E90010E3
:102DF000D3680968006810B41842946801EA0401B5
:102E000034D0137C03F0030309BB43F00803990893
:102E1000013B11740D2B0ED8DFE803F010072207D9
:102E20000D1C10101C0D072207105169137E01396B
:102E30000133516113765DF8044B7047137E51697D
:102E40000133013113765DF8044B5161704743F053
:102E50000403DAE753695DF8044BC83B53617047DC
:102E600053695DF8044BC83353617047137C03F01A
:102E700003030029CBD043F00403C8E754F4012036
:102E8000254BD3F8A020D2E90010D3680968006868
:102E900010B41842946801EA040134D0137C03F0A2
:102EA000030309BB43F008039908013B11740D2B80
:102EB0000ED8DFE803F0100722070D1C10101C0DC0
:102EC000072207105169137E0139013351611376CE
:102ED0005DF8044B7047137E51690133013113765D
:102EE0005DF8044B5161704743F00403DAE753691E
:102EF0005DF8044BC83B5361704753695DF8044B60
:102F0000C83353617047137C03F003030029CBD00F
:102F100043F00403C8E700BF54F40120254BD3F865
:102F2000D420D2E90010D3680968006810B41842B0
:102F3000946801EA040134D0137C03F0030309BB55
:102F400043F008039908013B11740D2B0ED8DFE8FC
:102F500003F0100722070D1C10101C0D072207108C
:102F60005169137E01390133516113765DF8044BC9
:102F70007047137E51690133013113765DF8044BBC
:102F80005161704743F00403DAE753695DF8044B7D
:102F9000C83B5361704753695DF8044BC8335361B4
:102FA0007047137C03F003030029CBD043F00403E4
:102FB000C8E700BF54F40120244B5A6AD2E900103C
:102FC000D3680968006810B41842946801EA0401E3
:102FD00034D0137C03F0030309BB43F008039908C2
:102FE000013B11740D2B0ED8DFE803F01007220708
:102FF0000D1C10101C0D072207105169137E01399A
:103000000133516113765DF8044B7047137E5169AB
:103010000133013113765DF8044B5161704743F081
:103020000403DAE753695DF8044BC83B536170470A
:1030300053695DF8044BC83353617047137C03F048
:1030400003030029CBD043F00403C8E754F4012064
:10305000244B5A6BD2E90010D3680968006810B499
:103060001842946801EA040134D0137C03F003038E
:1030700009BB43F008039908013B11740D2B0ED8CE
:10308000DFE803F0100722070D1C10101C0D0722AB
:1030900007105169137E01390133516113765DF8D0
:1030A000044B7047137E51690133013113765DF88B
:1030B000044B5161704743F00403DAE753695DF84C
:1030C000044BC83B5361704753695DF8044BC833E8
:1030D00053617047137C03F003030029CBD043F006
:1030E0000403C8E754F40120244B5A6CD2E90010C1
:1030F000D3680968006810B41842946801EA0401B2
:1031000034D0137C03F0030309BB43F00803990890
:10311000013B11740D2B0ED8DFE803F010072207D6
:103120000D1C10101C0D072207105169137E013968
:103130000133516113765DF8044B7047137E51697A
:103140000133013113765DF8044B5161704743F050
:103150000403DAE753695DF8044BC83B53617047D9
:1031600053695DF8044BC83353617047137C03F017
:1031700003030029CBD043F00403C8E754F4012033
:10318000244B5A6DD2E90010D3680968006810B466
:103190001842946801EA040134D0137C03F003035D
:1031A00009BB43F008039908013B11740D2B0ED89D
:1031B000DFE803F0100722070D1C10101C0D07227A
:1031C00007105169137E01390133516113765DF89F
:1031D000044B7047137E51690133013113765DF85A
:1031E000044B5161704743F00403DAE753695DF81B
:1031F000044BC83B5361704753695DF8044BC833B7
:1032000053617047137C03F003030029CBD043F0D4
:103210000403C8E754F40120254BD3F8C420D2E9B5
:103220000010D3680968006810B41842946801EA75
:10323000040134D0137C03F0030309BB43F00803FB
:103240009908013B11740D2B0ED8DFE803F010072D
:1032500022070D1C10101C0D072207105169137E48
:1032600001390133516113765DF8044B7047137EC9
:1032700051690133013113765DF8044B5161704798
:1032800043F00403DAE753695DF8044BC83B53612C
:10329000704753695DF8044BC83353617047137C22
:1032A00003F003030029CBD043F00403C8E700BFB9
:1032B00054F40120254BD3F8A420D2E90010D368A0
:1032C0000968006810B41842946801EA040134D017
:1032D000137C03F0030309BB43F008039908013B87
:1032E00011740D2B0ED8DFE803F0100722070D1C18
:1032F00010101C0D072207105169137E013901338C
:10330000516113765DF8044B7047137E51690133A8
:10331000013113765DF8044B5161704743F00403AB
:10332000DAE753695DF8044BC83B53617047536952
:103330005DF8044BC83353617047137C03F00303FB
:103340000029CBD043F00403C8E700BF54F40120A8
:10335000244B5A6ED2E90010D3680968006810B493
:103360001842946801EA040134D0137C03F003038B
:1033700009BB43F008039908013B11740D2B0ED8CB
:10338000DFE803F0100722070D1C10101C0D0722A8
:1033900007105169137E01390133516113765DF8CD
:1033A000044B7047137E51690133013113765DF888
:1033B000044B5161704743F00403DAE753695DF849
:1033C000044BC83B5361704753695DF8044BC833E5
:1033D00053617047137C03F003030029CBD043F003
:1033E0000403C8E754F40120254BD3F88420D2E924
:1033F0000010D3680968006810B41842946801EAA4
:10340000040134D0137C03F0030309BB43F0080329
:103410009908013B11740D2B0ED8DFE803F010075B
:1034200022070D1C10101C0D072207105169137E76
:1034300001390133516113765DF8044B7047137EF7
:1034400051690133013113765DF8044B51617047C6
:1034500043F00403DAE753695DF8044BC83B53615A
:10346000704753695DF8044BC83353617047137C50
:1034700003F003030029CBD043F00403C8E700BFE7
:1034800054F40120254BD3F8D820D2E90010D3689A
:103490000968006810B41842946801EA040134D045
:1034A000137C03F0030309BB43F008039908013BB5
:1034B00011740D2B0ED8DFE803F0100722070D1C46
:1034C00010101C0D072207105169137E01390133BA
:1034D000516113765DF8044B7047137E51690133D7
:1034E000013113765DF8044B5161704743F00403DA
:1034F000DAE753695DF8044BC83B53617047536981
:103500005DF8044BC83353617047137C03F0030329
:103510000029CBD043F00403C8E700BF54F40120D6
:10352000254BD3F89420D2E90010D36809680068CD
:1035300010B41842946801EA040134D0137C03F0FB
:10354000030309BB43F008039908013B11740D2BD9
:103550000ED8DFE803F0100722070D1C10101C0D19
:10356000072207105169137E013901335161137627
:103570005DF8044B7047137E5169013301311376B6
:103580005DF8044B5161704743F00403DAE7536977
:103590005DF8044BC83B5361704753695DF8044BB9
:1035A000C83353617047137C03F003030029CBD069
:1035B00043F00403C8E700BF54F40120244B1A6A07
:1035C000D2E90010D3680968006810B41842946802
:1035D00001EA040134D0137C03F0030309BB43F078
:1035E00008039908013B11740D2B0ED8DFE803F096
:1035F000100722070D1C10101C0D0722071051691F
:10360000137E01390133516113765DF8044B704725
:10361000137E51690133013113765DF8044B51611A
:10362000704743F00403DAE753695DF8044BC83B85
:103630005361704753695DF8044BC8335361704759
:10364000137C03F003030029CBD043F00403C8E745
:1036500054F40120254BD3F88C20D2E90010D36814
:103660000968006810B41842946801EA040134D073
:10367000137C03F0030309BB43F008039908013BE3
:1036800011740D2B0ED8DFE803F0100722070D1C74
:1036900010101C0D072207105169137E01390133E8
:1036A000516113765DF8044B7047137E5169013305
:1036B000013113765DF8044B5161704743F0040308
:1036C000DAE753695DF8044BC83B536170475369AF
:1036D0005DF8044BC83353617047137C03F0030358
:1036E0000029CBD043F00403C8E700BF54F4012005
:1036F000244BDA69D2E90010D3680968006810B475
:103700001842946801EA040134D0137C03F00303E7
:1037100009BB43F008039908013B11740D2B0ED827
:10372000DFE803F0100722070D1C10101C0D072204
:1037300007105169137E01390133516113765DF829
:10374000044B7047137E51690133013113765DF8E4
:10375000044B5161704743F00403DAE753695DF8A5
:10376000044BC83B5361704753695DF8044BC83341
:1037700053617047137C03F003030029CBD043F05F
:103780000403C8E754F40120244BDA6ED2E9001098
:10379000D3680968006810B41842946801EA04010B
:1037A00034D0137C03F0030309BB43F008039908EA
:1037B000013B11740D2B0ED8DFE803F01007220730
:1037C0000D1C10101C0D072207105169137E0139C2
:1037D0000133516113765DF8044B7047137E5169D4
:1037E0000133013113765DF8044B5161704743F0AA
:1037F0000403DAE753695DF8044BC83B5361704733
:1038000053695DF8044BC83353617047137C03F070
:1038100003030029CBD043F00403C8E754F401208C
:10382000244B5A6FD2E90010D3680968006810B4BD
:103830001842946801EA040134D0137C03F00303B6
:1038400009BB43F008039908013B11740D2B0ED8F6
:10385000DFE803F0100722070D1C10101C0D0722D3
:1038600007105169137E01390133516113765DF8F8
:10387000044B7047137E51690133013113765DF8B3
:10388000044B5161704743F00403DAE753695DF874
:10389000044BC83B5361704753695DF8044BC83310
:1038A00053617047137C03F003030029CBD043F02E
:1038B0000403C8E754F40120244BDA6FD2E9001066
:1038C000D3680968006810B41842946801EA0401DA
:1038D00034D0137C03F0030309BB43F008039908B9
:1038E000013B11740D2B0ED8DFE803F010072207FF
:1038F0000D1C10101C0D072207105169137E013991
:103900000133516113765DF8044B7047137E5169A2
:103910000133013113765DF8044B5161704743F078
:103920000403DAE753695DF8044BC83B5361704701
:1039300053695DF8044BC83353617047137C03F03F
:1039400003030029CBD043F00403C8E754F401205B
:10395000244B5A69D2E90010D3680968006810B492
:103960001842946801EA040134D0137C03F0030385
:1039700009BB43F008039908013B11740D2B0ED8C5
:10398000DFE803F0100722070D1C10101C0D0722A2
:1039900007105169137E01390133516113765DF8C7
:1039A000044B7047137E51690133013113765DF882
:1039B000044B5161704743F00403DAE753695DF843
:1039C000044BC83B5361704753695DF8044BC833DF
:1039D00053617047137C03F003030029CBD043F0FD
:1039E0000403C8E754F40120254BD3F8C820D2E9DA
:1039F0000010D3680968006810B41842946801EA9E
:103A0000040134D0137C03F0030309BB43F0080323
:103A10009908013B11740D2B0ED8DFE803F0100755
:103A200022070D1C10101C0D072207105169137E70
:103A300001390133516113765DF8044B7047137EF1
:103A400051690133013113765DF8044B51617047C0
:103A500043F00403DAE753695DF8044BC83B536154
:103A6000704753695DF8044BC83353617047137C4A
:103A700003F003030029CBD043F00403C8E700BFE1
:103A800054F40120254BD3F8CC20D2E90010D368A0
:103A90000968006810B41842946801EA040134D03F
:103AA000137C03F0030309BB43F008039908013BAF
:103AB00011740D2B0ED8DFE803F0100722070D1C40
:103AC00010101C0D072207105169137E01390133B4
:103AD000516113765DF8044B7047137E51690133D1
:103AE000013113765DF8044B5161704743F00403D4
:103AF000DAE753695DF8044BC83B5361704753697B
:103B00005DF8044BC83353617047137C03F0030323
:103B10000029CBD043F00403C8E700BF54F40120D0
:103B2000254BD3F8D020D2E90010D368096800688B
:103B300010B41842946801EA040134D0137C03F0F5
:103B4000030309BB43F008039908013B11740D2BD3
:103B50000ED8DFE803F0100722070D1C10101C0D13
:103B6000072207105169137E013901335161137621
:103B70005DF8044B7047137E5169013301311376B0
:103B80005DF8044B5161704743F00403DAE7536971
:103B90005DF8044BC83B5361704753695DF8044BB3
:103BA000C83353617047137C03F003030029CBD063
:103BB00043F00403C8E700BF54F40120244B9A6982
:103BC000D2E90010D3680968006810B418429468FC
:103BD00001EA040134D0137C03F0030309BB43F072
:103BE00008039908013B11740D2B0ED8DFE803F090
:103BF000100722070D1C10101C0D07220710516919
:103C0000137E01390133516113765DF8044B70471F
:103C1000137E51690133013113765DF8044B516114
:103C2000704743F00403DAE753695DF8044BC83B7F
:103C30005361704753695DF8044BC8335361704753
:103C4000137C03F003030029CBD043F00403C8E73F
:103C500054F40120254BD3F8AC20D2E90010D368EE
:103C60000968006810B41842946801EA040134D06D
:103C7000137C03F0030309BB43F008039908013BDD
:103C800011740D2B0ED8DFE803F0100722070D1C6E
:103C900010101C0D072207105169137E01390133E2
:103CA000516113765DF8044B7047137E51690133FF
:103CB000013113765DF8044B5161704743F0040302
:103CC000DAE753695DF8044BC83B536170475369A9
:103CD0005DF8044BC83353617047137C03F0030352
:103CE0000029CBD043F00403C8E700BF54F40120FF
:103CF000254BD3F8B420D2E90010D36809680068D6
:103D000010B41842946801EA040134D0137C03F023
:103D1000030309BB43F008039908013B11740D2B01
:103D20000ED8DFE803F0100722070D1C10101C0D41
:103D3000072207105169137E01390133516113764F
:103D40005DF8044B7047137E5169013301311376DE
:103D50005DF8044B5161704743F00403DAE753699F
:103D60005DF8044BC83B5361704753695DF8044BE1
:103D7000C83353617047137C03F003030029CBD091
:103D800043F00403C8E700BF54F40120254BD3F8E7
:103D9000BC20D2E90010D3680968006810B418424A
:103DA000946801EA040134D0137C03F0030309BBD7
:103DB00043F008039908013B11740D2B0ED8DFE87E
:103DC00003F0100722070D1C10101C0D072207100E
:103DD0005169137E01390133516113765DF8044B4B
:103DE0007047137E51690133013113765DF8044B3E
:103DF0005161704743F00403DAE753695DF8044BFF
:103E0000C83B5361704753695DF8044BC833536135
:103E10007047137C03F003030029CBD043F0040365
:103E2000C8E700BF54F40120244B5A68D2E90010BF
:103E3000D3680968006810B41842946801EA040164
:103E400034D0137C03F0030309BB43F00803990843
:103E5000013B11740D2B0ED8DFE803F01007220789
:103E60000D1C10101C0D072207105169137E01391B
:103E70000133516113765DF8044B7047137E51692D
:103E80000133013113765DF8044B5161704743F003
:103E90000403DAE753695DF8044BC83B536170478C
:103EA00053695DF8044BC83353617047137C03F0CA
:103EB00003030029CBD043F00403C8E754F40120E6
:103EC000244B9A6AD2E90010D3680968006810B4DC
:103ED0001842946801EA040134D0137C03F0030310
:103EE00009BB43F008039908013B11740D2B0ED850
:103EF000DFE803F0100722070D1C10101C0D07222D
:103F000007105169137E01390133516113765DF851
:103F1000044B7047137E51690133013113765DF80C
:103F2000044B5161704743F00403DAE753695DF8CD
:103F3000044BC83B5361704753695DF8044BC83369
:103F400053617047137C03F003030029CBD043F087
:103F50000403C8E754F40120244BDA6AD2E90010C4
:103F6000D3680968006810B41842946801EA040133
:103F700034D0137C03F0030309BB43F00803990812
:103F8000013B11740D2B0ED8DFE803F01007220758
:103F90000D1C10101C0D072207105169137E0139EA
:103FA0000133516113765DF8044B7047137E5169FC
:103FB0000133013113765DF8044B5161704743F0D2
:103FC0000403DAE753695DF8044BC83B536170475B
:103FD00053695DF8044BC83353617047137C03F099
:103FE00003030029CBD043F00403C8E754F40120B5
:103FF000244B1A6BD2E90010D3680968006810B42A
:104000001842946801EA040134D0137C03F00303DE
:1040100009BB43F008039908013B11740D2B0ED81E
:10402000DFE803F0100722070D1C10101C0D0722FB
:1040300007105169137E01390133516113765DF820
:10404000044B7047137E51690133013113765DF8DB
:10405000044B5161704743F00403DAE753695DF89C
:10406000044BC83B5361704753695DF8044BC83338
:1040700053617047137C03F003030029CBD043F056
:104080000403C8E754F40120244B9A68D2E90010D5
:10409000D3680968006810B41842946801EA040102
:1040A00034D0137C03F0030309BB43F008039908E1
:1040B000013B11740D2B0ED8DFE803F01007220727
:1040C0000D1C10101C0D072207105169137E0139B9
:1040D0000133516113765DF8044B7047137E5169CB
:1040E0000133013113765DF8044B5161704743F0A1
:1040F0000403DAE753695DF8044BC83B536170472A
:1041000053695DF8044BC83353617047137C03F067
:1041100003030029CBD043F00403C8E754F4012083
:10412000254BD3F89C20D2E90010D36809680068B9
:1041300010B41842946801EA040134D0137C03F0EF
:10414000030309BB43F008039908013B11740D2BCD
:104150000ED8DFE803F0100722070D1C10101C0D0D
:10416000072207105169137E01390133516113761B
:104170005DF8044B7047137E5169013301311376AA
:104180005DF8044B5161704743F00403DAE753696B
:104190005DF8044BC83B5361704753695DF8044BAD
:1041A000C83353617047137C03F003030029CBD05D
:1041B00043F00403C8E700BF54F40120244B9A6B7A
:1041C000D2E90010D3680968006810B418429468F6
:1041D00001EA040134D0137C03F0030309BB43F06C
:1041E00008039908013B11740D2B0ED8DFE803F08A
:1041F000100722070D1C10101C0D07220710516913
:10420000137E01390133516113765DF8044B704719
:10421000137E51690133013113765DF8044B51610E
:10422000704743F00403DAE753695DF8044BC83B79
:104230005361704753695DF8044BC833536170474D
:10424000137C03F003030029CBD043F00403C8E739
:1042500054F40120254BD3F88820D2E90010D3680C
:104260000968006810B41842946801EA040134D067
:10427000137C03F0030309BB43F008039908013BD7
:1042800011740D2B0ED8DFE803F0100722070D1C68
:1042900010101C0D072207105169137E01390133DC
:1042A000516113765DF8044B7047137E51690133F9
:1042B000013113765DF8044B5161704743F00403FC
:1042C000DAE753695DF8044BC83B536170475369A3
:1042D0005DF8044BC83353617047137C03F003034C
:1042E0000029CBD043F00403C8E700BF54F40120F9
:1042F000244BDA6BD2E90010D3680968006810B467
:104300001842946801EA040134D0137C03F00303DB
:1043100009BB43F008039908013B11740D2B0ED81B
:10432000DFE803F0100722070D1C10101C0D0722F8
:1043300007105169137E01390133516113765DF81D
:10434000044B7047137E51690133013113765DF8D8
:10435000044B5161704743F00403DAE753695DF899
:10436000044BC83B5361704753695DF8044BC83335
:1043700053617047137C03F003030029CBD043F053
:104380000403C8E754F40120244B9A6ED2E90010CC
:10439000D3680968006810B41842946801EA0401FF
:1043A00034D0137C03F0030309BB43F008039908DE
:1043B000013B11740D2B0ED8DFE803F01007220724
:1043C0000D1C10101C0D072207105169137E0139B6
:1043D0000133516113765DF8044B7047137E5169C8
:1043E0000133013113765DF8044B5161704743F09E
:1043F0000403DAE753695DF8044BC83B5361704727
:1044000053695DF8044BC83353617047137C03F064
:1044100003030029CBD043F00403C8E754F4012080
:10442000244B1A6CD2E90010D3680968006810B4F4
:104430001842946801EA040134D0137C03F00303AA
:1044400009BB43F008039908013B11740D2B0ED8EA
:10445000DFE803F0100722070D1C10101C0D0722C7
:1044600007105169137E01390133516113765DF8EC
:10447000044B7047137E51690133013113765DF8A7
:10448000044B5161704743F00403DAE753695DF868
:10449000044BC83B5361704753695DF8044BC83304
:1044A00053617047137C03F003030029CBD043F022
:1044B0000403C8E754F40120244B9A6FD2E900109A
:1044C000D3680968006810B41842946801EA0401CE
:1044D00034D0137C03F0030309BB43F008039908AD
:1044E000013B11740D2B0ED8DFE803F010072207F3
:1044F0000D1C10101C0D072207105169137E013985
:104500000133516113765DF8044B7047137E516996
:104510000133013113765DF8044B5161704743F06C
:104520000403DAE753695DF8044BC83B53617047F5
:1045300053695DF8044BC83353617047137C03F033
:1045400003030029CBD043F00403C8E754F401204F
:10455000244BDA68D2E90010D3680968006810B407
:104560001842946801EA040134D0137C03F0030379
:1045700009BB43F008039908013B11740D2B0ED8B9
:10458000DFE803F0100722070D1C10101C0D072296
:1045900007105169137E01390133516113765DF8BB
:1045A000044B7047137E51690133013113765DF876
:1045B000044B5161704743F00403DAE753695DF837
:1045C000044BC83B5361704753695DF8044BC833D3
:1045D00053617047137C03F003030029CBD043F0F1
:1045E0000403C8E754F40120254BD3F8A820D2E9EE
:1045F0000010D3680968006810B41842946801EA92
:10460000040134D0137C03F0030309BB43F0080317
:104610009908013B11740D2B0ED8DFE803F0100749
:1046200022070D1C10101C0D072207105169137E64
:1046300001390133516113765DF8044B7047137EE5
:1046400051690133013113765DF8044B51617047B4
:1046500043F00403DAE753695DF8044BC83B536148
:10466000704753695DF8044BC83353617047137C3E
:1046700003F003030029CBD043F00403C8E700BFD5
:1046800054F40120244B9A6CD2E90010D3680968D5
:10469000006810B41842946801EA040134D0137C15
:1046A00003F0030309BB43F008039908013B1174AD
:1046B0000D2B0ED8DFE803F0100722070D1C101099
:1046C0001C0D072207105169137E01390133516116
:1046D00013765DF8044B7047137E51690133013145
:1046E00013765DF8044B5161704743F00403DAE739
:1046F00053695DF8044BC83B5361704753695DF8DB
:10470000044BC83353617047137C03F00303002943
:10471000CBD043F00403C8E754F40120254BD3F871
:104720009820D2E90010D3680968006810B41842D4
:10473000946801EA040134D0137C03F0030309BB3D
:1047400043F008039908013B11740D2B0ED8DFE8E4
:1047500003F0100722070D1C10101C0D0722071074
:104760005169137E01390133516113765DF8044BB1
:104770007047137E51690133013113765DF8044BA4
:104780005161704743F00403DAE753695DF8044B65
:10479000C83B5361704753695DF8044BC83353619C
:1047A0007047137C03F003030029CBD043F00403CC
:1047B000C8E700BF54F40120244BDA6CD2E90010A2
:1047C000D3680968006810B41842946801EA0401CB
:1047D00034D0137C03F0030309BB43F008039908AA
:1047E000013B11740D2B0ED8DFE803F010072207F0
:1047F0000D1C10101C0D072207105169137E013982
:104800000133516113765DF8044B7047137E516993
:104810000133013113765DF8044B5161704743F069
:104820000403DAE753695DF8044BC83B53617047F2
:1048300053695DF8044BC83353617047137C03F030
:1048400003030029CBD043F00403C8E754F401204C
:10485000254BD3F8B020D2E90010D368096800686E
:1048600010B41842946801EA040134D0137C03F0B8
:10487000030309BB43F008039908013B11740D2B96
:104880000ED8DFE803F0100722070D1C10101C0DD6
:10489000072207105169137E0139013351611376E4
:1048A0005DF8044B7047137E516901330131137673
:1048B0005DF8044B5161704743F00403DAE7536934
:1048C0005DF8044BC83B5361704753695DF8044B76
:1048D000C83353617047137C03F003030029CBD026
:1048E00043F00403C8E700BF54F40120244B1A6DC1
:1048F000D2E90010D3680968006810B418429468BF
:1049000001EA040134D0137C03F0030309BB43F034
:1049100008039908013B11740D2B0ED8DFE803F052
:10492000100722070D1C10101C0D072207105169DB
:10493000137E01390133516113765DF8044B7047E2
:10494000137E51690133013113765DF8044B5161D7
:10495000704743F00403DAE753695DF8044BC83B42
:104960005361704753695DF8044BC8335361704716
:10497000137C03F003030029CBD043F00403C8E702
:1049800054F40120254BD3F89020D2E90010D368CD
:104990000968006810B41842946801EA040134D030
:1049A000137C03F0030309BB43F008039908013BA0
:1049B00011740D2B0ED8DFE803F0100722070D1C31
:1049C00010101C0D072207105169137E01390133A5
:1049D000516113765DF8044B7047137E51690133C2
:1049E000013113765DF8044B5161704743F00403C5
:1049F000DAE753695DF8044BC83B5361704753696C
:104A00005DF8044BC83353617047137C03F0030314
:104A10000029CBD043F00403C8E700BF54F40120C1
:104A2000244B1A69D2E90010D3680968006810B4F1
:104A30001842946801EA040134D0137C03F00303A4
:104A400009BB43F008039908013B11740D2B0ED8E4
:104A5000DFE803F0100722070D1C10101C0D0722C1
:104A600007105169137E01390133516113765DF8E6
:104A7000044B7047137E51690133013113765DF8A1
:104A8000044B5161704743F00403DAE753695DF862
:104A9000044BC83B5361704753695DF8044BC833FE
:104AA00053617047137C03F003030029CBD043F01C
:104AB0000403C8E754F40120254BD3F8B820D2E909
:104AC0000010D3680968006810B41842946801EABD
:104AD000040134D0137C03F0030309BB43F0080343
:104AE0009908013B11740D2B0ED8DFE803F0100775
:104AF00022070D1C10101C0D072207105169137E90
:104B000001390133516113765DF8044B7047137E10
:104B100051690133013113765DF8044B51617047DF
:104B200043F00403DAE753695DF8044BC83B536173
:104B3000704753695DF8044BC83353617047137C69
:104B400003F003030029CBD043F00403C8E700BF00
:104B500054F40120244B9A6DD2E90010D3680968FF
:104B6000006810B41842946801EA040134D0137C40
:104B700003F0030309BB43F008039908013B1174D8
:104B80000D2B0ED8DFE803F0100722070D1C1010C4
:104B90001C0D072207105169137E01390133516141
:104BA00013765DF8044B7047137E51690133013170
:104BB00013765DF8044B5161704743F00403DAE764
:104BC00053695DF8044BC83B5361704753695DF806
:104BD000044BC83353617047137C03F0030300296F
:104BE000CBD043F00403C8E754F40120244B1A6FE0
:104BF000D2E90010D3680968006810B418429468BC
:104C000001EA040134D0137C03F0030309BB43F031
:104C100008039908013B11740D2B0ED8DFE803F04F
:104C2000100722070D1C10101C0D072207105169D8
:104C3000137E01390133516113765DF8044B7047DF
:104C4000137E51690133013113765DF8044B5161D4
:104C5000704743F00403DAE753695DF8044BC83B3F
:104C60005361704753695DF8044BC8335361704713
:104C7000137C03F003030029CBD043F00403C8E7FF
:104C800054F40120244BDA6DD2E90010D36809688E
:104C9000006810B41842946801EA040134D0137C0F
:104CA00003F0030309BB43F008039908013B1174A7
:104CB0000D2B0ED8DFE803F0100722070D1C101093
:104CC0001C0D072207105169137E01390133516110
:104CD00013765DF8044B7047137E5169013301313F
:104CE00013765DF8044B5161704743F00403DAE733
:104CF00053695DF8044BC83B5361704753695DF8D5
:104D0000044BC83353617047137C03F0030300293D
:104D1000CBD043F00403C8E754F40120254BD3F86B
:104D2000C020D2E90010D3680968006810B41842A6
:104D3000946801EA040134D0137C03F0030309BB37
:104D400043F008039908013B11740D2B0ED8DFE8DE
:104D500003F0100722070D1C10101C0D072207106E
:104D60005169137E01390133516113765DF8044BAB
:104D70007047137E51690133013113765DF8044B9E
:104D80005161704743F00403DAE753695DF8044B5F
:104D9000C83B5361704753695DF8044BC833536196
:104DA0007047137C03F003030029CBD043F00403C6
:104DB000C8E700BF54F40120244B1A6ED2E900105A
:104DC000D3680968006810B41842946801EA0401C5
:104DD00034D0137C03F0030309BB43F008039908A4
:104DE000013B11740D2B0ED8DFE803F010072207EA
:104DF0000D1C10101C0D072207105169137E01397C
:104E00000133516113765DF8044B7047137E51698D
:104E10000133013113765DF8044B5161704743F063
:104E20000403DAE753695DF8044BC83B53617047EC
:104E300053695DF8044BC83353617047137C03F02A
:104E400003030029CBD043F00403C8E754F4012046
:104E5000254BD3F88020D2E90010D3680968006898
:104E600010B41842946801EA040134D0137C03F0B2
:104E7000030309BB43F008039908013B11740D2B90
:104E80000ED8DFE803F0100722070D1C10101C0DD0
:104E9000072207105169137E0139013351611376DE
:104EA0005DF8044B7047137E51690133013113766D
:104EB0005DF8044B5161704743F00403DAE753692E
:104EC0005DF8044BC83B5361704753695DF8044B70
:104ED000C83353617047137C03F003030029CBD020
:104EE00043F00403C8E700BF54F4012000000000B1
:104EF00043782DE9F04104462DED028B82B0002B62
:104F000000F0A1800378002B00F0848003690F4635
:104F100082690221DFF8D48193424269D8F80050B7
:104F2000C8BF8361C368D8F800609342B8BF4361CB
:104F3000D0E9012313448360C369ED1A036A604812
:104F4000F61A20F0A7F937B1384623F039FE0146AA
:104F5000384620F09FF9A36922695A495A481DF042
:104F60004FFB6369E268594957481DF049FB07EE5A
:104F7000905A5749B8EE675AD4ED027A5248B8EEC3
:104F8000E76AD4ED017AB7EEC55A524FB8EEE77A28
:104F900007EE906AB7EEC66AB8EE678AB7EEC77AD0
:104FA0009FED414BB7EEC88A85EE043B88EE042B9B
:104FB00087EE037B86EE025B53EC172B8DED005BD7
:104FC0001DF01EFB0321444820F064F9A7FB0531C6
:104FD0000A22002389093C481DF020FB03213F4899
:104FE00020F058F93E4B9E424FD84EF660239E4229
:104FF0003ED8A7FB067100230A22334889091DF019
:105000000DFB0121374820F045F90121364820F0F9
:1050100041F909E0DFF8D48042F20F7283618360C6
:10502000D8F80030426103620023D8F8002042F231
:105030000F7163602370E261C4E9031302B0BDEC39
:10504000028BBDE8F081294942F20F7283618360CF
:105050000D68086801212562E26063602370E061E9
:105060006170C4E9043202B0BDEC028BBDE8F0818E
:105070009FED0F0B0121144888EE000B1DF0E4FAA0
:1050800001211B4820F006F9BFE79FED0B0B012122
:105090000D4888EE000B1DF0D7FA0121154820F0CD
:1050A000F9F8B2E7AFF300800000000000408F4045
:1050B00000000000004CED400000000040774B4134
:1050C000384600207C2B002038430120882B00200C
:1050D000942B0020D34D6210A82B0020AC2B002075
:1050E00080EE36000C4A002070530020A4FE012000
:1050F000B02B0020142500205B4B1B6830B5044604
:1051000083B08362092938D8DFE801F047161637E3
:1051100005272737055790F85130042B0AD0002077
:10512000A17C84F8520084F85310002A78D104231B
:1051300084F8513003B030BD90F85130022BF9D0D3
:10514000407C002184F8520084F85310002A5FD17B
:10515000022384F8513003B030BD90F85130032B56
:10516000E8D00020A17C84F8520084F85310002A73
:105170005ED1032384F85130DCE790F85130002BE6
:10518000D8D00025026C3949A0F852503848009513
:105190001DF036FA84F85150CCE790F85130012BCD
:1051A000C8D0407C002184F8520084F85310002AB3
:1051B0004ED1012384F85130BCE790F85130052BD3
:1051C00021D0417CB6EE084B06EE101A817C07EE2A
:1051D000101AB8EEC66BB8EEC77B26EE046B9FEDD7
:1051E000205BFCEEC66B27EE057B16EE900A84F87A
:1051F0005200FCEEC77B17EE901A84F85310FAB9F0
:10520000052384F85130002384F8303003B030BDDA
:105210000220226C1549009015481DF0F1F997E71E
:105220000420226C1149009011481DF0E9F97EE735
:105230000320226C0D4900900D481DF0E1F998E71C
:105240000520226C0949009009481DF0D9F9D7E7DB
:105250000120226C0549009005481DF0D1F9A8E70E
:105260009A9999999999E93FA4FE0120B42B0020BD
:1052700038430120F0B587B01FF0E6FFC4B2632CBD
:1052800000F0A580612C00F0CD80672C00F0CE806E
:105290006C2C00F0AC806D2C73D06E2C00F0D6809E
:1052A000A4F10A03692B00F2A780DFE813F08E0057
:1052B000A500A5008E00A500A500A500A500A500DD
:1052C000A500A500A500A500A500A500A500A500B6
:1052D000A500A500A500A500A500A500A500A500A6
:1052E000A500A500A500A500A500A500A500A50096
:1052F000A500A500A500A500A5008E00EE001001E8
:10530000240152012D014301570166019701A500B7
:10531000A500A500A500A500A500A500A500A50065
:10532000A500A500A500A500A500A500A500A50055
:10533000A500A500A500A500A500A500A500C90120
:10534000A500A500A500A500A500A500A500A50035
:10535000A500A500A500A500A500A500A500A50025
:10536000A500A500A500A500A500A500A500A50015
:10537000A500A500A500A500A500CF01A50013026A
:1053800058021FF01DFF002836DD1FF05DFF30388A
:10539000B04CC3B2B0496846052B9CBF226813705D
:1053A0001DF076FA694603A81DF090FA236803A859
:1053B00019781DF05BFB0146A8481DF0D3F803A83F
:1053C0001DF0A0FA68461DF09DFA07B0F0BDA44C90
:1053D0001B21A448237883F0010323701FF05AFF98
:1053E00021789E4807B0BDE8F0401DF0E1B81FF0FD
:1053F000E7FE002800F3B78127219B481FF04AFFF2
:10540000214600230A2295481DF008F902219748F9
:105410001FF040FF01E01FF017FF1FF0D1FE002832
:10542000F9D1D2E7924C1F219248D3E71FF0C8FE72
:1054300000287FF735AF1FF007FF3038C1B20529CC
:10544000C3D801228C48FFF757FEBEE71FF0B8FE15
:1054500080B11FF093FEC0B232280BD1874C1FF0F1
:10546000F3FE874923787D4883F001032370FDF71D
:10547000B1FAB5E7834C1621834A2378834883F039
:105480000103237082F88334A8E7814E1DF0DEFD0E
:1054900004463578002D00F08781012D00F09E81B3
:1054A000022D00F0B5811DF0D1FD07210546794898
:1054B0001FF0F0FE291B00230A2268481DF0AEF8F9
:1054C0000221754807B0BDE8F0401FF0E3BE734EFF
:1054D0001DF0BCFD04463578002D00F07281012DD1
:1054E00000F08981022D00F0A0811DF0AFFD0621A2
:1054F00005466B48DCE7002301216A481A4607B0DD
:10550000BDE8F0400AF0D4BA674C0023654E0F2185
:10551000251D1A4630460AF0CBFAA5423FF455AF96
:10552000002314F8011F30461A460AF0C1FAA542BA
:10553000F6D14AE75C4C0F215A4E251D012300226B
:1055400030460AF0B5FAAC423FF43FAF14F8011F01
:10555000F4E70123002253481946D0E7524C0F21AB
:10556000504E251D0123BB2230460AF0A1FAA54268
:105570003FF42BAF14F8011FF4E74B4D0023494FC4
:105580000F212E1D2C4638461A460AF091FAA642E3
:1055900008D0002314F8011F38461A460AF088FA8A
:1055A000A642F6D14149424A424B48681268A3FBE1
:1055B00002329623920C03FB02F24B681B1A9A42AA
:1055C000FBD80F21374E0123BB2230460AF070FA78
:1055D000AC423FF4FAAE15F8011FF4E7364C8823CD
:1055E00001251421354884F8A53084F8305184F819
:1055F0002F511FF04FFE2946204609F021FF0028B9
:1056000040F0CD802E491548FDF7E4F9E02301254F
:1056100010212C4884F8A53084F8305184F82F519B
:105620001FF038FE2946244809F00AFF002840F000
:10563000B4802349094807B0BDE8F040FDF7CAB976
:105640004FF0E023204AC3F80C2DBEE61F4C262164
:105650001F48BFE680FA0120D41A002038430120F9
:10566000400602207C1A0020181D0020401D00204A
:1056700025060220981A0020C0EE01203D060220D7
:10568000EC1A00203C060220F09D0120041B0020A3
:105690001E060220201C0020281C00201F060220BD
:1056A000CC1C002020FD01202C2A0020001000E04E
:1056B0003443012083DE1B438C450120D41C002091
:1056C000EC1C0020041D00200400FA054206022004
:1056D0001C1B00201C215B481FF0DCFD5A495B4865
:1056E00000230C6842F20F724360C4610C680370BF
:1056F000836004620C68C0E90323C0E905235448B1
:10570000C4610C6843600370836004620C68C0E984
:105710000323C0E905234F48C4610C68436003704C
:105720008360C0E90323C0E9052304624A480C688A
:105730004360C4610C680370046283600C6809688C
:10574000C0E90523C0E903234448C0E903234360BB
:105750000370426183600162C0E9063435E6404C63
:105760001721404836E61FF06FFDC0B2A0F13004AB
:10577000E3B2052B3FF629AE00EB80033A4A3B49E2
:1057800003EB83033A485B00603B1374FDF722F997
:105790003221374804FB01F124E636494AE735490E
:1057A0003348FDF717F931E733493148FDF712F96E
:1057B00001232A460F2131480AF07AF90123337078
:1057C00071E62F492A48FDF705F901232A460E21E3
:1057D0002A480AF06DF90123337086E629492448E6
:1057E000FDF7F8F82B46ED220F2124480AF060F966
:1057F0000223337057E624491D48FDF7EBF82B468A
:10580000ED220E211D480AF053F9022333706CE695
:105810001E491748FDF7DEF800230F2117481A46E6
:105820000AF046F9002333703DE619491048FDF7A8
:10583000D1F800230E2111481A460AF039F9002345
:10584000337052E6441B0020A4FE012004FA01201C
:1058500028FA012030FD012054FD012018F9012013
:1058600041060220641B0020C0EE0120B81A00206F
:1058700038430120F41C00207C1B002020FD012067
:105880002C1C0020AC1B0020581C0020F01B00200A
:105890009C1C00201A4A30B592F8983083B0C3F1AE
:1058A0009603092B1BDC01AB184620F09FFAC1B20E
:1058B000022912D0032908BF042101221148FFF751
:1058C0001BFC0D201DF016FC01460D20B1FA81F1E4
:1058D00049091DF0E5FB03B030BD0521EDE792F865
:1058E0008C4001AB92F88D10002014440131657892
:1058F00011446070184623F081F865700346D3E7C1
:1059000008FC0120C0EE01202DE9F047DFF8A89245
:1059100041F28832416A82B0D9F8003004465B1AFD
:10592000934200F2AC80D9F8003040F6B832A16A58
:105930005B1A934200F28F80D9F80030216AA28D61
:105940005B1A9A4275D2D9F80030274604F1130643
:1059500004F11F0ADFF86482236297F84C30023B9F
:10596000012B03D894F82E30002B69D197F84D30D5
:105970002046217CC3EB033297F84E50A8FB02323D
:105980000123D20901FB02F2A8FB02127178C2F3D3
:10599000CF120AF08DF8217CC5EB05323546012384
:1059A000A8FB02022046D20901FB02F2A8FB021268
:1059B000B178C2F3CF120AF07BF80123002215F868
:1059C000031F20460AF074F8554507F105072E46D7
:1059D000C3D194F82E3083F0010384F82E3043BBFA
:1059E000D9F800200121A08D84F82F3002EB50035C
:1059F000628E84F83010A3EB52036363D9F8002061
:105A00009A421AD90123274604F10C082646DFF8EA
:105A1000ACA184F82F3097F850300537002B40F0B8
:105A20009C800336B045F6D194F82F302BB1636BD0
:105A30003FE094F83030002B36D102B0BDE8F0875B
:105A4000F51C16F8011F0123002220460AF030F849
:105A5000AE42F6D1B8E7D9F8002094F85130A262EE
:105A6000002B3FF469AF0025226C5149A4F8525035
:105A7000504800951CF0C4FD84F851505CE790F844
:105A80004C30032B3FF44FAF817C0325002280F87C
:105A90004E1080F84D2046490095C26B45481CF0D9
:105AA000AFFD84F84C503EE794F82F20636B002A3A
:105AB000A4D0628ED9F8001013448B42BDD24FF0AF
:105AC000000A264604F1130504F11F0984F830A0EA
:105AD00096F85030DFF8E4804BB9EF1C4F453D4657
:105AE00006F10506A9D096F85030002BF5D096F8AF
:105AF0004C30023B012B4FD996F84D30204696F89A
:105B00004E70C3EB03326978A8FB0232237CD209C2
:105B100003FB02F2A8FB02320123C2F3CF1209F009
:105B2000C7FFA978C7EB07322F462046A8FB0232F1
:105B3000237CD20903FB02F2A8FB02320123C2F349
:105B4000CF1209F0B5FF0123002217F8031F2046EA
:105B500009F0AEFF86F850A0C0E7E57C2046317D15
:105B60000123002209F0A4FF717D012320460022B9
:105B700009F09EFFB17DC5EB05322046AAFB02323B
:105B8000237CD20903FB02F2AAFB02320123C2F3F7
:105B9000CF1209F08DFF44E7EF1C15F8011F012318
:105BA0000022204609F084FFBD42F6D1D2E700BFB3
:105BB000B42B002038430120A4FE01208180808086
:105BC00006EE902A00F588622DE9F043B8EEE61B58
:105BD00006EE903A044600F58467B8EEE64B00F511
:105BE000826004F586662DED028B83B0C4F84814FC
:105BF000DDED0C6ADDED0F5AB8EEE62BDDED0D6A3A
:105C0000B8EEE55B119BB8EEE63BDDED0E6A9FED6D
:105C1000AA8BB8EEE66B9FEDAA7B9FEDAB0BA6EED1
:105C2000087BDDED106AB8EEE66B25EE005B26EE34
:105C3000006B21EE001B24EE004B32EE052B33EE01
:105C4000063B9FEDA30B80ED001B07ED024BB4EE6E
:105C5000C07B02ED025BF1EE10FA87ED002BA8BFCE
:105C600037EE407B82ED006BB5EEC07B06ED023B6C
:105C7000F1EE10FA03D59FED966B37EE067B94F8A4
:105C800083249FED956B27EE067B86ED007BC4F8A1
:105C90006834002A40F08480954D2A68D4F80014B6
:105CA000521AC4F888242A68C4F800242A68C4F860
:105CB000902494F8812412B9012284F884240122CA
:105CC00013F0010503F0020803F0040984F88224AC
:105CD00084F88124C3F3C102C4F8782431D0B8F128
:105CE000000F3DD0B9F1000F49D02DB3D4F878346E
:105CF000012B40F39A8016ED027BB5EE407BF1EE6E
:105D000010FA00F08B8004F58E6597ED000B80EEA5
:105D1000070B1FF01BFD9FED727B20EE070B01218F
:105D200094F8833485ED000B84F88014002B40F048
:105D30009280704C84ED000B03B0BDEC028BBDE88B
:105D4000F08311216C481FF0A5FA29466B481CF01E
:105D50002FFC04216A481FF09DFAB8F1000FC1D151
:105D6000102168481FF096FA414664481CF020FC58
:105D7000042163481FF08EFAB9F1000FDCD1132122
:105D800061481FF087FA00215C481CF011FC0421D7
:105D90005B4803B0BDEC028BBDE8F0431FF07ABA5C
:105DA000534D022159481FF075FA002329680A2231
:105DB00052481CF033FCB4F8982455494F481CF065
:105DC0001FFCD4F8003429680A224C48C91A002361
:105DD0001CF024FC01214F481FF05CFAD4F8481451
:105DE0004D4B4648A3FB01234FF47A729B0902FBFB
:105DF00013114A4B0A22A3FB01310023C9081CF0EE
:105E00000DFC012143481FF045FA02213B4896ED65
:105E1000000B1CF019FCD4F868343EE79FED2A6BA8
:105E200037EE067B06ED027B6DE794F88334002B9A
:105E30003BD00E213A4804F58E651FF02BFAD4F8BA
:105E400078142E481CF0B4FB95ED000B9FED267BDB
:105E500020EE070B63E72F48264C1FF01BFA0221A8
:105E6000264895ED000B1CF0EFFBB6EE007B94EDA1
:105E7000006B95ED000B36EE475BB4EEC50BF1EE13
:105E800010FA07D936EE077BB4EEC70BF1EE10FA25
:105E9000FFF650AF234919488DED000B53EC162B3C
:105EA0001CF0AEFB95ED000B44E7022117481FF0F4
:105EB000F1F9BEE7AFF300802D431CEBE2361A3F49
:105EC0000000000000208C407B14AE47E17A843F44
:105ED000000000000020AC409A9999999999B93F27
:105EE000F8C1631ADCA54CC0CDCCCCCCCCCCEC3FFB
:105EF000A4FE0120E09C0120942A002038430120C8
:105F0000302C0020A82A0020BC2A0020384600207F
:105F1000802A0020D4560020D34D6210CDCCCCCCAA
:105F2000D02A0020E02A002070B5044686B01DF07B
:105F30008DF8D4F80834A568C01A072DC4F88C046D
:105F40006FD03C2D40F0D180E07FA27F617F42EA9C
:105F5000002294F8235094F8330094F8223041EA58
:105F6000022194F8322043EA052394F8315042EAA2
:105F7000002294F8570094F855E045EA022594F879
:105F8000562094F82AC042EA002294F82F004EEAE4
:105F9000022E94F82B204CEA022C94F82E2042EA90
:105FA000002294F8540040EA0E20059094F8300046
:105FB00040EA0520029094F8270094F8265045EA1C
:105FC000002594F8290040EA0C2094F82DC04CEAF2
:105FD000022C94F83B20049294F83A20039294F80F
:105FE000212042EA032294F8253043EA052394F85D
:105FF000245045EA032394F8205045EA0222257FE5
:1060000045EA012194F82C5045EA0C25019594F8B5
:10601000285045EA002520460095FFF7D1FD06B03F
:1060200070BD94F8333094F8320094F8312040EA8F
:10603000032094F8303094F8375042EA002294F864
:10604000361094F8830443EA022394F83B2041EA93
:106050000521E57E06EE103A94F83A3043EA022331
:1060600094F83520B8EEC66B42EA012294F8391054
:1060700041EA032194F8343043EA022304F58C62A8
:1060800005EE103A94F838309FED377BB8EEC55BDB
:1060900043EA0123A17E26EE076B41EA0521384D34
:1060A00025EE075B07EE103A637EB8EEC77B43EA46
:1060B0000123217E9FED2E4B41EA032694F82F30D9
:1060C00027EE047B84F84C3404F58A6383ED005B8F
:1060D00002ED026B82ED007BF0B92A682B68C4F8F0
:1060E0000424C4F8943406B070BD112125481FF073
:1060F000D1F800231022E9B223481CF08FFA0521C1
:1061000022481FF0C7F80023102221791E4806B04C
:10611000BDE870401CF082BA02211D481FF0BAF899
:10612000296800230A2218481CF078FA0C21194823
:106130001FF0B0F8D4F8043429680A221248C91AAA
:1061400000231CF06BFA012113481FF0A3F807EE9F
:10615000906A02210C48B8EE677B9FED070B87EE33
:10616000000B1CF071FAB8E748AFBC9AF2D77A3E40
:10617000FCA9F1D24D62503F0000000000408F406A
:10618000A4FE0120642A002038430120782A002040
:1061900038460020542A0020D4560020B52970B576
:1061A0000D4604462BD0622918D02378022B07D045
:1061B000033B052B11D8DFE803F081869B5B724C13
:1061C000237C0321627C65602B442170DBB21A447E
:1061D000237494F8833462747BBB70BD0378012B05
:1061E000E4D10221002290F8833401700282002B56
:1061F000F3D005216948BDE870401FF04BB84369F2
:10620000002BD2DA012303701CF020FF94F88334B2
:10621000C4F80804002BE0D0022161481FF03AF8CE
:10622000604900230A2209685F481CF0F7F9092138
:106230005E48BDE870401FF02DB803215C481FF098
:1062400029F82946002310225748BDE870401CF069
:10625000E5B9637CAB4265D194F88334002B40F000
:1062600097802046FFF760FE4FF0FF33636170BDFB
:10627000237CEAB2617C1344DBB219442374636962
:106280006174E11801330A7694F883246361002A6B
:1062900074D1E2689A42A0D10723237070BD237C99
:1062A000AB4255D1082294F883342270002B94D04D
:1062B00040493D48BDE87040FCF78CBB237C04217D
:1062C000627CA56080E7237C0520627C2B4494F8E7
:1062D0008314E560DBB220701A44237462740029D1
:1062E0003FF47BAF03213448BDE870401EF0D2BFBD
:1062F000237C0620E1682B44627C01EB05212070A1
:10630000DBB20020E1601A4494F8831460612374C6
:10631000627400293FF461AF03212848BDE8704052
:106320001EF0B8BF00254FF0FF3302211C48636107
:1063300025701EF0AFFF1B492B460A2209681A4838
:106340001CF06CF910211E48BDE870401EF0A2BF81
:1063500000254FF0FF3302211148636125701EF0C4
:1063600099FF10492B460A2209680F481CF056F97C
:1063700010211448BDE870401EF08CBF0121124866
:106380001EF088FF294608481CF012F9636980E76F
:1063900003210E481EF07EFF63E700BF382B00206C
:1063A00038460020A4FE0120384301202C2B002079
:1063B000402B00204C2B0020442B0020482B002099
:1063C000682B0020502B0020D4560020642B002086
:1063D0009FED9D7B90ED042B9FED9D3B9FED9E1BC4
:1063E00022EE072B90ED164B90ED0E5B22EE032B69
:1063F00024EE014B25EE075B90ED086B10B532EEF5
:10640000067B044680ED0A4B37EE447B80ED0E5B45
:10641000B5EEC07B80ED042BF1EE10FA03D59FEDB5
:10642000904B37EE047B9FED904BB4EEC47BF1EEC6
:1064300010FAC0F2F7809FED8E4BB4EEC47BF1EE04
:1064400010FA00F2EF80B1EE477B9FED854BB4EE82
:10645000C47BF1EE10FAC8BF37EE447B9FED864B4C
:1064600084ED067BB4EEC47BF1EE10FA05D59FED0A
:106470007C4B37EE047B84ED067BB0EEC74B9FED83
:10648000803BB4EEC34BF1EE10FA40F1D7809FEDA4
:106490006E3BA7EE036B9FED724B9FED777BB4EEE7
:1064A000C46BF1EE10FAC8BF36EE446BB4EEC76BA6
:1064B00084ED086BF1EE10FA05D59FED697B36EEA1
:1064C000076B84ED086BB7EEC55B32EE067B94ED8F
:1064D000124BB7EEC55A9FED6C1B34EE454B9FED4A
:1064E000602B24EE016BB4EEC27B94ED023B9FED7A
:1064F000680BF1EE10FAA3EE006BC8BF37EE427BDB
:1065000084ED004BB5EEC07BF1EE10FA84ED026B2A
:1065100003D59FED536B37EE067B0C2162489FED50
:106520005E6B27EE067B84ED0C7B1EF0B3FE5F48AE
:106530001CF04AF809215E481EF0ACFE02215B48BF
:1065400094ED160B1CF080F858481CF03DF80A2119
:1065500058481EF09FFE0221544894ED120B1CF087
:1065600073F852481CF030F80C2153481EF092FE8C
:106570004E481CF029F8132150481EF08BFE0221D2
:106580004A4894ED040B1CF05FF848481CF01CF8D6
:1065900006214B481EF07EFE0221444894ED0E0B6E
:1065A0001CF052F841481CF00FF80F2145481EF02E
:1065B00071FE3E481CF008F80F2143481EF06AFEA9
:1065C00002213A4894ED080B1CF03EF837481BF0C6
:1065D000FBFF0B213D481EF05DFE0221334894ED88
:1065E000000B1CF031F831481BF0EEFF1121384848
:1065F0001EF050FE02212D4894ED020B1CF024F8F1
:106600002A481BF0E1FF0E2132481EF043FE022112
:10661000264894ED0C0B1CF017F82448BDE81040F8
:106620001BF0D2BF9FED124BB4EEC47B9FED0C4B21
:10663000F1EE10FA05DD34EE477B06E79FED183BDF
:1066400027E737EE047BFEE69A9999999999B93F25
:10665000399D52A246DF91BF399D52A246DF913F3C
:10666000182D4454FB211940182D4454FB21F9BF27
:10667000182D4454FB21F93F182D4454FB2119C017
:106680000AD7A3703D0AC73F333333333333D33F85
:10669000666666666666E63FF8C1631ADCA54C402E
:1066A0009A9999999999C93FB82F002038430120A8
:1066B000C82F0020D42F0020E02F0020F02F002032
:1066C000043000200C3000201C3000202C30002032
:1066D000383000204C3000202DE9F047844C84B045
:1066E0001CF0B4FC012394F89850824EC5F1960535
:1066F00070609D42337300F3B180002D00F39F80E2
:106700007D4B012293F8811483F8802409B983F822
:1067100084240122794F7A4C83F881243A68C3F8A3
:10672000902494F86030002B36D176481FF05AFB45
:10673000754D94F8603085ED000B002B68D1734BDC
:1067400093F83030042B00F0C680714A403595ED47
:10675000000B9FED637B137820EE070B85ED000B9C
:10676000002B5ED00A22002339686A481BF056FFCE
:10677000694968481BF044FF01A822F021FA01ABE7
:10678000023818441FF032FB014662481BF010FF2C
:1067900060481BF019FF44E060481FF027FB07EE3C
:1067A000900A5F4BB8EEE77B5E4D5F4829469FED50
:1067B0004E6B27EE067BBDEEC77B17EE102A9A5C68
:1067C000FCF7F0F859481FF00DFB4E4884ED120B12
:1067D0001FF008FBB5F90030204606EE103AB5F977
:1067E000023007EE103AB8EEC66BB8EEC77B84ED08
:1067F000160B84ED046B84ED0E7BFFF7E9FD94F836
:106800006030002B91D0404BD4E90C01C3E900016A
:1068100094ED020B464D3E4A137885ED000B002B9C
:10682000A0D11CF013FC337B23B1D6E900329B1AB4
:10683000034433600023337304B0BDE8F08794F859
:106840009550002394F8961001A825440131214465
:106850006C786B7022F0D2F86C7051E794F89470F9
:106860004FF0000994F895102744DFF898801944F8
:1068700097F801A04046214487F8019022F0BEF825
:10688000022D87F801A0DAD094F8937008F108007F
:1068900094F894102744013197F801A0214487F817
:1068A000019022F0ABF8042D87F801A0C7DD94F821
:1068B000915094F89200254401306F78204485F877
:1068C00001901FF093FA6F7094F89850C8F8100078
:1068D000C5F1960511E7154840351FF083FA9AE790
:1068E000CDCCCCCCCCCCEC3F9A9999999999B93F25
:1068F00008FC012048EF0120F09D0120A4FE0120AA
:10690000F09C0120ACAB012020A2012014A50120A5
:106910003C06022038430120C017002034570120D4
:10692000482A00200CF901209CF80120B4AB01207A
:1069300060A201200B484FF0FF0C01210F220378C9
:1069400080F80DC0437190F801C0837283780172A2
:106950004FF4967180F806C080F80BC0C3710373C2
:106960001CF00EBE345E012070B501201CF05EFCF0
:1069700004460220E4B21CF059FC40F6661360F3B2
:106980000F24A4B29C424F4C5BD0022201214E48FE
:1069900004F10F05C4F596761CF0F2FD0F224FF4BA
:1069A00096714A481CF0ECFDA0191CF03FFC04F85D
:1069B000010BAC42F8D12A2145481EF06BFC454C36
:1069C0004FF4C87144480D2204F10D051CF0D8FDA8
:1069D00023214248C4F5C8761EF05CFCA0191CF0C7
:1069E00025FC04F8010BAC42F8D13D4C1C224FF4BD
:1069F00016713C48C4F51676A5181CF0C1FD24217B
:106A000039481EF047FCA0191CF010FC04F8010BDB
:106A1000AC42F8D1354C40F2DE324FF42F7134489D
:106A2000C4F52F76A5181CF0ABFD232131481EF0CC
:106A300031FCA0191CF0FAFB04F8010BAC42F8D1B0
:106A400070BD04F10F05C4F59676A0191CF0EEFB9D
:106A500004F8010BAC42F8D11E4C2221264804F167
:106A60000D05C4F5C8761EF015FCA0191CF0DEFB60
:106A700004F8010BAC42F8D1194C24211F4804F151
:106A80001C05C4F516761EF005FCA0191CF0CEFB03
:106A900004F8010BAC42F8D1144C2521184804F23B
:106AA000DE35C4F52F761EF0F5FBA0191CF0BEFBF9
:106AB00004F8010BAC42F8D124211248BDE8704023
:106AC0001EF0E8BB345E0120C84101201C260020D6
:106AD000F81D00203457012044F90120241E002015
:106AE000785D012054F90120481E002054570120F0
:106AF0002C510120701E0020941E0020B81E002082
:106B0000E01E0020081F0020D0E90021C3681268A1
:106B1000096810B41942846802EA040234D0037C84
:106B200003F003030ABB43F008039A08013B027415
:106B30000D2B0ED8DFE803F0100722070D1C1010F4
:106B40001C0D072207104269037E013A013342619E
:106B500003765DF8044B70474269037E01325DF8AD
:106B6000044B013342610376704743F00403DAE7D4
:106B700043695DF8044BC83B4361704743695DF866
:106B8000044BC83343617047037C03F00303002ABE
:106B9000CBD043F00403C8E70B4610B5362800F20B
:106BA0009782DFE810F08C0282027902700267029D
:106BB0005E0255024C0243023A02310228021F02D1
:106BC000BF01B601AD01A4019B01920189018001C1
:106BD00077016E0165015C0153014A0141013801F1
:106BE0002F0126011D0113010901FF00F500EB0033
:106BF000E100D700CD00C300B900AF00A5009B00A5
:106C0000910087007D00730069005F0055004B0014
:106C100041003700C84C0422C8493620C4F8D83097
:106C20001CF0C0FC012010BDC34C0422C449352017
:106C3000C4F8D4301CF0B6FC012010BDBE4C0422B8
