:0200000460009A
:100000004643464200000156000000000103030081
:1000100000000000000000000000000000000000E0
:1000200000000000000000000000000000000000D0
:1000300000000000000000000000000000000000C0
:1000400000000000010408000000000000000000A3
:100050000000800000000000000000000000000020
:100060000000000000000000000000000000000090
:100070000000000000000000000000000000000080
:10008000EB04180A063204260000000000000000FD
:10009000050404240000000000000000000000002F
:1000A0000000000000000000000000000000000050
:1000B0000604000000000000000000000000000036
:1000C0000000000000000000000000000000000030
:1000D00020041808000000000000000000000000DC
:1000E0000000000000000000000000000000000010
:1000F0000000000000000000000000000000000000
:10010000D8041808000000000000000000000000F3
:100110000204180804200000000000000000000095
:1001200000000000000000000000000000000000CF
:10013000600400000000000000000000000000005B
:1001400000000000000000000000000000000000AF
:10015000000000000000000000000000000000009F
:10016000000000000000000000000000000000008F
:10017000000000000000000000000000000000007F
:10018000000000000000000000000000000000006F
:10019000000000000000000000000000000000005F
:1001A000000000000000000000000000000000004F
:1001B000000000000000000000000000000000003F
:1001C000000100000010000001000000000000001D
:1001D000000001000000000000000000000000001E
:1001E000000000000000000000000000000000000F
:1001F00000000000000000000000000000000000FF
:10020000FFFFFFFFFFFFFFFFFFFFFFFFFFFFFFFFFE
:10021000FFFFFFFFFFFFFFFFFFFFFFFFFFFFFFFFEE
:10100000D10020434D1600600000000000000000E9
:1010100020100060001000600074066000000000F6
:10102000000000600080060000000000FFFFFFFFDE
:10103000FFFFFFFFFFFFFFFFFFFFFFFFFFFFFFFFC0
:10104000FFFFFFFFFFFFFFFFFFFFFFFFFFFFFFFFB0
:10105000FFFFFFFFFFFFFFFFFFFFFFFFFFFFFFFFA0
:10106000FFFFFFFFFFFFFFFFFFFFFFFFFFFFFFFF90
:10140000814205D051F8043B40F8043B8242F9D8B0
:10141000704700BF044A05494FF0000342F8043BFF
:101420009142FBD8704700BFC07E0320A02A042051
:101430002DE98848BFF34F8F00BF00BF00BF00BF3A
:1014400000F000FA684B0822C3F8542100BF00BF27
:1014500000BF00BF00BF00BF00BF00BF00BF00BF94
:1014600000BF00BF00BF00BF00BF00BF5F4A6049B0
:101470006048FFF7C5FF604A60496148FFF7C0FF59
:10148000604CFFF7C7FF4FF470004FF0E0210023DE
:101490005D4AC1F8880D44F823200133B02BFAD1FE
:1014A0005A4B80215A4A03F8011B9342FBD14FF05B
:1014B000E0254D4E4FF08039DFF884B1DFF884A18C
:1014C0004FF0FF31C5F8084D0027C6F80491C6F863
:1014D00000B1C6F8F490C6F8F0A0D5F8243DDFF8C6
:1014E000688143F4E0234B4AC5F8243DD8F81C300A
:1014F00023F07F0343F04003C8F81C30D8F82430B1
:1015000023F07F0343F04003C8F824309166D1668E
:101510001167516700F09EF93F4B4049A363404B70
:10152000E36363236B610323AF612B613D4BC5F81C
:10153000203DD5F8FC3D43F08073C5F8FC3D3A4BA7
:101540001A6842F001021A605B680B6000F0CCFB85
:10155000C6F804913548C6F800B1C6F8F490C6F84C
:10156000F0A000F039FDD8F86C10314B314A41F44D
:101570004051C8F86C101F60C3F80871C3F81871A7
:10158000C3F82871C3F83871936BDB0708D442F6AF
:101590001563294951651365936B43F00103936308
:1015A000244A264C936843F00113936000F0DAF963
:1015B00000F01EF900F004FD00F0C4FB00F044F957
:1015C0002368132BFCD900F055FC2368B3F5967FF4
:1015D000FBD300F03DF900F039F900F00DFD00F00B
:1015E000FFFC30BFFDE700BF00800D40D8D20200F5
:1015F0000022006000000000C07E0320DCF40260D6
:1016000000000020007C03200D25020000E400E023
:10161000A0E400E000C00A402D390200C0120420FE
:101620003139020000002020001000E00046C323F2
:101630000040084000400D400000C056C412042085
:101640001B1018200C0D111300C00F40054B4FF458
:101650002A01054A05485A641864054A9963954663
:10166000FFF7E6FE00C00A40FFAFAAAA070020006D
:101670000000052043690A4A03EB011010B4037A05
:10168000084C02EB0313D3E901321460C2681A60FC
:1016900003690BB142691A605DF8044B704700BFE3
:1016A000103C002061F801004369027E03EB021246
:1016B00092F808C08C451CD01A7AFF2A19D09142A2
:1016C00010B5044616D01A7EFF2A06D00121D3E9B0
:1016D000002312681A4201D1217610BD064B052263
:1016E000204603EB0C135B681A60FFF7C3FF2176FB
:1016F000F3E770470021EAE7103C002043690A4AFB
:1017000003EB011010B490F82830084C02EB0313DF
:10171000D3E901321460C26A1A60036B0BB1426BE9
:101720001A605DF8044B7047103C002061F801001E
:101730004369427E03EB021292F828C08C451ED00A
:1017400093F82820FF2A1AD0914210B5044617D0EA
:1017500093F83820FF2A06D00121D3E9002312682C
:101760001A4201D1617610BD064B0522204603EBDB
:101770000C135B681A60FFF7C1FF6176F3E77047EF
:101780000021EAE7103C0020164942698B6B23F4E4
:101790007C0343F4802370B58B630446124DD2E979
:1017A00000130A681A4303690A60022200211A61C1
:1017B0000E4A19619A6401225A629D624FF43035D3
:1017C000DD624FF001159E6C1E6519629D651A6100
:1017D000017EFFF74FFF617E2046BDE87040FFF7B6
:1017E0008DBF00BF00C00F40B80B05053B3728195F
:1017F000104BA020104AD96E41F4403110B4D96684
:1018000040F23764D96E41F44071D96654649064F3
:10181000936C1B06FCD4094A40F23761A023516443
:101820009364936C13F08003FBD1054A13705DF849
:10183000044B704700C00F4000400C4000800C403B
:10184000482A0420704700BF704700BF704700BFA0
:1018500000BF704710B44FF0E0230021102431483E
:10186000C3F8941DC3F89C4D1124C3F8A00D2E4855
:10187000C3F89C4D1224C3F8A00D2C48C3F89C4D0E
:101880002B4AC3F8A00D2B4C42F015022A48C3F88E
:101890009C4DC3F8A00D294C2948C3F89C4DC3F8B2
:1018A000A00D284CC3F89C2D2748284AC3F8A04D0A
:1018B000C3F89C0DC3F8A02D02F5A022244C0C32D5
:1018C0002448C3F89C4DC3F8A02D234AC3F89C0DAF
:1018D000224CC3F8A02D02F14062C3F89C4D204871
:1018E000C3F8A02D0C32C3F89C0DC3F8A02D00BF87
:1018F00000BF00BF00BF00BF0122C3F8942DBFF39B
:101900004F8FBFF36F8FC3F8501FBFF34F8FBFF3DD
:101910006F8FD3F8142D5DF8044B42F44032C3F8B6
:10192000142D70473F000010250008070900100023
:10193000A02A042013002000210002071400002028
:1019400025000813090000101600202027000B13A3
:1019500017000040180000602F000B0719000070EE
:101960001A000080F0B5B84B1822B84E0120B84FCD
:1019700083B0C3F85C62B749C3F86072B64DC3F870
:101980006462A6F53046B54CC3F86862C3F86C5281
:10199000C3F87052C3F87452C3F8785248F20C7509
:1019A000DA661A675A679A67DA67C3F88020C3F85D
:1019B0008420C3F88820C1F82C03A94AC1F8300359
:1019C000C1F83403C1F83803C1F83C03C1F850032F
:1019D000A169A44B0A40A448A4491343A44AA361A3
:1019E000D4F8843043F00C03C4F884304FF0FF3453
:1019F000036843F00203036003682B404FF4005573
:101A00001A439C4B026044608A689B4C13409B4A7B
:101A100043F000538360C36823F07803C360036A14
:101A2000134023430362036A1340954A2343954CB2
:101A300043628262C2620022D1F8B83023F03F03D1
:101A400043F00103C0F8B830D1F8BC308E4923F020
:101A50003F0343F00103C0F8BC3040F2056302616C
:101A600005660467C0F88030456644670224C0F804
:101A70008430036823F0020303608161834B84494F
:101A8000C46143F8042B8B42FBD1774A136843F0BF
:101A900001031360136813F00103FBD17A4802219C
:101AA00040F2F564906140F29940D16140F26641A4
:101AB000C2F8004242F20144C2F810127549C2F85D
:101AC0002002C2F8301240F235417348C2F8344265
:101AD000C2F84012714CC2F8500242F20120704923
:101AE000C2F854120121C2F86042C2F864025E4892
:101AF000C2F8A030C2F8A430C2F8B0104369DA07C7
:101B0000FCD5012300244FF4803257494361C0F8CB
:101B1000A040C0F8A420C0F8B0304B69DB07FCD56A
:101B2000012300244FF400304F4A4B61C1F8A0401C
:101B3000C1F8A400C1F8B0305369DF07FCD5012318
:101B40000024584848495361C2F8A040C2F8A40094
:101B5000C2F8B0304B69DE07FCD5D1F8003145F64C
:101B60000D5221209BB24861934265D100244FF46D
:101B7000802201233C48C1F8A040C1F8A420C1F84C
:101B8000B0304369DD07FCD501234FF40004002188
:101B9000354A4361C0F8A040C0F8A410C0F8B03086
:101BA0005369DC07FCD501234FF400044FF4803067
:101BB0002D495361C2F8A040C2F8A400C2F8B03069
:101BC0004B69D807FCD501234FF400044FF40030D3
:101BD000254A4B61C1F8A040C1F8A400C1F8B0305B
:101BE0005369D907FCD501234FF400042D481E4941
:101BF0005361C2F8A040C2F8A400C2F8B0304B69EB
:101C0000DA07FCD5D1F8003145F60D5221209BB200
:101C10004861934250D008254FF400042249002027
:101C2000224B234A009015705A1A0123214822445E
:101C300000F0DEF903B0F0BD1E4B0022C3E9002224
:101C4000C3E9022203B0F0BD00801F40F9B00100DB
:101C5000F910010000841F40F970010000C00F401E
:101C6000FFFCFF1F000300A000402A4000802A4024
:101C70001200FFFFFF37F7004000008000FFF07CFC
:101C8000FF000F8363000200F05AF05A00422A401E
:101C900000432A409F041830EB06180A3806180A39
:101CA00006320126040003000000007000000070EE
:101CB000492A0420CC0D04204FF400044FF4802264
:101CC00001230848C1F8A040C1F8A420C1F8B030F1
:101CD0004369DB07FCD5012310254FF08074436175
:101CE0009CE700BF00402A40F0B4154A40274FF45B
:101CF00080314FF480564FF400554FF4404443F286
:101D00004200136913F0020F0ED113F4005F0FD0DD
:101D100013F4805F0ED0002BF3DA13F4803F0BD165
:101D20005B060BD5F0BC7047946151619061E8E7A8
:101D30005561E6E75661E4E79161E2E75761E0E764
:101D400000800D403F4A03203F49F3EE095AD2F884
:101D500080304FF0000C9FED3D6A23F001039FEDB2
:101D60003C5A30B4C2F88030C2F89000D1F8E0108C
:101D7000384DCBB2384C39482B6007EE903A0B0DFA
:101D8000C1F30B21F8EEE77A06EE903A07EE101A4F
:101D9000334BB8EEC77A2160F8EEE66A314937EE88
:101DA000C66A37EEC55A76EEC76A77EEE57A26EE52
:101DB000266AC3ED006A25EE265AD2F8803067EE17
:101DC000A64AC0ED007AC6EE275A274885EE276A54
:101DD000C4EEA76A75EE875AFCEEE55A36EE076A3E
:101DE00015EE904ABCEEC66A43EA045376EE877A53
:101DF000C2F8803016EE103AD2F89041FCEEE77A45
:101E000001EA0341214317EE903AC2F89011C3F35F
:101E10000B03D2F890110B431449C2F89031D2F859
:101E2000803043F00203C2F88030114B80F840C08C
:101E3000C1F840314FF0E023012230BCC3F8082143
:101E4000704700BF00810D4000441F400000AA42BF
:101E50000000B442E0110420DC110420E41104204D
:101E6000F01104200000FF0F00E400E0007C0320DC
:101E7000F5260200314B40F6617210B5C3F82021FF
:101E800040F2044400F0A4F82D4A2E49D2F88030E4
:101E90002D4843F00303C2F880302C4BC1F8604159
:101EA00002681A4203D1D1F8A8319A071BD0254AFB
:101EB0004FF00041244B5963D2F8403143F0020304
:101EC000C2F84031D2F840319B07FBD44FF40030C8
:101ED0004FF0E0211C4B4FF00042C1F88C0219205A
:101EE0009A6300F081F8184A4FF08040154C0021A9
:101EF00090630A20164B11604FF42072C4F8A801B9
:101F0000184600F061F84FF4800203464FF4810058
:101F100040F243111860C4F858311A640D4B0E4A50
:101F2000C4F84811C3F804224FF0E0224FF4003106
:101F30000123C2F80C11C4F8403110BD00800D40DF
:101F400000C00F4000002E4000900D40001C1E00FD
:101F500000000020007C0320DD28020008B50E4BA5
:101F60001B6E9B0700D4FBBE72B60C4B00200C4AC4
:101F7000C3F8400103F160430A49A3F55F231164EC
:101F80009D46BFF34F8F4FF400130748074ADB69A4
:101F900002609B68984700BF00441F4000002E402D
:101FA00000C00A400300200000802020000012EB47
:101FB000F8B500BFF8BC08BC9E46704700000000A2
:101FC0005FF800F0192402005FF800F05D63020082
:101FD0005FF800F04D3002005FF800F035110200AC
:101FE0005FF800F0291B02005FF800F025140200E2
:101FF0005FF800F0C13902005FF800F0B96F02002D
:082000006904000061B4000056
:1020080080C00F400000000319000000100000000D
:10201800E8841F4001000000FF000000FF000000EE
:102028000000000000000000180000001000000080
:10203800E4841F4001000000FF000000FF000000D2
:1020480000000000000000001F00000011DA00007E
:1020580070C00F40000C00001100000011000000CB
:10206800E0841F40020000002C0000001200000065
:10207800E0841F4001000000100000001100000073
:10208800DC841F40020000002D0000001200000048
:10209800DC841F40010000001E00000005DA00007B
:1020A80070C00F40C00000001200000013000000C4
:1020B800D0841F4001000000FF000000FF00000066
:1020C80000000000000000001300000013000000E2
:1020D800CC841F4001000000FF000000FF0000004A
:1020E80000000000000000001C000000F9D90000FA
:1020F800160355005300420020005300650072008B
:10210800690061006C000000180354006500650058
:102118006E00730079006400750069006E006F003E
:102128000403090409026200030100C032080B001D
:102138000202020100090400000102020100052454
:1021480000100105240101010424020605240600EB
:10215800010705820310001009040100020A0000AB
:10216800000705030240000007058402400000093B
:1021780004020002FF6AFF00070581024000010710
:10218800050102400001000009026200030100C0CD
:1021980032080B00020202010009040000010202D9
:1021A8000100052400100105240101010424020690
:1021B8000524060001070582031000050904010033
:1021C800020A000000070503020002000705840256
:1021D8000002000904020002FF6AC7000705810225
:1021E8000002010705010200020100000A060002C0
:0821F800EF02014001000000AC
:1022000000000000000000000000000000000000CE
:1022100000000000000000000000000000000000BE
:102220000A49D1E900231344824298BF984234BF3F
:102230000123002308D28B68801AB0FBF3F203FB62
:102240001200B0FA80F35B0918467047A0760320AD
:102250000346024A00201A60704700BF74680320DA
:102260000120704770B5054608460E46FFF7D8FFB7
:1022700038B34FF400121C4B2946D0691A68006924
:102280009B68B21A04690020A047184BB0FA80F48A
:1022900005461B686409022B01DC204670BD41F62F
:1022A00042121349134B032007F000FD124B134A4F
:1022B00031461348002D08BF1A4607F03DFD204661
:1022C00070BD0A4B04461B68002BE6DD094B41F646
:1022D0003A120749012007F0E9FC3146094807F0A6
:1022E0002BFD204670BD00BFA076032000710320A7
:1022F000B46D0020E0340020E0640020E46400209D
:102300000C650020EC64002001231A46013B002AE2
:10231000FBD17047064908B5D1F8E0309A0705D4DB
:10232000FFF7F2FFD1F8E0309B07F9D508BD00BFF9
:1023300000802A402DE9F04F2DED028BADF5077D91
:10234000044600AF07F11803F9607A607B6172B64A
:1023500007F11400FFF77CFF002847D16F4E7A6821
:10236000F368B2FBF3F503FB1525002D4CD1336860
:10237000A34200F2A780FB687A689A189342BA6079
:1023800080F0BA801D461FE03368FA68A4EB0309A9
:1023900093424BD94FF4001341464A46D8692B4625
:1023A0000069D0F808800020C047F368B0FA80FACE
:1023B0001D444FEA5A1A1C44BB68AB4294BF002329
:1023C0000AF00103002B61D02046FFF729FFD7F860
:1023D00014800028D8D021464046FFF743FF8246AC
:1023E0000028D1D14E4B1B68022B7CDC4FF0000A39
:1023F0004C4B1B7803B962B6504607F50777BD46CC
:10240000BDEC028BBDE8F08F454B1B68002BEDDD6A
:10241000454B41F65F1245498246012007F046FCD4
:10242000F2687968424807F087FCE1E76B46F0689C
:1024300008EE103A20F00303800803F1070323F0AD
:102440000703ADEB030D6B4607EE903A0ED005EB9C
:102450008000A5F1040BA3F1040A0438FFF75AFF2A
:102460005BF8043F58454AF8043FF7D14FF4001099
:1024700017EE903A41464A46C0690069D0F8088094
:102480000020C04718EE103A9D468EE7244B804648
:102490001B68022BACDD244B41F689122349032033
:1024A00007F004FCB8F1000F224A234B12BF4FF093
:1024B000000A4FF0010A1346224679681F4807F0C8
:1024C0003BFC95E7164B1B68002B8FDD164B41F646
:1024D00063120120154907F0E9FB21461848AA4676
:1024E00007F02AFC84E7104B41F689120F490320BC
:1024F00007F0DCFB104BDFE7094B1B68022B02DC0B
:102500004FF0010A74E7084B41F68912074903208E
:1025100007F0CCFB4FF0010A064BCDE7A076032075
:1025200000710320652A0420EC340020B46D0020E3
:1025300030650020E0640020E46400206C65002029
:102540004C650020B2B12DE9F041074688461D4692
:102550001646002408EB040138192C442A46FFF7DC
:10256000E9FEA642F6D84FF0E023054AC3F80C2D49
:10257000BDE8F0814FF0E023014AC3F80C2D70470D
:102580000400FA05F8B54FF084439D695A69154077
:102590000DD0254F01269D6195FAA5F4B4FA84F477
:1025A00057F8243006FA04F49847A543F4D11F4B9A
:1025B0009D695A6915400DD01D4F01269D6195FA00
:1025C000A5F4B4FA84F457F8243006FA04F49847D2
:1025D000A543F4D1174B9D695A6915400DD0164F8C
:1025E00001269D6195FAA5F4B4FA84F457F82430D5
:1025F00006FA04F49847A543F4D1104B9D695A6933
:1026000015400DD00E4F01269D6195FAA5F4B4FA40
:1026100084F457F8243006FA04F49847A543F4D11B
:10262000BFF34F8FF8BD00BF506E03200040004243
:10263000D06E032000800042506F032000C0004293
:10264000D06F03200548064B1B1AD90F01EBA301DD
:10265000491002D0034B03B118477047C07E0320D6
:10266000C07E03200000000008B5054B1BB10549E2
:102670000548AFF30080BDE80840FFF7E3BF00BFA7
:10268000000000002811042000800660704700BF91
:10269000704700BF704700BF00207047034B1868A9
:1026A00010B103681B681847704700BF400804203A
:1026B0004FF0E023014AC3F80C2D70470400FA05DF
:1026C000002070472DE9F04100F5804090B0574C54
:1026D0009646574B0094C0F860121B6A5548C3F3E6
:1026E00001230468403304F080746B4413F8406C99
:1026F000514B03FB06F60368B6FBF1F2B6FBF2F5AD
:1027000043F0A0434D1B03600368DF01FCD5052A9D
:102710004FF0000C2AD96046831C0130B2FBF3F75E
:10272000192F07FB03F3F7D84FF00108B6FBF3F3BB
:10273000CB1A002BB8BF5B42AB420BDBA7F10C03FB
:1027400018BF4FF00008062B0AD8B8F1000F07D0C9
:102750008446E1E71D46A7F10C038446062BF4D915
:10276000052FD9D80CF10103B2FBF3F2B5F5967F32
:10277000A2F105024CDC142A4AD802EB42022F4F88
:102780006E46DFF8B08002F14003BEF1020F0DEBA0
:1027900003050FCF0FC60FCF0FC60FCF0FC697E899
:1027A0000F0007C626F8023B4FEA1343337015F8B3
:1027B0003F3C15F83E2C4FEAC34315F8401C4FEA46
:1027C000024203F4601301F0070102F4E02243EA3D
:1027D000020343EA010343F4800343EA0C6343F436
:1027E0008043C8F80430D8F8043014BF23F008033D
:1027F00043F00803C8F804303CB90E4A136823F0CC
:10280000805313601368DB01FCD410B0BDE8F08185
:10281000002CFAD1074A136823F080531360136821
:10282000D901FCD410B0BDE8F08100BF3C185000C5
:1028300000C00F4000801D4040420F0048060020AD
:1028400000207047002070470820704710B50446EC
:1028500000F5407020F096FB204610BD0346104A5C
:10286000102110B590B0DC78029407A89C780194F0
:102870005C78009405AC1B7815F012F9002307A9C9
:1028800020460F93CDE90B33CDE90D3317F094FFBC
:102890000BAA94E8030019F0CBF80B9810B010BD08
:1028A000402C002010B5002184B0064C4FF4FA7281
:1028B000002300910448CDE9014114F045FD04B026
:1028C00010BD00BFB1040000DC0D042030B583B0A2
:1028D000094B0A4901A8019325F0D8FF50B1002403
:1028E000064D0134294601A825F0D0FF0F2C01D058
:1028F0000028F6D103B030BDA40E0420481B0020F0
:1029000010490B68486B0A68496B02F07F02C1F3FB
:10291000036101320431B2EB410F10D303F07F03A6
:10292000C0F30360053B0130A3EB4003DBB2054A73
:10293000106800F07F000130C01AC0B27047002359
:10294000F5E700BF00801D4030B585B086460DF12B
:10295000040C8CE80E0090F86E5090F86F402B1924
:102960000A2B01D90B3B9BB2DAB263460B2C02EB6C
:10297000820203CB0EEB420C1B884EF81200CCF8FF
:102980000410ACF8083004D001348EF86F4005B064
:1029900030BD0135EDB20B2D03D08EF86E5005B071
:1029A00030BD00238EF86E3005B030BD90F86F302A
:1029B00093B1934210D390F86E301A440A2A88BF1C
:1029C0000B3A02EB820200EB420350F812005A6805
:1029D00008604A601B890B81704700BF69B170B500
:1029E000054608460C4626F06BFC2B68024621463D
:1029F00028465B68BDE8704018477047F8B5064642
:102A000000F1160500F12207EC1E14F8011F012346
:102A1000002230460DF0A4FAAC42F6D1E51CBD42CE
:102A2000F2D13046F8BD00BF0C4A92F89830C3F19D
:102A30009603012B00DC704730B592F894409BB0B0
:102A400092F895100023144401A8013165781144CF
:102A5000637026F053FB65701BB030BD2810042056
:102A6000034B1B7803B970476021024822F052BF24
:102A7000672A04209C1E00202DE9F84F18212048C9
:102A8000DFF8888001244FF0000B1E4EDFF880A095
:102A90001D4FDFF8809022F03DFF01E018F801BFE4
:102AA00033685A46514638461D1995F838502B441C
:102AB0005B7C20F0A3F831680C2238460B1993F8A0
:102AC000383002FB0311543120F04AF8356859467A
:102AD000002205EB040C95F83330013448469CF88D
:102AE00038C065446D7CEB1A18BF01230DF038FA2D
:102AF000072CD3D10448BDE8F84F20F063B800BFDD
:102B000004260020A00E0420B8560320382C0020F4
:102B100020260020401104202DE9F041144C94F8A7
:102B20009850C5F19605002D01DCBDE8F08194F8C0
:102B30009560002794F8961026440E48013196F8C7
:102B400001802144777026F0D9FA042D86F801809F
:102B5000EBDD94F8915094F8921025440648013129
:102B60006E7821446F7026F0C9FA6E70BDE8F0816E
:102B700028100420B4050420C005042008B5074B24
:102B80001B7803B908BD5821054822F0C3FE054B48
:102B900005481978BDE8084020F008B8672A0420E5
:102BA0003425002028100420B856032010B5114CFD
:102BB0000A460146206816F0B5F898B91A210E4861
:102BC00022F0A8FE0D481FF0FDFF20F07FFD0C4B0A
:102BD0001A7B22B1D3E90021521A02441A60002262
:102BE0001A7310BD20680021026D483013F034FEC6
:102BF000EBE700BF84120420201B0020B8560320FE
:102C0000A005042038B50D46044620F05FFD084AB3
:102C1000084B0121926B586092F884201973042AA2
:102C200000D038BD29462046BDE83840FFF7BEBF7A
:102C3000DC0D0420A005042038B5044649B108463F
:102C40000D4626F03DFB2368024629465B68204678
:102C500098472046BDE838401FF0B4BF2DE9F8433F
:102C600005460F4626480421144622F053FE002351
:102C70001022E97823481FF0CFFF0121224822F0DB
:102C800049FEE97800230A221E481FF0C5FF0221F1
:102C90001E4822F03FFE34B1204626F011FB0146CB
:102CA000204622F037FE204626F00AFBC4B2132C41
:102CB00008D8174E013401213046E4B222F02AFE32
:102CC000142CF7D17E1E3A4612490E481FF096FF8B
:102CD000042E12DD0424DFF84090DFF828800C4F2A
:102CE0002A5D013449464046E4B21FF087FF0121C6
:102CF000384622F00FFEB442F2DBBDE8F88300BF95
:102D00009C2E0020B8560320A42E0020A82E0020C0
:102D1000D8580020AC2E0020B82E0020244B5A6832
:102D2000D2E90010D3680968006810B418429468AA
:102D300001EA040134D0137C03F0030309BB43F020
:102D400008039908013B11740D2B0ED8DFE803F03E
:102D5000100722070D1C10101C0D072207105169C7
:102D6000137E01390133516113765DF8044B7047CE
:102D7000137E51690133013113765DF8044B5161C3
:102D8000704743F00403DAE753695DF8044BC83B2E
:102D90005361704753695DF8044BC8335361704702
:102DA000137C03F003030029CBD043F00403C8E7EE
:102DB00074080420244B9A68D2E90010D36809688B
:102DC000006810B41842946801EA040134D0137CFE
:102DD00003F0030309BB43F008039908013B117496
:102DE0000D2B0ED8DFE803F0100722070D1C101082
:102DF0001C0D072207105169137E013901335161FF
:102E000013765DF8044B7047137E5169013301312D
:102E100013765DF8044B5161704743F00403DAE721
:102E200053695DF8044BC83B5361704753695DF8C3
:102E3000044BC83353617047137C03F0030300292C
:102E4000CBD043F00403C8E774080420254BD3F823
:102E5000D020D2E90010D3680968006810B4184285
:102E6000946801EA040134D0137C03F0030309BB26
:102E700043F008039908013B11740D2B0ED8DFE8CD
:102E800003F0100722070D1C10101C0D072207105D
:102E90005169137E01390133516113765DF8044B9A
:102EA0007047137E51690133013113765DF8044B8D
:102EB0005161704743F00403DAE753695DF8044B4E
:102EC000C83B5361704753695DF8044BC833536185
:102ED0007047137C03F003030029CBD043F00403B5
:102EE000C8E700BF74080420244BDA68D2E9001058
:102EF000D3680968006810B41842946801EA0401B4
:102F000034D0137C03F0030309BB43F00803990892
:102F1000013B11740D2B0ED8DFE803F010072207D8
:102F20000D1C10101C0D072207105169137E01396A
:102F30000133516113765DF8044B7047137E51697C
:102F40000133013113765DF8044B5161704743F052
:102F50000403DAE753695DF8044BC83B53617047DB
:102F600053695DF8044BC83353617047137C03F019
:102F700003030029CBD043F00403C8E774080420FE
:102F8000254BD3F8D820D2E90010D368096800682F
:102F900010B41842946801EA040134D0137C03F0A1
:102FA000030309BB43F008039908013B11740D2B7F
:102FB0000ED8DFE803F0100722070D1C10101C0DBF
:102FC000072207105169137E0139013351611376CD
:102FD0005DF8044B7047137E51690133013113765C
:102FE0005DF8044B5161704743F00403DAE753691D
:102FF0005DF8044BC83B5361704753695DF8044B5F
:10300000C83353617047137C03F003030029CBD00E
:1030100043F00403C8E700BF74080420254BD3F82D
:103020008C20D2E90010D3680968006810B41842F7
:10303000946801EA040134D0137C03F0030309BB54
:1030400043F008039908013B11740D2B0ED8DFE8FB
:1030500003F0100722070D1C10101C0D072207108B
:103060005169137E01390133516113765DF8044BC8
:103070007047137E51690133013113765DF8044BBB
:103080005161704743F00403DAE753695DF8044B7C
:10309000C83B5361704753695DF8044BC8335361B3
:1030A0007047137C03F003030029CBD043F00403E3
:1030B000C8E700BF74080420244B1A68D2E9001046
:1030C000D3680968006810B41842946801EA0401E2
:1030D00034D0137C03F0030309BB43F008039908C1
:1030E000013B11740D2B0ED8DFE803F01007220707
:1030F0000D1C10101C0D072207105169137E013999
:103100000133516113765DF8044B7047137E5169AA
:103110000133013113765DF8044B5161704743F080
:103120000403DAE753695DF8044BC83B5361704709
:1031300053695DF8044BC83353617047137C03F047
:1031400003030029CBD043F00403C8E7740804202C
:10315000254BD3F89020D2E90010D36809680068A5
:1031600010B41842946801EA040134D0137C03F0CF
:10317000030309BB43F008039908013B11740D2BAD
:103180000ED8DFE803F0100722070D1C10101C0DED
:10319000072207105169137E0139013351611376FB
:1031A0005DF8044B7047137E51690133013113768A
:1031B0005DF8044B5161704743F00403DAE753694B
:1031C0005DF8044BC83B5361704753695DF8044B8D
:1031D000C83353617047137C03F003030029CBD03D
:1031E00043F00403C8E700BF74080420254BD3F85C
:1031F0008820D2E90010D3680968006810B418422A
:10320000946801EA040134D0137C03F0030309BB82
:1032100043F008039908013B11740D2B0ED8DFE829
:1032200003F0100722070D1C10101C0D07220710B9
:103230005169137E01390133516113765DF8044BF6
:103240007047137E51690133013113765DF8044BE9
:103250005161704743F00403DAE753695DF8044BAA
:10326000C83B5361704753695DF8044BC8335361E1
:103270007047137C03F003030029CBD043F0040311
:10328000C8E700BF74080420254BD3F89420D2E986
:103290000010D3680968006810B41842946801EA05
:1032A000040134D0137C03F0030309BB43F008038B
:1032B0009908013B11740D2B0ED8DFE803F01007BD
:1032C00022070D1C10101C0D072207105169137ED8
:1032D00001390133516113765DF8044B7047137E59
:1032E00051690133013113765DF8044B5161704728
:1032F00043F00403DAE753695DF8044BC83B5361BC
:10330000704753695DF8044BC83353617047137CB1
:1033100003F003030029CBD043F00403C8E700BF48
:1033200074080420254BD3F88420D2E90010D36818
:103330000968006810B41842946801EA040134D0A6
:10334000137C03F0030309BB43F008039908013B16
:1033500011740D2B0ED8DFE803F0100722070D1CA7
:1033600010101C0D072207105169137E013901331B
:10337000516113765DF8044B7047137E5169013338
:10338000013113765DF8044B5161704743F004033B
:10339000DAE753695DF8044BC83B536170475369E2
:1033A0005DF8044BC83353617047137C03F003038B
:1033B0000029CBD043F00403C8E700BF7408042001
:1033C000254BD3F89820D2E90010D368096800682B
:1033D00010B41842946801EA040134D0137C03F05D
:1033E000030309BB43F008039908013B11740D2B3B
:1033F0000ED8DFE803F0100722070D1C10101C0D7B
:10340000072207105169137E013901335161137688
:103410005DF8044B7047137E516901330131137617
:103420005DF8044B5161704743F00403DAE75369D8
:103430005DF8044BC83B5361704753695DF8044B1A
:10344000C83353617047137C03F003030029CBD0CA
:1034500043F00403C8E700BF74080420244B5A6FEC
:10346000D2E90010D3680968006810B41842946863
:1034700001EA040134D0137C03F0030309BB43F0D9
:1034800008039908013B11740D2B0ED8DFE803F0F7
:10349000100722070D1C10101C0D07220710516980
:1034A000137E01390133516113765DF8044B704787
:1034B000137E51690133013113765DF8044B51617C
:1034C000704743F00403DAE753695DF8044BC83BE7
:1034D0005361704753695DF8044BC83353617047BB
:1034E000137C03F003030029CBD043F00403C8E7A7
:1034F00074080420254BD3F89C20D2E90010D3682F
:103500000968006810B41842946801EA040134D0D4
:10351000137C03F0030309BB43F008039908013B44
:1035200011740D2B0ED8DFE803F0100722070D1CD5
:1035300010101C0D072207105169137E0139013349
:10354000516113765DF8044B7047137E5169013366
:10355000013113765DF8044B5161704743F0040369
:10356000DAE753695DF8044BC83B53617047536910
:103570005DF8044BC83353617047137C03F00303B9
:103580000029CBD043F00403C8E700BF740804202F
:10359000244BDA6FD2E90010D3680968006810B4D0
:1035A0001842946801EA040134D0137C03F0030349
:1035B00009BB43F008039908013B11740D2B0ED889
:1035C000DFE803F0100722070D1C10101C0D072266
:1035D00007105169137E01390133516113765DF88B
:1035E000044B7047137E51690133013113765DF846
:1035F000044B5161704743F00403DAE753695DF807
:10360000044BC83B5361704753695DF8044BC833A2
:1036100053617047137C03F003030029CBD043F0C0
:103620000403C8E774080420254BD3F8A020D2E98E
:103630000010D3680968006810B41842946801EA61
:10364000040134D0137C03F0030309BB43F00803E7
:103650009908013B11740D2B0ED8DFE803F0100719
:1036600022070D1C10101C0D072207105169137E34
:1036700001390133516113765DF8044B7047137EB5
:1036800051690133013113765DF8044B5161704784
:1036900043F00403DAE753695DF8044BC83B536118
:1036A000704753695DF8044BC83353617047137C0E
:1036B00003F003030029CBD043F00403C8E700BFA5
:1036C00074080420244B5A6DD2E90010D3680968AD
:1036D000006810B41842946801EA040134D0137CE5
:1036E00003F0030309BB43F008039908013B11747D
:1036F0000D2B0ED8DFE803F0100722070D1C101069
:103700001C0D072207105169137E013901335161E5
:1037100013765DF8044B7047137E51690133013114
:1037200013765DF8044B5161704743F00403DAE708
:1037300053695DF8044BC83B5361704753695DF8AA
:10374000044BC83353617047137C03F00303002913
:10375000CBD043F00403C8E774080420254BD3F80A
:10376000A420D2E90010D3680968006810B4184298
:10377000946801EA040134D0137C03F0030309BB0D
:1037800043F008039908013B11740D2B0ED8DFE8B4
:1037900003F0100722070D1C10101C0D0722071044
:1037A0005169137E01390133516113765DF8044B81
:1037B0007047137E51690133013113765DF8044B74
:1037C0005161704743F00403DAE753695DF8044B35
:1037D000C83B5361704753695DF8044BC83353616C
:1037E0007047137C03F003030029CBD043F004039C
:1037F000C8E700BF74080420244BDA6DD2E900103A
:10380000D3680968006810B41842946801EA04019A
:1038100034D0137C03F0030309BB43F00803990879
:10382000013B11740D2B0ED8DFE803F010072207BF
:103830000D1C10101C0D072207105169137E013951
:103840000133516113765DF8044B7047137E516963
:103850000133013113765DF8044B5161704743F039
:103860000403DAE753695DF8044BC83B53617047C2
:1038700053695DF8044BC83353617047137C03F000
:1038800003030029CBD043F00403C8E774080420E5
:10389000254BD3F8A820D2E90010D3680968006846
:1038A00010B41842946801EA040134D0137C03F088
:1038B000030309BB43F008039908013B11740D2B66
:1038C0000ED8DFE803F0100722070D1C10101C0DA6
:1038D000072207105169137E0139013351611376B4
:1038E0005DF8044B7047137E516901330131137643
:1038F0005DF8044B5161704743F00403DAE7536904
:103900005DF8044BC83B5361704753695DF8044B45
:10391000C83353617047137C03F003030029CBD0F5
:1039200043F00403C8E700BF74080420244B5A6E18
:10393000D2E90010D3680968006810B4184294688E
:1039400001EA040134D0137C03F0030309BB43F004
:1039500008039908013B11740D2B0ED8DFE803F022
:10396000100722070D1C10101C0D072207105169AB
:10397000137E01390133516113765DF8044B7047B2
:10398000137E51690133013113765DF8044B5161A7
:10399000704743F00403DAE753695DF8044BC83B12
:1039A0005361704753695DF8044BC83353617047E6
:1039B000137C03F003030029CBD043F00403C8E7D2
:1039C00074080420254BD3F8AC20D2E90010D3684A
:1039D0000968006810B41842946801EA040134D000
:1039E000137C03F0030309BB43F008039908013B70
:1039F00011740D2B0ED8DFE803F0100722070D1C01
:103A000010101C0D072207105169137E0139013374
:103A1000516113765DF8044B7047137E5169013391
:103A2000013113765DF8044B5161704743F0040394
:103A3000DAE753695DF8044BC83B5361704753693B
:103A40005DF8044BC83353617047137C03F00303E4
:103A50000029CBD043F00403C8E700BF740804205A
:103A6000244BDA6ED2E90010D3680968006810B4FC
:103A70001842946801EA040134D0137C03F0030374
:103A800009BB43F008039908013B11740D2B0ED8B4
:103A9000DFE803F0100722070D1C10101C0D072291
:103AA00007105169137E01390133516113765DF8B6
:103AB000044B7047137E51690133013113765DF871
:103AC000044B5161704743F00403DAE753695DF832
:103AD000044BC83B5361704753695DF8044BC833CE
:103AE00053617047137C03F003030029CBD043F0EC
:103AF0000403C8E774080420254BD3F8B020D2E9AA
:103B00000010D3680968006810B41842946801EA8C
:103B1000040134D0137C03F0030309BB43F0080312
:103B20009908013B11740D2B0ED8DFE803F0100744
:103B300022070D1C10101C0D072207105169137E5F
:103B400001390133516113765DF8044B7047137EE0
:103B500051690133013113765DF8044B51617047AF
:103B600043F00403DAE753695DF8044BC83B536143
:103B7000704753695DF8044BC83353617047137C39
:103B800003F003030029CBD043F00403C8E700BFD0
:103B900074080420244B5A69D2E90010D3680968DC
:103BA000006810B41842946801EA040134D0137C10
:103BB00003F0030309BB43F008039908013B1174A8
:103BC0000D2B0ED8DFE803F0100722070D1C101094
:103BD0001C0D072207105169137E01390133516111
:103BE00013765DF8044B7047137E51690133013140
:103BF00013765DF8044B5161704743F00403DAE734
:103C000053695DF8044BC83B5361704753695DF8D5
:103C1000044BC83353617047137C03F0030300293E
:103C2000CBD043F00403C8E774080420254BD3F835
:103C3000B420D2E90010D3680968006810B41842B3
:103C4000946801EA040134D0137C03F0030309BB38
:103C500043F008039908013B11740D2B0ED8DFE8DF
:103C600003F0100722070D1C10101C0D072207106F
:103C70005169137E01390133516113765DF8044BAC
:103C80007047137E51690133013113765DF8044B9F
:103C90005161704743F00403DAE753695DF8044B60
:103CA000C83B5361704753695DF8044BC833536197
:103CB0007047137C03F003030029CBD043F00403C7
:103CC000C8E700BF74080420244BDA69D2E9001069
:103CD000D3680968006810B41842946801EA0401C6
:103CE00034D0137C03F0030309BB43F008039908A5
:103CF000013B11740D2B0ED8DFE803F010072207EB
:103D00000D1C10101C0D072207105169137E01397C
:103D10000133516113765DF8044B7047137E51698E
:103D20000133013113765DF8044B5161704743F064
:103D30000403DAE753695DF8044BC83B53617047ED
:103D400053695DF8044BC83353617047137C03F02B
:103D500003030029CBD043F00403C8E77408042010
:103D6000254BD3F8B820D2E90010D3680968006861
:103D700010B41842946801EA040134D0137C03F0B3
:103D8000030309BB43F008039908013B11740D2B91
:103D90000ED8DFE803F0100722070D1C10101C0DD1
:103DA000072207105169137E0139013351611376DF
:103DB0005DF8044B7047137E51690133013113766E
:103DC0005DF8044B5161704743F00403DAE753692F
:103DD0005DF8044BC83B5361704753695DF8044B71
:103DE000C83353617047137C03F003030029CBD021
:103DF00043F00403C8E700BF74080420244B5A6A48
:103E0000D2E90010D3680968006810B418429468B9
:103E100001EA040134D0137C03F0030309BB43F02F
:103E200008039908013B11740D2B0ED8DFE803F04D
:103E3000100722070D1C10101C0D072207105169D6
:103E4000137E01390133516113765DF8044B7047DD
:103E5000137E51690133013113765DF8044B5161D2
:103E6000704743F00403DAE753695DF8044BC83B3D
:103E70005361704753695DF8044BC8335361704711
:103E8000137C03F003030029CBD043F00403C8E7FD
:103E900074080420254BD3F8BC20D2E90010D36865
:103EA0000968006810B41842946801EA040134D02B
:103EB000137C03F0030309BB43F008039908013B9B
:103EC00011740D2B0ED8DFE803F0100722070D1C2C
:103ED00010101C0D072207105169137E01390133A0
:103EE000516113765DF8044B7047137E51690133BD
:103EF000013113765DF8044B5161704743F00403C0
:103F0000DAE753695DF8044BC83B53617047536966
:103F10005DF8044BC83353617047137C03F003030F
:103F20000029CBD043F00403C8E700BF7408042085
:103F3000244BDA6AD2E90010D3680968006810B42B
:103F40001842946801EA040134D0137C03F003039F
:103F500009BB43F008039908013B11740D2B0ED8DF
:103F6000DFE803F0100722070D1C10101C0D0722BC
:103F700007105169137E01390133516113765DF8E1
:103F8000044B7047137E51690133013113765DF89C
:103F9000044B5161704743F00403DAE753695DF85D
:103FA000044BC83B5361704753695DF8044BC833F9
:103FB00053617047137C03F003030029CBD043F017
:103FC0000403C8E774080420254BD3F8C020D2E9C5
:103FD0000010D3680968006810B41842946801EAB8
:103FE000040134D0137C03F0030309BB43F008033E
:103FF0009908013B11740D2B0ED8DFE803F0100770
:1040000022070D1C10101C0D072207105169137E8A
:1040100001390133516113765DF8044B7047137E0B
:1040200051690133013113765DF8044B51617047DA
:1040300043F00403DAE753695DF8044BC83B53616E
:10404000704753695DF8044BC83353617047137C64
:1040500003F003030029CBD043F00403C8E700BFFB
:1040600074080420244B5A6BD2E90010D368096805
:10407000006810B41842946801EA040134D0137C3B
:1040800003F0030309BB43F008039908013B1174D3
:104090000D2B0ED8DFE803F0100722070D1C1010BF
:1040A0001C0D072207105169137E0139013351613C
:1040B00013765DF8044B7047137E5169013301316B
:1040C00013765DF8044B5161704743F00403DAE75F
:1040D00053695DF8044BC83B5361704753695DF801
:1040E000044BC83353617047137C03F0030300296A
:1040F000CBD043F00403C8E774080420254BD3F861
:10410000C420D2E90010D3680968006810B41842CE
:10411000946801EA040134D0137C03F0030309BB63
:1041200043F008039908013B11740D2B0ED8DFE80A
:1041300003F0100722070D1C10101C0D072207109A
:104140005169137E01390133516113765DF8044BD7
:104150007047137E51690133013113765DF8044BCA
:104160005161704743F00403DAE753695DF8044B8B
:10417000C83B5361704753695DF8044BC8335361C2
:104180007047137C03F003030029CBD043F00403F2
:10419000C8E700BF74080420244BDA6BD2E9001092
:1041A000D3680968006810B41842946801EA0401F1
:1041B00034D0137C03F0030309BB43F008039908D0
:1041C000013B11740D2B0ED8DFE803F01007220716
:1041D0000D1C10101C0D072207105169137E0139A8
:1041E0000133516113765DF8044B7047137E5169BA
:1041F0000133013113765DF8044B5161704743F090
:104200000403DAE753695DF8044BC83B5361704718
:1042100053695DF8044BC83353617047137C03F056
:1042200003030029CBD043F00403C8E7740804203B
:10423000254BD3F8C820D2E90010D368096800687C
:1042400010B41842946801EA040134D0137C03F0DE
:10425000030309BB43F008039908013B11740D2BBC
:104260000ED8DFE803F0100722070D1C10101C0DFC
:10427000072207105169137E01390133516113760A
:104280005DF8044B7047137E516901330131137699
:104290005DF8044B5161704743F00403DAE753695A
:1042A0005DF8044BC83B5361704753695DF8044B9C
:1042B000C83353617047137C03F003030029CBD04C
:1042C00043F00403C8E700BF74080420244B5A6C71
:1042D000D2E90010D3680968006810B418429468E5
:1042E00001EA040134D0137C03F0030309BB43F05B
:1042F00008039908013B11740D2B0ED8DFE803F079
:10430000100722070D1C10101C0D07220710516901
:10431000137E01390133516113765DF8044B704708
:10432000137E51690133013113765DF8044B5161FD
:10433000704743F00403DAE753695DF8044BC83B68
:104340005361704753695DF8044BC833536170473C
:10435000137C03F003030029CBD043F00403C8E728
:1043600074080420254BD3F8CC20D2E90010D36880
:104370000968006810B41842946801EA040134D056
:10438000137C03F0030309BB43F008039908013BC6
:1043900011740D2B0ED8DFE803F0100722070D1C57
:1043A00010101C0D072207105169137E01390133CB
:1043B000516113765DF8044B7047137E51690133E8
:1043C000013113765DF8044B5161704743F00403EB
:1043D000DAE753695DF8044BC83B53617047536992
:1043E0005DF8044BC83353617047137C03F003033B
:1043F0000029CBD043F00403C8E700BF74080420B1
:10440000244BDA6CD2E90010D3680968006810B454
:104410001842946801EA040134D0137C03F00303CA
:1044200009BB43F008039908013B11740D2B0ED80A
:10443000DFE803F0100722070D1C10101C0D0722E7
:1044400007105169137E01390133516113765DF80C
:10445000044B7047137E51690133013113765DF8C7
:10446000044B5161704743F00403DAE753695DF888
:10447000044BC83B5361704753695DF8044BC83324
:1044800053617047137C03F003030029CBD043F042
:104490000403C8E774080420254BD3F8D420D2E9DC
:1044A0000010D3680968006810B41842946801EAE3
:1044B000040134D0137C03F0030309BB43F0080369
:1044C0009908013B11740D2B0ED8DFE803F010079B
:1044D00022070D1C10101C0D072207105169137EB6
:1044E00001390133516113765DF8044B7047137E37
:1044F00051690133013113765DF8044B5161704706
:1045000043F00403DAE753695DF8044BC83B536199
:10451000704753695DF8044BC83353617047137C8F
:1045200003F003030029CBD043F00403C8E700BF26
:1045300074080420254BD3F88020D2E90010D368FA
:104540000968006810B41842946801EA040134D084
:10455000137C03F0030309BB43F008039908013BF4
:1045600011740D2B0ED8DFE803F0100722070D1C85
:1045700010101C0D072207105169137E01390133F9
:10458000516113765DF8044B7047137E5169013316
:10459000013113765DF8044B5161704743F0040319
:1045A000DAE753695DF8044BC83B536170475369C0
:1045B0005DF8044BC83353617047137C03F0030369
:1045C0000029CBD043F00403C8E700BF74080420DF
:1045D000244B1A6FD2E90010D3680968006810B440
:1045E0001842946801EA040134D0137C03F00303F9
:1045F00009BB43F008039908013B11740D2B0ED839
:10460000DFE803F0100722070D1C10101C0D072215
:1046100007105169137E01390133516113765DF83A
:10462000044B7047137E51690133013113765DF8F5
:10463000044B5161704743F00403DAE753695DF8B6
:10464000044BC83B5361704753695DF8044BC83352
:1046500053617047137C03F003030029CBD043F070
:104660000403C8E774080420244B9A6FD2E90010B1
:10467000D3680968006810B41842946801EA04011C
:1046800034D0137C03F0030309BB43F008039908FB
:10469000013B11740D2B0ED8DFE803F01007220741
:1046A0000D1C10101C0D072207105169137E0139D3
:1046B0000133516113765DF8044B7047137E5169E5
:1046C0000133013113765DF8044B5161704743F0BB
:1046D0000403DAE753695DF8044BC83B5361704744
:1046E00053695DF8044BC83353617047137C03F082
:1046F00003030029CBD043F00403C8E77408042067
:10470000244B1A6DD2E90010D3680968006810B410
:104710001842946801EA040134D0137C03F00303C7
:1047200009BB43F008039908013B11740D2B0ED807
:10473000DFE803F0100722070D1C10101C0D0722E4
:1047400007105169137E01390133516113765DF809
:10475000044B7047137E51690133013113765DF8C4
:10476000044B5161704743F00403DAE753695DF885
:10477000044BC83B5361704753695DF8044BC83321
:1047800053617047137C03F003030029CBD043F03F
:104790000403C8E774080420244B9A6DD2E9001082
:1047A000D3680968006810B41842946801EA0401EB
:1047B00034D0137C03F0030309BB43F008039908CA
:1047C000013B11740D2B0ED8DFE803F01007220710
:1047D0000D1C10101C0D072207105169137E0139A2
:1047E0000133516113765DF8044B7047137E5169B4
:1047F0000133013113765DF8044B5161704743F08A
:104800000403DAE753695DF8044BC83B5361704712
:1048100053695DF8044BC83353617047137C03F050
:1048200003030029CBD043F00403C8E77408042035
:10483000244B1A6ED2E90010D3680968006810B4DE
:104840001842946801EA040134D0137C03F0030396
:1048500009BB43F008039908013B11740D2B0ED8D6
:10486000DFE803F0100722070D1C10101C0D0722B3
:1048700007105169137E01390133516113765DF8D8
:10488000044B7047137E51690133013113765DF893
:10489000044B5161704743F00403DAE753695DF854
:1048A000044BC83B5361704753695DF8044BC833F0
:1048B00053617047137C03F003030029CBD043F00E
:1048C0000403C8E774080420244B9A6ED2E9001050
:1048D000D3680968006810B41842946801EA0401BA
:1048E00034D0137C03F0030309BB43F00803990899
:1048F000013B11740D2B0ED8DFE803F010072207DF
:104900000D1C10101C0D072207105169137E013970
:104910000133516113765DF8044B7047137E516982
:104920000133013113765DF8044B5161704743F058
:104930000403DAE753695DF8044BC83B53617047E1
:1049400053695DF8044BC83353617047137C03F01F
:1049500003030029CBD043F00403C8E77408042004
:10496000244B1A69D2E90010D3680968006810B4B2
:104970001842946801EA040134D0137C03F0030365
:1049800009BB43F008039908013B11740D2B0ED8A5
:10499000DFE803F0100722070D1C10101C0D072282
:1049A00007105169137E01390133516113765DF8A7
:1049B000044B7047137E51690133013113765DF862
:1049C000044B5161704743F00403DAE753695DF823
:1049D000044BC83B5361704753695DF8044BC833BF
:1049E00053617047137C03F003030029CBD043F0DD
:1049F0000403C8E774080420244B9A69D2E9001024
:104A0000D3680968006810B41842946801EA040188
:104A100034D0137C03F0030309BB43F00803990867
:104A2000013B11740D2B0ED8DFE803F010072207AD
:104A30000D1C10101C0D072207105169137E01393F
:104A40000133516113765DF8044B7047137E516951
:104A50000133013113765DF8044B5161704743F027
:104A60000403DAE753695DF8044BC83B53617047B0
:104A700053695DF8044BC83353617047137C03F0EE
:104A800003030029CBD043F00403C8E774080420D3
:104A9000244B1A6AD2E90010D3680968006810B480
:104AA0001842946801EA040134D0137C03F0030334
:104AB00009BB43F008039908013B11740D2B0ED874
:104AC000DFE803F0100722070D1C10101C0D072251
:104AD00007105169137E01390133516113765DF876
:104AE000044B7047137E51690133013113765DF831
:104AF000044B5161704743F00403DAE753695DF8F2
:104B0000044BC83B5361704753695DF8044BC8338D
:104B100053617047137C03F003030029CBD043F0AB
:104B20000403C8E774080420244B9A6AD2E90010F1
:104B3000D3680968006810B41842946801EA040157
:104B400034D0137C03F0030309BB43F00803990836
:104B5000013B11740D2B0ED8DFE803F0100722077C
:104B60000D1C10101C0D072207105169137E01390E
:104B70000133516113765DF8044B7047137E516920
:104B80000133013113765DF8044B5161704743F0F6
:104B90000403DAE753695DF8044BC83B536170477F
:104BA00053695DF8044BC83353617047137C03F0BD
:104BB00003030029CBD043F00403C8E774080420A2
:104BC000244B1A6BD2E90010D3680968006810B44E
:104BD0001842946801EA040134D0137C03F0030303
:104BE00009BB43F008039908013B11740D2B0ED843
:104BF000DFE803F0100722070D1C10101C0D072220
:104C000007105169137E01390133516113765DF844
:104C1000044B7047137E51690133013113765DF8FF
:104C2000044B5161704743F00403DAE753695DF8C0
:104C3000044BC83B5361704753695DF8044BC8335C
:104C400053617047137C03F003030029CBD043F07A
:104C50000403C8E774080420244B9A6BD2E90010BF
:104C6000D3680968006810B41842946801EA040126
:104C700034D0137C03F0030309BB43F00803990805
:104C8000013B11740D2B0ED8DFE803F0100722074B
:104C90000D1C10101C0D072207105169137E0139DD
:104CA0000133516113765DF8044B7047137E5169EF
:104CB0000133013113765DF8044B5161704743F0C5
:104CC0000403DAE753695DF8044BC83B536170474E
:104CD00053695DF8044BC83353617047137C03F08C
:104CE00003030029CBD043F00403C8E77408042071
:104CF000244B1A6CD2E90010D3680968006810B41C
:104D00001842946801EA040134D0137C03F00303D1
:104D100009BB43F008039908013B11740D2B0ED811
:104D2000DFE803F0100722070D1C10101C0D0722EE
:104D300007105169137E01390133516113765DF813
:104D4000044B7047137E51690133013113765DF8CE
:104D5000044B5161704743F00403DAE753695DF88F
:104D6000044BC83B5361704753695DF8044BC8332B
:104D700053617047137C03F003030029CBD043F049
:104D80000403C8E774080420244B9A6CD2E900108D
:104D9000D3680968006810B41842946801EA0401F5
:104DA00034D0137C03F0030309BB43F008039908D4
:104DB000013B11740D2B0ED8DFE803F0100722071A
:104DC0000D1C10101C0D072207105169137E0139AC
:104DD0000133516113765DF8044B7047137E5169BE
:104DE0000133013113765DF8044B5161704743F094
:104DF0000403DAE753695DF8044BC83B536170471D
:104E000053695DF8044BC83353617047137C03F05A
:104E100003030029CBD043F00403C8E7740804203F
:104E2000594A30B592F8983085B0C3F19603092BF2
:104E300034DC03AB1846554C21F018FB544BC0B280
:104E40001B680228A3623AD0032808D009283CD85E
:104E5000DFE800F08E7A3B3B0535353B054B94F897
:104E60005130042B0ED00425A27C00210095494826
:104E700084F8532084F85210226C47491DF0BEFE7E
:104E800084F851500D201EF075FC01460D20B1FA3A
:104E900081F149091EF044FC05B030BD92F88C4008
:104EA00003AB92F88D100020144401316578114451
:104EB0006070184624F022F965700346BAE794F84A
:104EC0005130032BDED00325CEE794F85130002B70
:104ED000D8D00025226C304900952E48A4F85250B5
:104EE0001DF08CFE84F85150CCE794F85130052B1E
:104EF00026D0627CB6EE084B0525274906EE102A1F
:104F0000A27C244807EE102AB8EEC66B226CB8EEDD
:104F1000C77B009526EE046B9FED195BFCEEC66B1C
:104F200027EE057B16EE90CA84F852C0FCEEC77BD4
:104F300017EE90CA84F853C01DF060FE84F85150FB
:104F4000002384F830309DE794F85130022B99D03B
:104F50000225617C002200950E4884F8521084F8E6
:104F600053200D49226C1DF049FE84F8515089E709
:104F700094F85130012B85D00125EAE7AFF300808A
:104F80009A9999999999E93F28100420E002042000
:104F9000C4120420B8560320D41A002000000000D8
:104FA00043782DE9F04104462DED028B82B0002BB1
:104FB00000F0A1800378002B00F0848003690F4685
:104FC00082690221DFF8D48193424269D8F8005007
:104FD000C8BF8361C368D8F800609342B8BF43611B
:104FE000D0E9012313448360C369ED1A036A604862
:104FF000F61A20F08FFC37B1384624F061F90146EB
:10500000384620F087FCA36922695A495A481DF0A6
:10501000F5FD6369E268594957481DF0EFFD07EE59
:10502000905A5749B8EE675AD4ED027A5248B8EE12
:10503000E76AD4ED017AB7EEC55A524FB8EEE77A77
:1050400007EE906AB7EEC66AB8EE678AB7EEC77A1F
:105050009FED414BB7EEC88A85EE043B88EE042BEA
:1050600087EE037B86EE025B53EC172B8DED005B26
:105070001DF0C4FD0321444820F04CFCA7FB053182
:105080000A22002389093C481DF0C6FD03213F4840
:1050900020F040FC3E4B9E424FD84EF660239E428D
:1050A0003ED8A7FB067100230A22334889091DF068
:1050B000B3FD0121374820F02DFC0121364820F0B6
:1050C00029FC09E0DFF8D48042F20F72836183602B
:1050D000D8F80030426103620023D8F8002042F281
:1050E0000F7163602370E261C4E9031302B0BDEC89
:1050F000028BBDE8F081294942F20F72836183601F
:105100000D68086801212562E26063602370E06138
:105110006170C4E9043202B0BDEC028BBDE8F081DD
:105120009FED0F0B0121144888EE000B1DF088FD48
:1051300001211B4820F0EEFBBFE79FED0B0B012187
:105140000D4888EE000B1DF07BFD0121154820F075
:10515000E1FBB2E7AFF300800000000000408F40A9
:1051600000000000004CED400000000040774B4183
:105170001C480020802D0020B85603208C2D0020D4
:10518000982D0020D34D6210AC2D0020B02D0020B2
:1051900080EE3600F04B002074550020C41204202D
:1051A000B42D00201827002038B5037B04460D4697
:1051B00093B900680F4AA36812680F49D31AA26016
:1051C000A1FB03139B09B0FBF3F00023A84223606B
:1051D0002CBF401B002038BD1EF078FA237B1BB982
:1051E000206800232373E5E7D4E900329B1A1844B2
:1051F000F7E700BFC4120420D34D62100000000086
:105200005B4B1B6830B5044683B08362092938D8EC
:10521000DFE801F04716163705272737055790F8BE
:105220005130042B0AD00020A17C84F8520084F86D
:105230005310002A78D1042384F8513003B030BDD4
:1052400090F85130022BF9D0407C002184F85200B4
:1052500084F85310002A5FD1022384F8513003B040
:1052600030BD90F85130032BE8D00020A17C84F8A9
:10527000520084F85310002A5ED1032384F8513081
:10528000DCE790F85130002BD8D00025026C39496A
:10529000A0F85250384800951DF0B0FC84F85150E9
:1052A000CCE790F85130012BC8D0407C002184F825
:1052B000520084F85310002A4ED1012384F8513053
:1052C000BCE790F85130052B21D0417CB6EE084B5D
:1052D00006EE101A817C07EE101AB8EEC66BB8EE17
:1052E000C77B26EE046B9FED205BFCEEC66B27EEC2
:1052F000057B16EE900A84F85200FCEEC77B17EE91
:10530000901A84F85310FAB9052384F85130002319
:1053100084F8303003B030BD0220226C1549009073
:1053200015481DF06BFC97E70420226C1149009092
:1053300011481DF063FC7EE70320226C0D490090AC
:105340000D481DF05BFC98E70520226C0949009090
:1053500009481DF053FCD7E70120226C0549009055
:1053600005481DF04BFCA8E79A9999999999E93F4E
:10537000C4120420D41A0020B8560320F0B587B018
:1053800020F0A2FAC4B2632C00F0A580612C00F0DA
:10539000CD80672C00F0CE806C2C00F0AC806D2CA2
:1053A00073D06E2C00F0D680A4F10A03692B00F2B2
:1053B000A780DFE813F08E00A500A5008E00A500F1
:1053C000A500A500A500A500A500A500A500A500B5
:1053D000A500A500A500A500A500A500A500A500A5
:1053E000A500A500A500A500A500A500A500A50095
:1053F000A500A500A500A500A500A500A500A50085
:10540000A5008E00EE001001230151012C01420184
:10541000560165019601A500A500A500A500A500FF
:10542000A500A500A500A500A500A500A500A50054
:10543000A500A500A500A500A500A500A500A50044
:10544000A500A500A500C301A500A500A500A50015
:10545000A500A500A500A500A500A500A500A50024
:10546000A500A500A500A500A500A500A500A50014
:10547000A500A500A500A500A500A500A500A50004
:10548000A500C901A5000D02520220F0D9F900289B
:1054900036DD20F019FA3038AD4CC3B2AD4968465C
:1054A000052B9CBF226813701DF032FD694603A8CE
:1054B0001DF04CFD236803A819781DF017FE014666
:1054C000A5481DF04DFB03A81DF05CFD68461DF0CE
:1054D00059FD07B0F0BDA14C1B21A148237883F0F2
:1054E0000103237020F016FA21789B4807B0BDE82D
:1054F000F0401DF05BBB20F0A3F9002800F3B08161
:1055000098499548FDF76AFA214600230A229248F5
:105510001DF082FB94499048FDF760FA01E020F00D
:10552000D3F920F08DF90028F9D1D2E78F4C1F2153
:105530008F48D3E720F084F900287FF735AF20F0BB
:10554000C3F93038C1B20529C3D801228948FFF711
:1055500057FEBEE720F074F980B120F04FF9C0B2D9
:1055600032280BD120F0B0F9834C844923787A4853
:1055700083F001032370FDF731FAB5E7804C162163
:10558000804A2378804883F00103237082F88334B3
:10559000A8E77E4E1EF09AF804463578002D00F0FC
:1055A0008081012D00F09781022D00F0AE811EF068
:1055B0008DF8774905466848FDF710FA291B002346
:1055C0000A2265481DF028FB7249634807B0BDE810
:1055D000F040FDF703BA704E1EF078F804463578B7
:1055E000002D00F06B81012D00F08281022D00F072
:1055F00099811EF06BF869490546DCE7002301211B
:1056000067481A4607B0BDE8F0400AF0A9BC654CEF
:105610000023634E0F21251D1A4630460AF0A0FCD8
:10562000A5423FF456AF002314F8011F30461A4636
:105630000AF096FCA542F6D14BE75A4C0F21584E82
:10564000251D0123002230460AF08AFCAC423FF4BB
:1056500040AF14F8011FF4E7012300225048194617
:10566000D0E7504C0F214E4E251D0123BB22304662
:105670000AF076FCAC423FF42CAF14F8011FF4E7BB
:10568000484D0023464F0F212E1D2C4638461A4602
:105690000AF066FCA64208D0002314F8011F384621
:1056A0001A460AF05DFCA642F6D13F493F4A404BFC
:1056B00048681268A3FB02329623920C03FB02F2A5
:1056C0004B681B1A9A42FBD80F21354E0123BB228F
:1056D00030460AF045FCAC423FF4FBAE15F8011F22
:1056E000F4E7344C8823012533491B4884F8A5305E
:1056F00084F8305184F82F51FDF770F9294620467F
:105700000AF0F4F8002840F0C7802C491248FDF751
:1057100065F9E02301251048294984F8A53084F86B
:10572000305184F82F51FDF759F9294621480AF0E4
:10573000DDF8002840F0AE80204946E74FF0E02336
:10574000204AC3F80C2DC4E61F4C20490EE700BFC9
:10575000A00E04202C1C0020B8560320602A042030
:10576000D41B0020701E0020981E0020452A042013
:10577000F01B0020E00204205D2A0420441C0020CD
:105780005C2A0420F0B103205C1C00203E2A042087
:10579000781D0020801D00203F2A0420241E0020A8
:1057A00040110420302C0020001000E0B4560320EB
:1057B00083DE1B430C5903202C1E0020441E0020B6
:1057C0005C1E00200400FA05622A0420741C0020DC
:1057D0005B495C48FDF702F95B495C4800230C68B3
:1057E00042F20F724360C4610C680370836004620C
:1057F0000C68C0E90323C0E905235548C4610C685F
:1058000043600370836004620C68C0E90323C0E94D
:1058100005235048C4610C68436003708360C0E98D
:105820000323C0E9052304624B480C684360C4614C
:105830000C680370046283600C680968C0E9052382
:10584000C0E903234548C0E9032343600370426174
:1058500083600162C0E906343BE6414C414985E67C
:1058600020F032F8C0B2A0F13004E3B2052B3FF6CD
:1058700030AE00EB80033C4A3C4903EB83033148E4
:105880005B00603B1374FDF7A9F832212D4804FB3F
:1058900001F12BE6364998E635492A48FDF79EF88E
:1058A00037E734492748FDF799F801232A460F21A5
:1058B00031480AF055FB0123337078E62F4921481F
:1058C000FDF78CF801232A460E212B480AF048FBED
:1058D000012333708DE62A491A48FDF77FF82B46DD
:1058E000ED220F2124480AF03BFB022333705EE6D1
:1058F00024491448FDF772F82B46ED220E211E486C
:105900000AF02EFB0223337073E61F490D48FDF7A2
:1059100065F800230F2118481A460AF021FB0023DE
:10592000337044E619490748FDF758F800230E2163
:1059300011481A460AF014FB0023337059E600BFE1
:105940009C1C0020B8560320C4120420240E0420FE
:10595000480E04205011042074110420380D042036
:10596000612A0420BC1C0020E0020420101C00203E
:105970004C1E0020D41C002040110420841D002057
:10598000041D0020B01D0020481D0020F41D002033
:105990002DE9F047DFF8A89241F28832416A82B0DF
:1059A000D9F8003004465B1A934200F2AC80D9F873
:1059B000003040F6B832A16A5B1A934200F28F8041
:1059C000D9F80030216AA28D5B1A9A4275D2D9F8B3
:1059D0000030274604F1130604F11F0ADFF8648241
:1059E000236297F84C30023B012B03D894F82E30F9
:1059F000002B69D197F84D302046217CC3EB033250
:105A000097F84E50A8FB02320123D20901FB02F2A3
:105A1000A8FB02127178C2F3CF120AF0A1FA217C1E
:105A2000C5EB053235460123A8FB02022046D20908
:105A300001FB02F2A8FB0212B178C2F3CF120AF006
:105A40008FFA0123002215F8031F20460AF088FA76
:105A5000554507F105072E46C3D194F82E3083F043
:105A6000010384F82E3043BBD9F800200121A08D1A
:105A700084F82F3002EB5003628E84F83010A3EBD1
:105A800052036363D9F800209A421AD901232746AA
:105A900004F10C082646DFF8ACA184F82F3097F803
:105AA00050300537002B40F09C800336B045F6D1CE
:105AB00094F82F302BB1636B3FE094F83030002B1B
:105AC00036D102B0BDE8F087F51C16F8011F01239E
:105AD000002220460AF044FAAE42F6D1B8E7D9F8DF
:105AE000002094F85130A262002B3FF469AF0025EA
:105AF000226C5149A4F85250504800951DF07EF890
:105B000084F851505CE790F84C30032B3FF44FAFD2
:105B1000817C0325002280F84E1080F84D204649F4
:105B20000095C26B45481DF069F884F84C503EE77B
:105B300094F82F20636B002AA4D0628ED9F800104D
:105B400013448B42BDD24FF0000A264604F11305E0
:105B500004F11F0984F830A096F85030DFF8E48093
:105B60004BB9EF1C4F453D4606F10506A9D096F806
:105B70005030002BF5D096F84C30023B012B4FD91A
:105B800096F84D30204696F84E70C3EB0332697894
:105B9000A8FB0232237CD20903FB02F2A8FB0232EB
:105BA0000123C2F3CF120AF0DBF9A978C7EB073261
:105BB0002F462046A8FB0232237CD20903FB02F2C7
:105BC000A8FB02320123C2F3CF120AF0C9F9012364
:105BD000002217F8031F20460AF0C2F986F850A0E9
:105BE000C0E7E57C2046317D012300220AF0B8F9A8
:105BF000717D0123204600220AF0B2F9B17DC5EB88
:105C000005322046AAFB0232237CD20903FB02F2B2
:105C1000AAFB02320123C2F3CF120AF0A1F944E732
:105C2000EF1C15F8011F0123002220460AF098F905
:105C3000BD42F6D1D2E700BFD41A0020B8560320E7
:105C4000C41204208180808006EE902A00F58862CC
:105C50002DE9F043B8EEE61B06EE903A044600F557
:105C60008467B8EEE64B00F5826004F586662DED9C
:105C7000028B83B0C4F84814DDED0C6ADDED0F5AD9
:105C8000B8EEE62BDDED0D6AB8EEE55B119BB8EEE4
:105C9000E63BDDED0E6A9FEDAA8BB8EEE66B9FED5D
:105CA000AA7B9FEDAB0BA6EE087BDDED106AB8EE8C
:105CB000E66B25EE005B26EE006B21EE001B24EE6A
:105CC000004B32EE052B33EE063B9FEDA30B80ED30
:105CD000001B07ED024BB4EEC07B02ED025BF1EE60
:105CE00010FA87ED002BA8BF37EE407B82ED006BEA
:105CF000B5EEC07B06ED023BF1EE10FA03D59FED49
:105D0000966B37EE067B94F883249FED956B27EE18
:105D1000067B86ED007BC4F86834002A40F084805E
:105D2000954D2A68D4F80014521AC4F888242A68B9
:105D3000C4F800242A68C4F8902494F8812412B985
:105D4000012284F88424012213F0010503F00208E3
:105D500003F0040984F8822484F88124C3F3C10287
:105D6000C4F8782431D0B8F1000F3DD0B9F1000F5C
:105D700049D02DB3D4F87834012B40F39A8016ED36
:105D8000027BB5EE407BF1EE10FA00F08B8004F55B
:105D90008E6597ED000B80EE070B20F017F89FED56
:105DA000727B20EE070B012194F8833485ED000B04
:105DB00084F88014002B40F09280704C84ED000B2E
:105DC00003B0BDEC028BBDE8F08311216C481FF0DD
:105DD000A1FD29466B481CF0E9FE04216A481FF02A
:105DE00099FDB8F1000FC1D1102168481FF092FD54
:105DF000414664481CF0DAFE042163481FF08AFD26
:105E0000B9F1000FDCD1132161481FF083FD00219F
:105E10005C481CF0CBFE04215B4803B0BDEC028B58
:105E2000BDE8F0431FF076BD534D022159481FF0E5
:105E300071FD002329680A2252481CF0EDFEB4F8D7
:105E4000982455494F481CF0D9FED4F800342968ED
:105E50000A224C48C91A00231CF0DEFE01214F48DB
:105E60001FF058FDD4F848144D4B4648A3FB0123BE
:105E70004FF47A729B0902FB13114A4B0A22A3FBCF
:105E800001310023C9081CF0C7FE012143481FF05F
:105E900041FD02213B4896ED000B1CF0D1FED4F8E9
:105EA00068343EE79FED2A6B37EE067B06ED027BFA
:105EB0006DE794F88334002B3BD00E213A4804F56B
:105EC0008E651FF027FDD4F878142E481CF06EFE66
:105ED00095ED000B9FED267B20EE070B63E72F4827
:105EE000264C1FF017FD0221264895ED000B1CF0F3
:105EF000A7FEB6EE007B94ED006B95ED000B36EE41
:105F0000475BB4EEC50BF1EE10FA07D936EE077B0E
:105F1000B4EEC70BF1EE10FAFFF650AF2349194863
:105F20008DED000B53EC162B1CF068FE95ED000B6D
:105F300044E7022117481FF0EDFCBEE7AFF30080F5
:105F40002D431CEBE2361A3F0000000000208C407D
:105F50007B14AE47E17A843F000000000020AC4093
:105F60009A9999999999B93FF8C1631ADCA54CC0DF
:105F7000CDCCCCCCCCCCEC3FC4120420E0B0032080
:105F8000982C0020B85603200C2E0020AC2C0020AA
:105F9000C02C00201C480020842C0020D858002051
:105FA000D34D6210CDCCCCCCD42C0020E42C0020DE
:105FB00070B5044686B01DF089FBD4F80834A56896
:105FC000C01A072DC4F88C046FD03C2D40F0D1804E
:105FD000E07FA27F617F42EA002294F8235094F888
:105FE000330094F8223041EA022194F8322043EA47
:105FF000052394F8315042EA002294F8570094F8AF
:1060000055E045EA022594F8562094F82AC042EA61
:10601000002294F82F004EEA022E94F82B204CEA2E
:10602000022C94F82E2042EA002294F8540040EA10
:106030000E20059094F8300040EA0520029094F874
:10604000270094F8265045EA002594F8290040EAF4
:106050000C2094F82DC04CEA022C94F83B200492BA
:1060600094F83A20039294F8212042EA032294F80B
:10607000253043EA052394F8245045EA032394F895
:10608000205045EA0222257F45EA012194F82C5050
:1060900045EA0C25019594F8285045EA002520464C
:1060A0000095FFF7D1FD06B070BD94F8333094F839
:1060B000320094F8312040EA032094F8303094F80C
:1060C000375042EA002294F8361094F8830443EAE9
:1060D000022394F83B2041EA0521E57E06EE103AC2
:1060E00094F83A3043EA022394F83520B8EEC66BB0
:1060F00042EA012294F8391041EA032194F834303D
:1061000043EA022304F58C6205EE103A94F8383025
:106110009FED377BB8EEC55B43EA0123A17E26EEF7
:10612000076B41EA0521384D25EE075B07EE103A73
:10613000637EB8EEC77B43EA0123217E9FED2E4BA1
:1061400041EA032694F82F3027EE047B84F84C3480
:1061500004F58A6383ED005B02ED026B82ED007B48
:10616000F0B92A682B68C4F80424C4F8943406B043
:1061700070BD112125481FF0CDFB00231022E9B28C
:1061800023481CF049FD052122481FF0C3FB0023D2
:10619000102221791E4806B0BDE870401CF03CBDBD
:1061A00002211D481FF0B6FB296800230A22184867
:1061B0001CF032FD0C2119481FF0ACFBD4F804345C
:1061C00029680A221248C91A00231CF025FD012162
:1061D00013481FF09FFB07EE906A02210C48B8EEAF
:1061E000677B9FED070B87EE000B1CF029FDB8E7DE
:1061F00048AFBC9AF2D77A3EFCA9F1D24D62503F2B
:106200000000000000408F40C4120420682C0020D1
:10621000B85603207C2C00201C480020582C00205D
:10622000D8580020B52970B50D4604462BD06229F8
:1062300018D02378022B07D0033B052B11D8DFE8B9
:1062400003F04B5E728BA3B3237C0321627C2B444F
:1062500065602170DBB21A44237494F8833462744D
:106260007BBB70BD0378012BE4D10221002290F8A2
:10627000833401700282002BF3D005216F48BDE802
:1062800070401FF047BB4369002BD2DA0123037033
:106290001DF01CFA94F88334C4F80804002BE0D0F5
:1062A000022167481FF036FB664900230A2209686D
:1062B00065481CF0B1FC09216448BDE870401FF03E
:1062C00029BB63481FF026FB2946002310225E48A5
:1062D000BDE870401CF0A0BC237C0421627C2B44F0
:1062E000A5602170DBB21A44237494F8833462747D
:1062F000002BB6D056495448FCF770FBE4E7237CEA
:106300000520627C2B4494F88314E560DBB2207096
:106310001A44237462740029A3D04E494A48BDE848
:106320007040FCF75BBB237C0620E1682B44627C59
:1063300001EB05212070DBB20020E1601A4494F8E3
:10634000831460612374627400298AD00321424857
:10635000BDE870401FF0DEBA237CEAB2617C1344D2
:10636000DBB21944237463696174E11801330A765E
:1063700094F883246361002A50D1E2689A427FF442
:1063800070AF0723237070BD237CAB421AD1082263
:1063900094F883342270002B3FF463AF2F492A48CE
:1063A000BDE87040FCF71ABB637CAB4220D194F887
:1063B0008334002B3CD12046FFF7FAFD4FF0FF332A
:1063C000636170BD00254FF0FF3302211C486361FB
:1063D00025701FF09FFA1B492B460A2209681A48AC
:1063E0001CF01AFC10211E48BDE870401FF092BA44
:1063F00000254FF0FF3302211148636125701FF023
:1064000089FA10492B460A2209680F481CF004FC3F
:1064100010211448BDE870401FF07CBA0A481249A8
:10642000FCF7DCFA294608481CF0C0FB6369A4E7C6
:106430000E490548FCF7D2FABDE700BF3C2D00200D
:106440001C480020C4120420B8560320302D002020
:10645000442D0020482D00204C2D0020502D0020E0
:10646000542D00206C2D0020D8580020682D0020CD
:106470009FED9D7B90ED042B9FED9D3B9FED9E1B23
:1064800022EE072B90ED164B90ED0E5B22EE032BC8
:1064900024EE014B25EE075B90ED086B10B532EE54
:1064A000067B044680ED0A4B37EE447B80ED0E5BA5
:1064B000B5EEC07B80ED042BF1EE10FA03D59FED15
:1064C000904B37EE047B9FED904BB4EEC47BF1EE26
:1064D00010FAC0F2F7809FED8E4BB4EEC47BF1EE64
:1064E00010FA00F2EF80B1EE477B9FED854BB4EEE2
:1064F000C47BF1EE10FAC8BF37EE447B9FED864BAC
:1065000084ED067BB4EEC47BF1EE10FA05D59FED69
:106510007C4B37EE047B84ED067BB0EEC74B9FEDE2
:10652000803BB4EEC34BF1EE10FA40F1D7809FED03
:106530006E3BA7EE036B9FED724B9FED777BB4EE46
:10654000C46BF1EE10FAC8BF36EE446BB4EEC76B05
:1065500084ED086BF1EE10FA05D59FED697B36EE00
:10656000076B84ED086BB7EEC55B32EE067B94EDEE
:10657000124BB7EEC55A9FED6C1B34EE454B9FEDA9
:10658000602B24EE016BB4EEC27B94ED023B9FEDD9
:10659000680BF1EE10FAA3EE006BC8BF37EE427B3A
:1065A00084ED004BB5EEC07BF1EE10FA84ED026B8A
:1065B00003D59FED536B37EE067B0C2162489FEDB0
:1065C0005E6B27EE067B84ED0C7B1FF0A3F95F4822
:1065D0001CF0F8FA09215E481FF09CF902215B4883
:1065E00094ED160B1CF02CFB58481CF0EBFA0A211A
:1065F00058481FF08FF90221544894ED120B1CF0FB
:106600001FFB52481CF0DEFA0C2153481FF082F9A0
:106610004E481CF0D7FA132150481FF07BF9022195
:106620004A4894ED040B1CF00BFB48481CF0CAFAD6
:1066300006214B481FF06EF90221444894ED0E0BE1
:106640001CF0FEFA41481CF0BDFA0F2145481FF02E
:1066500061F93E481CF0B6FA0F2143481FF05AF981
:1066600002213A4894ED080B1CF0EAFA37481CF076
:10667000A9FA0B213D481FF04DF90221334894ED52
:10668000000B1CF0DDFA31481CF09CFA112138484F
:106690001FF040F902212D4894ED020B1CF0D0FAB6
:1066A0002A481CF08FFA0E2132481FF033F90221DC
:1066B000264894ED0C0B1CF0C3FA2448BDE81040AA
:1066C0001CF080BA9FED124BB4EEC47B9FED0C4BD7
:1066D000F1EE10FA05DD34EE477B06E79FED183B3F
:1066E00027E737EE047BFEE69A9999999999B93F85
:1066F000399D52A246DF91BF399D52A246DF913F9C
:10670000182D4454FB211940182D4454FB21F9BF86
:10671000182D4454FB21F93F182D4454FB2119C076
:106720000AD7A3703D0AC73F333333333333D33FE4
:10673000666666666666E63FF8C1631ADCA54C408D
:106740009A9999999999C93F94310020B856032094
:10675000A4310020B0310020BC310020CC31002019
:10676000E0310020E8310020F8310020083200201C
:1067700014320020283200202DE9F047844C84B0E8
:106780001CF0A4FF012394F89850824EC5F19605A1
:1067900070609D42337300F3B180002D00F39F8041
:1067A0007D4B012293F8811483F8802409B983F882
:1067B00084240122794F7A4C83F881243A68C3F803
:1067C000902494F86030002B36D176481FF04AFEB2
:1067D000754D94F8603085ED000B002B68D1734B3C
:1067E00093F83030042B00F0C680714A403595EDA7
:1067F000000B9FED637B137820EE070B85ED000BFC
:10680000002B5ED00A22002339686A481CF004FA83
:10681000694968481CF0F2F901A822F051FD01AB6A
:10682000023818441FF022FE014662481CF0BEF9EF
:1068300060481CF0C7F944E060481FF017FE07EEFF
:10684000900A5F4BB8EEE77B5E4D5F4829469FEDAF
:106850004E6B27EE067BBDEEC77B17EE102A9A5CC7
:10686000FCF7A4F859481FF0FDFD4E4884ED120BCB
:106870001FF0F8FDB5F90030204606EE103AB5F9E4
:10688000023007EE103AB8EEC66BB8EEC77B84ED67
:10689000160B84ED046B84ED0E7BFFF7E9FD94F895
:1068A0006030002B91D0404BD4E90C01C3E90001CA
:1068B00094ED020B464D3E4A137885ED000B002BFC
:1068C000A0D11CF003FF337B23B1D6E900329B1A21
:1068D000034433600023337304B0BDE8F08794F8B9
:1068E0009550002394F8961001A8254401312144C5
:1068F0006C786B7022F002FC6C7051E794F8947025
:106900004FF0000994F895102744DFF89880194457
:1069100097F801A04046214487F8019022F0EEFB51
:10692000022D87F801A0DAD094F8937008F10800DE
:1069300094F894102744013197F801A0214487F876
:10694000019022F0DBFB042D87F801A0C7DD94F84D
:10695000915094F89200254401306F78204485F8D6
:1069600001901FF083FD6F7094F89850C8F81000E4
:10697000C5F1960511E7154840351FF073FD9AE7FC
:10698000CDCCCCCCCCCCEC3F9A9999999999B93F84
:106990002810042068030420F0B10320C41204204E
:1069A000F0B00320ACBF032020B6032014B90320AD
:1069B0005C2A0420B8560320F0180020886A0320BF
:1069C0004C2C00202C0D0420BC0C0420B4BF032050
:1069D00060B603200B484FF0FF0C01210F22037813
:1069E00080F80DC0437190F801C083728378017202
:1069F0004FF4967180F806C080F80BC0C371037322
:106A00001DF0FEB85071032070B501201CF04EFF40
:106A100004460220E4B21CF049FF40F6661360F31E
:106A20000F24A4B29C424F4C5BD0022201214E485D
:106A300004F10F05C4F596761DF0E2F80F224FF42D
:106A400096714A481DF0DCF8A0191CF02FFF04F8DD
:106A5000010BAC42F8D12A2145481EF05BFF454CA2
:106A60004FF4C87144480D2204F10D051DF0C8F81B
:106A700023214248C4F5C8761EF04CFFA0191CF033
:106A800015FF04F8010BAC42F8D13D4C1C224FF429
:106A900016713C48C4F51676A5181DF0B1F82421EE
:106AA00039481EF037FFA0191CF000FF04F8010B55
:106AB000AC42F8D1354C40F2A7324FF42F71344834
:106AC000C4F52F76A5181DF09BF8232131481EF040
:106AD00021FFA0191CF0EAFE04F8010BAC42F8D12A
:106AE00070BD04F10F05C4F59676A0191CF0DEFE0A
:106AF00004F8010BAC42F8D11E4C2221264804F1C7
:106B00000D05C4F5C8761EF005FFA0191CF0CEFED9
:106B100004F8010BAC42F8D1194C24211F4804F1B0
:106B20001C05C4F516761EF0F5FEA0191CF0BEFE7D
:106B300004F8010BAC42F8D1144C2521184804F29A
:106B4000A735C4F52F761EF0E5FEA0191CF0AEFEA9
:106B500004F8010BAC42F8D124211248BDE8704082
:106B60001EF0D8BE50710320485503202028002075
:106B7000381F0020886A0320640D0420641F002051
:106B800094700320740D0420881F0020A86A03203D
:106B9000B8640320B01F0020D41F0020F81F00207D
:106BA0002020002048200020D0E90021C36812687E
:106BB000096810B41942846802EA040234D0037CE4
:106BC00003F003030ABB43F008039A08013B027475
:106BD0000D2B0ED8DFE803F0100722070D1C101054
:106BE0001C0D072207104269037E013A01334261FE
:106BF00003765DF8044B70474269037E01325DF80D
:106C0000044B013342610376704743F00403DAE733
:106C100043695DF8044BC83B4361704743695DF8C5
:106C2000044BC83343617047037C03F00303002A1D
:106C3000CBD043F00403C8E70B4610B5362800F26A
