:0200000460009A
:100000004643464200000156000000000103030081
:1000100000000000000000000000000000000000E0
:1000200000000000000000000000000000000000D0
:1000300000000000000000000000000000000000C0
:1000400000000000010408000000000000000000A3
:100050000000800000000000000000000000000020
:100060000000000000000000000000000000000090
:100070000000000000000000000000000000000080
:10008000EB04180A063204260000000000000000FD
:10009000050404240000000000000000000000002F
:1000A0000000000000000000000000000000000050
:1000B0000604000000000000000000000000000036
:1000C0000000000000000000000000000000000030
:1000D00020041808000000000000000000000000DC
:1000E0000000000000000000000000000000000010
:1000F0000000000000000000000000000000000000
:10010000D8041808000000000000000000000000F3
:100110000204180804200000000000000000000095
:1001200000000000000000000000000000000000CF
:10013000600400000000000000000000000000005B
:1001400000000000000000000000000000000000AF
:10015000000000000000000000000000000000009F
:10016000000000000000000000000000000000008F
:10017000000000000000000000000000000000007F
:10018000000000000000000000000000000000006F
:10019000000000000000000000000000000000005F
:1001A000000000000000000000000000000000004F
:1001B000000000000000000000000000000000003F
:1001C000000100000010000001000000000000001D
:1001D000000001000000000000000000000000001E
:1001E000000000000000000000000000000000000F
:1001F00000000000000000000000000000000000FF
:10020000FFFFFFFFFFFFFFFFFFFFFFFFFFFFFFFFFE
:10021000FFFFFFFFFFFFFFFFFFFFFFFFFFFFFFFFEE
:10100000D10020434D1600600000000000000000E9
:10101000201000600010006000300460000000003C
:1010200000000060003C040000000000FFFFFFFF24
:10103000FFFFFFFFFFFFFFFFFFFFFFFFFFFFFFFFC0
:10104000FFFFFFFFFFFFFFFFFFFFFFFFFFFFFFFFB0
:10105000FFFFFFFFFFFFFFFFFFFFFFFFFFFFFFFFA0
:10106000FFFFFFFFFFFFFFFFFFFFFFFFFFFFFFFF90
:10140000814205D051F8043B40F8043B8242F9D8B0
:10141000704700BF044A05494FF0000342F8043BFF
:101420009142FBD8704700BFC04E012080E60120EA
:101430002DE98848BFF34F8F00BF00BF00BF00BF3A
:1014400000F000FA684B0822C3F8542100BF00BF27
:1014500000BF00BF00BF00BF00BF00BF00BF00BF94
:1014600000BF00BF00BF00BF00BF00BF5F4A6049B0
:101470006048FFF7C5FF604A60496148FFF7C0FF59
:10148000604CFFF7C7FF4FF470004FF0E0210023DE
:101490005D4AC1F8880D44F823200133B02BFAD1FE
:1014A0005A4B80215A4A03F8011B9342FBD14FF05B
:1014B000E0254D4E4FF08039DFF884B1DFF884A18C
:1014C0004FF0FF31C5F8084D0027C6F80491C6F863
:1014D00000B1C6F8F490C6F8F0A0D5F8243DDFF8C6
:1014E000688143F4E0234B4AC5F8243DD8F81C300A
:1014F00023F07F0343F04003C8F81C30D8F82430B1
:1015000023F07F0343F04003C8F824309166D1668E
:101510001167516700F09EF93F4B4049A363404B70
:10152000E36363236B610323AF612B613D4BC5F81C
:10153000203DD5F8FC3D43F08073C5F8FC3D3A4BA7
:101540001A6842F001021A605B680B6000F0CCFB85
:10155000C6F804913548C6F800B1C6F8F490C6F84C
:10156000F0A000F039FDD8F86C10314B314A41F44D
:101570004051C8F86C101F60C3F80871C3F81871A7
:10158000C3F82871C3F83871936BDB0708D442F6AF
:101590001563294951651365936B43F00103936308
:1015A000244A264C936843F00113936000F0DAF963
:1015B00000F01EF900F014FD00F0C4FB00F044F947
:1015C0002368132BFCD900F055FC2368B3F5967FF4
:1015D000FBD300F03DF900F039F900F0F5FC00F024
:1015E0000BFD30BFFDE700BF00800D4098BD02003D
:1015F0000022006000000000C04E01209CDF02605D
:1016000000000020004C0120BD10020000E400E0BA
:10161000A0E400E000C00A40DD240200ACDE0120AE
:10162000E124020000002020001000E00046C32357
:101630000040084000400D400000C056B0DE0120D0
:101640001B1018200C0D111300C00F40054B4FF458
:101650002A01054A05485A641864054A9963954663
:10166000FFF7E6FE00C00A40FFAFAAAA070020006D
:101670000000052043690A4A03EB011010B4037A05
:10168000084C02EB0313D3E901321460C2681A60FC
:1016900003690BB142691A605DF8044B704700BFE3
:1016A000BC36002061F801004369027E03EB0212A0
:1016B00092F808C08C451CD01A7AFF2A19D09142A2
:1016C00010B5044616D01A7EFF2A06D00121D3E9B0
:1016D000002312681A4201D1217610BD064B052263
:1016E000204603EB0C135B681A60FFF7C3FF2176FB
:1016F000F3E770470021EAE7BC36002043690A4A55
:1017000003EB011010B490F82830084C02EB0313DF
:10171000D3E901321460C26A1A60036B0BB1426BE9
:101720001A605DF8044B7047BC36002061F8010078
:101730004369427E03EB021292F828C08C451ED00A
:1017400093F82820FF2A1AD0914210B5044617D0EA
:1017500093F83820FF2A06D00121D3E9002312682C
:101760001A4201D1617610BD064B0522204603EBDB
:101770000C135B681A60FFF7C1FF6176F3E77047EF
:101780000021EAE7BC360020164942698B6B23F43E
:101790007C0343F4802370B58B630446124DD2E979
:1017A00000130A681A4303690A60022200211A61C1
:1017B0000E4A19619A6401225A629D624FF43035D3
:1017C000DD624FF001159E6C1E6519629D651A6100
:1017D000017EFFF74FFF617E2046BDE87040FFF7B6
:1017E0008DBF00BF00C00F40B80B05053B3728195F
:1017F000104BA020104AD96E41F4403110B4D96684
:1018000040F23764D96E41F44071D96654649064F3
:10181000936C1B06FCD4094A40F23761A023516443
:101820009364936C13F08003FBD1054A13705DF849
:10183000044B704700C00F4000400C4000800C403B
:1018400034E60120704700BF704700BF704700BFFB
:1018500000BF704710B44FF0E0230021102431483E
:10186000C3F8941DC3F89C4D1124C3F8A00D2E4855
:10187000C3F89C4D1224C3F8A00D2C48C3F89C4D0E
:101880002B4AC3F8A00D2B4C42F015022A48C3F88E
:101890009C4DC3F8A00D294C2948C3F89C4DC3F8B2
:1018A000A00D284CC3F89C2D2748284AC3F8A04D0A
:1018B000C3F89C0DC3F8A02D02F5A022244C0C32D5
:1018C0002448C3F89C4DC3F8A02D234AC3F89C0DAF
:1018D000224CC3F8A02D02F14062C3F89C4D204871
:1018E000C3F8A02D0C32C3F89C0DC3F8A02D00BF87
:1018F00000BF00BF00BF00BF0122C3F8942DBFF39B
:101900004F8FBFF36F8FC3F8501FBFF34F8FBFF3DD
:101910006F8FD3F8142D5DF8044B42F44032C3F8B6
:10192000142D70473F000010250008070900100023
:1019300080E601201300200021000207140000208F
:1019400025000813090000101600202027000B13A3
:1019500017000040180000602F000B0719000070EE
:101960001A000080F0B5B84B1822B84E0120B84FCD
:1019700083B0C3F85C62B749C3F86072B64DC3F870
:101980006462A6F53046B54CC3F86862C3F86C5281
:10199000C3F87052C3F87452C3F8785248F20C7509
:1019A000DA661A675A679A67DA67C3F88020C3F85D
:1019B0008420C3F88820C1F82C03A94AC1F8300359
:1019C000C1F83403C1F83803C1F83C03C1F850032F
:1019D000A169A44B0A40A448A4491343A44AA361A3
:1019E000D4F8843043F00C03C4F884304FF0FF3453
:1019F000036843F00203036003682B404FF4005573
:101A00001A439C4B026044608A689B4C13409B4A7B
:101A100043F000538360C36823F07803C360036A14
:101A2000134023430362036A1340954A2343954CB2
:101A300043628262C2620022D1F8B83023F03F03D1
:101A400043F00103C0F8B830D1F8BC308E4923F020
:101A50003F0343F00103C0F8BC3040F2056302616C
:101A600005660467C0F88030456644670224C0F804
:101A70008430036823F0020303608161834B84494F
:101A8000C46143F8042B8B42FBD1774A136843F0BF
:101A900001031360136813F00103FBD17A4802219C
:101AA00040F2F564906140F29940D16140F26641A4
:101AB000C2F8004242F20144C2F810127549C2F85D
:101AC0002002C2F8301240F235417348C2F8344265
:101AD000C2F84012714CC2F8500242F20120704923
:101AE000C2F854120121C2F86042C2F864025E4892
:101AF000C2F8A030C2F8A430C2F8B0104369DA07C7
:101B0000FCD5012300244FF4803257494361C0F8CB
:101B1000A040C0F8A420C0F8B0304B69DB07FCD56A
:101B2000012300244FF400304F4A4B61C1F8A0401C
:101B3000C1F8A400C1F8B0305369DF07FCD5012318
:101B40000024584848495361C2F8A040C2F8A40094
:101B5000C2F8B0304B69DE07FCD5D1F8003145F64C
:101B60000D5221209BB24861934265D100244FF46D
:101B7000802201233C48C1F8A040C1F8A420C1F84C
:101B8000B0304369DD07FCD501234FF40004002188
:101B9000354A4361C0F8A040C0F8A410C0F8B03086
:101BA0005369DC07FCD501234FF400044FF4803067
:101BB0002D495361C2F8A040C2F8A400C2F8B03069
:101BC0004B69D807FCD501234FF400044FF40030D3
:101BD000254A4B61C1F8A040C1F8A400C1F8B0305B
:101BE0005369D907FCD501234FF400042D481E4941
:101BF0005361C2F8A040C2F8A400C2F8B0304B69EB
:101C0000DA07FCD5D1F8003145F60D5221209BB200
:101C10004861934250D008254FF400042249002027
:101C2000224B234A009015705A1A0123214822445E
:101C300000F0DEF903B0F0BD1E4B0022C3E9002224
:101C4000C3E9022203B0F0BD00801F40F9B00100DB
:101C5000F910010000841F40F970010000C00F401E
:101C6000FFFCFF1F000300A000402A4000802A4024
:101C70001200FFFFFF37F7004000008000FFF07CFC
:101C8000FF000F8363000200F05AF05A00422A401E
:101C900000432A409F041830EB06180A3806180A39
:101CA00006320126040003000000007000000070EE
:101CB00035E60120A8D901204FF400044FF480221A
:101CC00001230848C1F8A040C1F8A420C1F8B030F1
:101CD0004369DB07FCD5012310254FF08074436175
:101CE0009CE700BF00402A40F0B4154A40274FF45B
:101CF00080314FF480564FF400554FF4404443F286
:101D00004200136913F0020F0ED113F4005F0FD0DD
:101D100013F4805F0ED0002BF3DA13F4803F0BD165
:101D20005B060BD5F0BC7047946151619061E8E7A8
:101D30005561E6E75661E4E79161E2E75761E0E764
:101D400000800D403F4A03203F49F3EE095AD2F884
:101D500080304FF0000C9FED3D6A23F001039FEDB2
:101D60003C5A30B4C2F88030C2F89000D1F8E0108C
:101D7000384DCBB2384C39482B6007EE903A0B0DFA
:101D8000C1F30B21F8EEE77A06EE903A07EE101A4F
:101D9000334BB8EEC77A2160F8EEE66A314937EE88
:101DA000C66A37EEC55A76EEC76A77EEE57A26EE52
:101DB000266AC3ED006A25EE265AD2F8803067EE17
:101DC000A64AC0ED007AC6EE275A274885EE276A54
:101DD000C4EEA76A75EE875AFCEEE55A36EE076A3E
:101DE00015EE904ABCEEC66A43EA045376EE877A53
:101DF000C2F8803016EE103AD2F89041FCEEE77A45
:101E000001EA0341214317EE903AC2F89011C3F35F
:101E10000B03D2F890110B431449C2F89031D2F859
:101E2000803043F00203C2F88030114B80F840C08C
:101E3000C1F840314FF0E023012230BCC3F8082143
:101E4000704700BF00810D4000441F400000AA42BF
:101E50000000B442C8DD0120C4DD0120CCDD01203A
:101E6000D8DD01200000FF0F00E400E0004C01205D
:101E7000A5120200314B40F6617210B5C3F8202163
:101E800040F2044400F0A4F82D4A2E49D2F88030E4
:101E90002D4843F00303C2F880302C4BC1F8604159
:101EA00002681A4203D1D1F8A8319A071BD0254AFB
:101EB0004FF00041244B5963D2F8403143F0020304
:101EC000C2F84031D2F840319B07FBD44FF40030C8
:101ED0004FF0E0211C4B4FF00042C1F88C0219205A
:101EE0009A6300F081F8184A4FF08040154C0021A9
:101EF00090630A20164B11604FF42072C4F8A801B9
:101F0000184600F05DF84FF4800203464FF481005C
:101F100040F243111860C4F858311A640D4B0E4A50
:101F2000C4F84811C3F804224FF0E0224FF4003106
:101F30000123C2F80C11C4F8403110BD00800D40DF
:101F400000C00F4000002E4000900D40001C1E00FD
:101F500000000020004C01208D14020008B50E4B3B
:101F60001B6E9B0700D4FBBE72B60C4B00200C4AC4
:101F7000C3F8400103F160430A49A3F55F231164EC
:101F80009D46BFF34F8F4FF400130748074ADB69A4
:101F900002609B68984700BF00441F4000002E402D
:101FA00000C00A400300200000802020000012EB47
:101FB000F8B500BFF8BC08BC9E46704700000000A2
:101FC0005FF800F0854E02005FF800F0795A0200D9
:101FD0005FF800F0FD1B02005FF800F0E5FC010077
:101FE0005FF800F0C90F02005FF800F0D5FF0100B4
:101FF0005FF800F0712502005FF800F0D9060200DA
:0820000069040000A9A700001B
:1020080080C00F400000000319000000100000000D
:10201800E8841F4001000000FF000000FF000000EE
:102028000000000000000000180000001000000080
:10203800E4841F4001000000FF000000FF000000D2
:1020480000000000000000001F0000000DC9000093
:1020580070C00F40000C00001100000011000000CB
:10206800E0841F40020000002C0000001200000065
:10207800E0841F4001000000100000001100000073
:10208800DC841F40020000002D0000001200000048
:10209800DC841F40010000001E00000001C9000090
:1020A80070C00F40C00000001200000013000000C4
:1020B800D0841F4001000000FF000000FF00000066
:1020C80000000000000000001300000013000000E2
:1020D800CC841F4001000000FF000000FF0000004A
:1020E80000000000000000001C000000F5C800000F
:1020F800160355005300420020005300650072008B
:10210800690061006C000000180354006500650058
:102118006E00730079006400750069006E006F003E
:102128000403090409026200030100C032080B001D
:102138000202020100090400000102020100052454
:1021480000100105240101010424020605240600EB
:10215800010705820310001009040100020A0000AB
:10216800000705030240000007058402400000093B
:1021780004020002FF6AFF00070581024000010710
:10218800050102400001000009026200030100C0CD
:1021980032080B00020202010009040000010202D9
:1021A8000100052400100105240101010424020690
:1021B8000524060001070582031000050904010033
:1021C800020A000000070503020002000705840256
:1021D8000002000904020002FF6AC7000705810225
:1021E8000002010705010200020100000A060002C0
:0821F800EF02014001000000AC
:1022000000000000000000000000000000000000CE
:1022100000000000000000000000000000000000BE
:102220000A49D1E900231344824298BF984234BF3F
:102230000123002308D28B68801AB0FBF3F203FB62
:102240001200B0FA80F35B0918467047CC490120B0
:102250000346024A00201A60704700BFF443012081
:102260000120704770B5054608460E46FFF7D8FFB7
:1022700038B34FF400121C4B2946D0691A68006924
:102280009B68B21A04690020A047184BB0FA80F48A
:1022900005461B686409022B01DC204670BD41F233
:1022A0004E721349134B032007F09EF9124B134A49
:1022B00031461348002D08BF1A4607F0DBF92046C7
:1022C00070BD0A4B04461B68002BE6DD094B41F24A
:1022D00046720749012007F087F93146094807F09F
:1022E000C9F9204670BD00BFCC490120D848012063
:1022F000886600209C2F0020AC5E0020B05E00208D
:10230000D85E0020B85E002001231A46013B002A57
:10231000FBD17047064908B5D1F8E0309A0705D4DB
:10232000FFF7F2FFD1F8E0309B07F9D508BD00BFF9
:1023300000802A402DE9F04F2DED028BADF5077D91
:10234000044600AF07F11803F9607A607B6172B64A
:1023500007F11400FFF77CFF002847D16F4E7A6821
:10236000F368B2FBF3F503FB1525002D4CD1336860
:10237000A34200F2A780FB687A689A189342BA6079
:1023800080F0BA801D461FE03368FA68A4EB0309A9
:1023900093424BD94FF4001341464A46D8692B4625
:1023A0000069D0F808800020C047F368B0FA80FACE
:1023B0001D444FEA5A1A1C44BB68AB4294BF002329
:1023C0000AF00103002B61D02046FFF729FFD7F860
:1023D00014800028D8D021464046FFF743FF8246AC
:1023E0000028D1D14E4B1B68022B7CDC4FF0000A39
:1023F0004C4B1B7803B962B6504607F50777BD46CC
:10240000BDEC028BBDE8F08F454B1B68002BEDDD6A
:10241000454B41F26B7245498246012007F0E4F8D2
:10242000F2687968424807F025F9E1E76B46F06801
:1024300008EE103A20F00303800803F1070323F0AD
:102440000703ADEB030D6B4607EE903A0ED005EB9C
:102450008000A5F1040BA3F1040A0438FFF75AFF2A
:102460005BF8043F58454AF8043FF7D14FF4001099
:1024700017EE903A41464A46C0690069D0F8088094
:102480000020C04718EE103A9D468EE7244B804648
:102490001B68022BACDD244B41F2957223490320CB
:1024A00007F0A2F8B8F1000F224A234B12BF4FF0F9
:1024B000000A4FF0010A1346224679681F4807F0C8
:1024C000D9F895E7164B1B68002B8FDD164B41F2B0
:1024D0006F720120154907F087F821461848AA466F
:1024E00007F0C8F884E7104B41F295720F490320BA
:1024F00007F07AF8104BDFE7094B1B68022B02DC70
:102500004FF0010A74E7084B41F295720749032026
:1025100007F06AF84FF0010A064BCDE7CC490120DD
:10252000D84801204DE60120A82F00208866002011
:10253000FC5E0020AC5E0020B05E0020385F002012
:10254000185F0020B2B12DE9F041074688461D46CC
:102550001646002408EB040138192C442A46FFF7DC
:10256000E9FEA642F6D84FF0E023054AC3F80C2D49
:10257000BDE8F0814FF0E023014AC3F80C2D70470D
:102580000400FA05F8B54FF084439D695A69154077
:102590000DD0254F01269D6195FAA5F4B4FA84F477
:1025A00057F8243006FA04F49847A543F4D11F4B9A
:1025B0009D695A6915400DD01D4F01269D6195FA00
:1025C000A5F4B4FA84F457F8243006FA04F49847D2
:1025D000A543F4D1174B9D695A6915400DD0164F8C
:1025E00001269D6195FAA5F4B4FA84F457F82430D5
:1025F00006FA04F49847A543F4D1104B9D695A6933
:1026000015400DD00E4F01269D6195FAA5F4B4FA40
:1026100084F457F8243006FA04F49847A543F4D11B
:10262000BFF34F8FF8BD00BF544601200040004269
:10263000D4460120008000425447012000C00042DF
:10264000D44701200548064B1B1AD90F01EBA30103
:10265000491002D0034B03B118477047C04E012008
:10266000C04E01200000000008B5054B1BB1054914
:102670000548AFF30080BDE80840FFF7E3BF00BFA7
:10268000000000000CDD0120003C0460704700BF2A
:10269000704700BF704700BF00207047034B1868A9
:1026A00010B103681B681847704700BF54D401205D
:1026B0004FF0E023014AC3F80C2D70470400FA05DF
:1026C000002070472DE9F04100F5804090B0574C54
:1026D0009646574B0094C0F860121B6A5548C3F3E6
:1026E00001230468403304F080746B4413F8406C99
:1026F000514B03FB06F60368B6FBF1F2B6FBF2F5AD
:1027000043F0A0434D1B03600368DF01FCD5052A9D
:102710004FF0000C2AD96046831C0130B2FBF3F75E
:10272000192F07FB03F3F7D84FF00108B6FBF3F3BB
:10273000CB1A002BB8BF5B42AB420BDBA7F10C03FB
:1027400018BF4FF00008062B0AD8B8F1000F07D0C9
:102750008446E1E71D46A7F10C038446062BF4D915
:10276000052FD9D80CF10103B2FBF3F2B5F5967F32
:10277000A2F105024CDC142A4AD802EB42022F4F88
:102780006E46DFF8B08002F14003BEF1020F0DEBA0
:1027900003050FCF0FC60FCF0FC60FCF0FC697E899
:1027A0000F0007C626F8023B4FEA1343337015F8B3
:1027B0003F3C15F83E2C4FEAC34315F8401C4FEA46
:1027C000024203F4601301F0070102F4E02243EA3D
:1027D000020343EA010343F4800343EA0C6343F436
:1027E0008043C8F80430D8F8043014BF23F008033D
:1027F00043F00803C8F804303CB90E4A136823F0CC
:10280000805313601368DB01FCD410B0BDE8F08185
:10281000002CFAD1074A136823F080531360136821
:10282000D901FCD410B0BDE8F08100BF3C185000C5
:1028300000C00F4000001D4040420F00480600202D
:1028400000207047002070470820704710B50446EC
:1028500000F540701FF06EF9204610BD0346104A87
:10286000102110B590B0DC78029407A89C780194F0
:102870005C78009405AC1B7814F0B4F8002307A929
:1028800020460F93CDE90B33CDE90D3316F034FF1D
:102890000BAA94E8030018F06BF80B9810B010BD69
:1028A0002827002010B5002184B0064C4FF4FA729E
:1028B000002300910448CDE9014113F0E5FC04B088
:1028C00010BD00BFB1040000B8D9012010490B6849
:1028D000486B0A68496B02F07F02C1F30361013261
:1028E0000431B2EB410F10D303F07F03C0F3036058
:1028F000053B0130A3EB4003DBB2054A106800F052
:102900007F000130C01AC0B270470023F5E700BF56
:1029100000001D4030B585B086460DF1040C8CE8F2
:102920000E0090F86E5090F86F402B190A2B01D9C9
:102930000B3B9BB2DAB263460B2C02EB820203CB59
:102940000EEB420C1B884EF81200CCF80410ACF8C9
:10295000083004D001348EF86F4005B030BD013529
:10296000EDB20B2D03D08EF86E5005B030BD0023B4
:102970008EF86E3005B030BD90F86F3093B1934251
:1029800010D390F86E301A440A2A88BF0B3A02EB33
:10299000820200EB420350F812005A6808604A6055
:1029A0001B890B81704700BF69B170B505460846A9
:1029B0000C4625F0E5F92B680246214628465B685F
:1029C000BDE8704018477047F8B5064600F1160597
:1029D00000F12207EC1E14F8011F012300223046EB
:1029E0000CF03AFAAC42F6D1E51CBD42F2D13046C9
:1029F000F8BD00BF08B51421034821F063FD03486A
:102A0000BDE808401EF0F8BE0C200020E035012093
:102A10002DE9F84F18212048DFF8888001244FF075
:102A2000000B1E4EDFF880A01D4FDFF8809021F0D4
:102A300049FD01E018F801BF33685A46514638464F
:102A40001D1995F838502B449B7C1EF0F1FE31681F
:102A50000C2238460B1993F8383002FB031154311D
:102A60001EF098FE35685946002205EB040C95F8D7
:102A70003330013448469CF838C06544AD7CEB1ACD
:102A800018BF01230CF0E8F9072CD3D10448BDE8A6
:102A9000F84F1EF0B1BE00BF982000201CDB0120C3
:102AA000E035012020270020B420002024DD012073
:102AB0002DE9F041144C94F89850C5F19605002D7D
:102AC00001DCBDE8F08194F89560002794F8961039
:102AD00026440E48013196F801802144777025F094
:102AE0006DF8042D86F80180EBDD94F8915094F890
:102AF00092102544064801316E7821446F7025F00C
:102B00005DF86E70BDE8F08124DC0120C8D10120A1
:102B1000D4D1012008B5074B1B7803B908BD582153
:102B2000054821F0CFFC054B05481978BDE8084061
:102B30001EF056BE4FE601200019002024DC0120C3
:102B4000E035012010B5114C0A460146206815F009
:102B500089F898B91A210E4821F0B4FC0D481EF0EE
:102B60004BFE1FF08BFB0C4B1A7B22B1D3E90021EB
:102B7000521A02441A6000221A7310BD2068002104
:102B8000026D483012F010FEEBE700BF6CDE012052
:102B90005C190020E0350120B4D1012038B50D4684
:102BA00004461FF06BFB084A084B0121D26B5860AA
:102BB00092F884201973042A00D038BD2946204693
:102BC000BDE83840FFF7BEBFB8D90120B4D101201D
:102BD00038B5044649B108460D4625F0D1F82368BA
:102BE000024629465B68204698472046BDE83840A3
:102BF0001EF002BE2DE9F84305460F462648042183
:102C0000144621F05FFC00231022E97823481EF0CF
:102C10001DFE0121224821F055FCE97800230A22FB
:102C20001E481EF013FE02211E4821F04BFC34B159
:102C3000204625F0A5F80146204621F043FC204619
:102C400025F09EF8C4B2132C08D8174E0134012188
:102C50003046E4B221F036FC142CF7D17E1E3A4601
:102C600012490E481EF0E4FD042E12DD0424DFF8A4
:102C70004090DFF828800C4F2A5D013449464046D9
:102C8000E4B21EF0D5FD0121384621F01BFCB44210
:102C9000F2DBBDE8F88300BFAC290020E03501205D
:102CA000B4290020B829002024530020BC2900208A
:102CB000C8290020254BD3F8A820D2E90010D368FA
:102CC0000968006810B41842946801EA040134D01D
:102CD000137C03F0030309BB43F008039908013B8D
:102CE00011740D2B0ED8DFE803F0100722070D1C1E
:102CF00010101C0D072207105169137E0139013392
:102D0000516113765DF8044B7047137E51690133AE
:102D1000013113765DF8044B5161704743F00403B1
:102D2000DAE753695DF8044BC83B53617047536958
:102D30005DF8044BC83353617047137C03F0030301
:102D40000029CBD043F00403C8E700BF88D401209A
:102D5000254BD3F8AC20D2E90010D368096800688D
:102D600010B41842946801EA040134D0137C03F0D3
:102D7000030309BB43F008039908013B11740D2BB1
:102D80000ED8DFE803F0100722070D1C10101C0DF1
:102D9000072207105169137E0139013351611376FF
:102DA0005DF8044B7047137E51690133013113768E
:102DB0005DF8044B5161704743F00403DAE753694F
:102DC0005DF8044BC83B5361704753695DF8044B91
:102DD000C83353617047137C03F003030029CBD041
:102DE00043F00403C8E700BF88D40120254BD3F883
:102DF000B420D2E90010D3680968006810B4184202
:102E0000946801EA040134D0137C03F0030309BB86
:102E100043F008039908013B11740D2B0ED8DFE82D
:102E200003F0100722070D1C10101C0D07220710BD
:102E30005169137E01390133516113765DF8044BFA
:102E40007047137E51690133013113765DF8044BED
:102E50005161704743F00403DAE753695DF8044BAE
:102E6000C83B5361704753695DF8044BC8335361E5
:102E70007047137C03F003030029CBD043F0040315
:102E8000C8E700BF88D40120254BD3F8B020D2E991
:102E90000010D3680968006810B41842946801EA09
:102EA000040134D0137C03F0030309BB43F008038F
:102EB0009908013B11740D2B0ED8DFE803F01007C1
:102EC00022070D1C10101C0D072207105169137EDC
:102ED00001390133516113765DF8044B7047137E5D
:102EE00051690133013113765DF8044B516170472C
:102EF00043F00403DAE753695DF8044BC83B5361C0
:102F0000704753695DF8044BC83353617047137CB5
:102F100003F003030029CBD043F00403C8E700BF4C
:102F200088D40120254BD3F8BC20D2E90010D36807
:102F30000968006810B41842946801EA040134D0AA
:102F4000137C03F0030309BB43F008039908013B1A
:102F500011740D2B0ED8DFE803F0100722070D1CAB
:102F600010101C0D072207105169137E013901331F
:102F7000516113765DF8044B7047137E516901333C
:102F8000013113765DF8044B5161704743F004033F
:102F9000DAE753695DF8044BC83B536170475369E6
:102FA0005DF8044BC83353617047137C03F003038F
:102FB0000029CBD043F00403C8E700BF88D4012028
:102FC000254BD3F8B820D2E90010D368096800680F
:102FD00010B41842946801EA040134D0137C03F061
:102FE000030309BB43F008039908013B11740D2B3F
:102FF0000ED8DFE803F0100722070D1C10101C0D7F
:10300000072207105169137E01390133516113768C
:103010005DF8044B7047137E51690133013113761B
:103020005DF8044B5161704743F00403DAE75369DC
:103030005DF8044BC83B5361704753695DF8044B1E
:10304000C83353617047137C03F003030029CBD0CE
:1030500043F00403C8E700BF88D40120254BD3F810
:10306000C020D2E90010D3680968006810B4184283
:10307000946801EA040134D0137C03F0030309BB14
:1030800043F008039908013B11740D2B0ED8DFE8BB
:1030900003F0100722070D1C10101C0D072207104B
:1030A0005169137E01390133516113765DF8044B88
:1030B0007047137E51690133013113765DF8044B7B
:1030C0005161704743F00403DAE753695DF8044B3C
:1030D000C83B5361704753695DF8044BC833536173
:1030E0007047137C03F003030029CBD043F00403A3
:1030F000C8E700BF88D40120254BD3F8C420D2E90B
:103100000010D3680968006810B41842946801EA96
:10311000040134D0137C03F0030309BB43F008031C
:103120009908013B11740D2B0ED8DFE803F010074E
:1031300022070D1C10101C0D072207105169137E69
:1031400001390133516113765DF8044B7047137EEA
:1031500051690133013113765DF8044B51617047B9
:1031600043F00403DAE753695DF8044BC83B53614D
:10317000704753695DF8044BC83353617047137C43
:1031800003F003030029CBD043F00403C8E700BFDA
:1031900088D40120254BD3F8C820D2E90010D36889
:1031A0000968006810B41842946801EA040134D038
:1031B000137C03F0030309BB43F008039908013BA8
:1031C00011740D2B0ED8DFE803F0100722070D1C39
:1031D00010101C0D072207105169137E01390133AD
:1031E000516113765DF8044B7047137E51690133CA
:1031F000013113765DF8044B5161704743F00403CD
:10320000DAE753695DF8044BC83B53617047536973
:103210005DF8044BC83353617047137C03F003031C
:103220000029CBD043F00403C8E700BF88D40120B5
:10323000254BD3F8A020D2E90010D36809680068B4
:1032400010B41842946801EA040134D0137C03F0EE
:10325000030309BB43F008039908013B11740D2BCC
:103260000ED8DFE803F0100722070D1C10101C0D0C
:10327000072207105169137E01390133516113761A
:103280005DF8044B7047137E5169013301311376A9
:103290005DF8044B5161704743F00403DAE753696A
:1032A0005DF8044BC83B5361704753695DF8044BAC
:1032B000C83353617047137C03F003030029CBD05C
:1032C00043F00403C8E700BF88D40120244B1A69E7
:1032D000D2E90010D3680968006810B418429468F5
:1032E00001EA040134D0137C03F0030309BB43F06B
:1032F00008039908013B11740D2B0ED8DFE803F089
:10330000100722070D1C10101C0D07220710516911
:10331000137E01390133516113765DF8044B704718
:10332000137E51690133013113765DF8044B51610D
:10333000704743F00403DAE753695DF8044BC83B78
:103340005361704753695DF8044BC833536170474C
:10335000137C03F003030029CBD043F00403C8E738
:1033600088D40120254BD3F89C20D2E90010D368E3
:103370000968006810B41842946801EA040134D066
:10338000137C03F0030309BB43F008039908013BD6
:1033900011740D2B0ED8DFE803F0100722070D1C67
:1033A00010101C0D072207105169137E01390133DB
:1033B000516113765DF8044B7047137E51690133F8
:1033C000013113765DF8044B5161704743F00403FB
:1033D000DAE753695DF8044BC83B536170475369A2
:1033E0005DF8044BC83353617047137C03F003034B
:1033F0000029CBD043F00403C8E700BF88D40120E4
:10340000254BD3F8CC20D2E90010D36809680068B6
:1034100010B41842946801EA040134D0137C03F01C
:10342000030309BB43F008039908013B11740D2BFA
:103430000ED8DFE803F0100722070D1C10101C0D3A
:10344000072207105169137E013901335161137648
:103450005DF8044B7047137E5169013301311376D7
:103460005DF8044B5161704743F00403DAE7536998
:103470005DF8044BC83B5361704753695DF8044BDA
:10348000C83353617047137C03F003030029CBD08A
:1034900043F00403C8E700BF88D40120254BD3F8CC
:1034A0008C20D2E90010D3680968006810B4184273
:1034B000946801EA040134D0137C03F0030309BBD0
:1034C00043F008039908013B11740D2B0ED8DFE877
:1034D00003F0100722070D1C10101C0D0722071007
:1034E0005169137E01390133516113765DF8044B44
:1034F0007047137E51690133013113765DF8044B37
:103500005161704743F00403DAE753695DF8044BF7
:10351000C83B5361704753695DF8044BC83353612E
:103520007047137C03F003030029CBD043F004035E
:10353000C8E700BF88D40120244B5A69D2E90010A3
:10354000D3680968006810B41842946801EA04015D
:1035500034D0137C03F0030309BB43F0080399083C
:10356000013B11740D2B0ED8DFE803F01007220782
:103570000D1C10101C0D072207105169137E013914
:103580000133516113765DF8044B7047137E516926
:103590000133013113765DF8044B5161704743F0FC
:1035A0000403DAE753695DF8044BC83B5361704785
:1035B00053695DF8044BC83353617047137C03F0C3
:1035C00003030029CBD043F00403C8E788D40120CB
:1035D000254BD3F89420D2E90010D368096800681D
:1035E00010B41842946801EA040134D0137C03F04B
:1035F000030309BB43F008039908013B11740D2B29
:103600000ED8DFE803F0100722070D1C10101C0D68
:10361000072207105169137E013901335161137676
:103620005DF8044B7047137E516901330131137605
:103630005DF8044B5161704743F00403DAE75369C6
:103640005DF8044BC83B5361704753695DF8044B08
:10365000C83353617047137C03F003030029CBD0B8
:1036600043F00403C8E700BF88D40120254BD3F8FA
:10367000D020D2E90010D3680968006810B418425D
:10368000946801EA040134D0137C03F0030309BBFE
:1036900043F008039908013B11740D2B0ED8DFE8A5
:1036A00003F0100722070D1C10101C0D0722071035
:1036B0005169137E01390133516113765DF8044B72
:1036C0007047137E51690133013113765DF8044B65
:1036D0005161704743F00403DAE753695DF8044B26
:1036E000C83B5361704753695DF8044BC83353615D
:1036F0007047137C03F003030029CBD043F004038D
:10370000C8E700BF88D40120244BDA6ED2E900104C
:10371000D3680968006810B41842946801EA04018B
:1037200034D0137C03F0030309BB43F0080399086A
:10373000013B11740D2B0ED8DFE803F010072207B0
:103740000D1C10101C0D072207105169137E013942
:103750000133516113765DF8044B7047137E516954
:103760000133013113765DF8044B5161704743F02A
:103770000403DAE753695DF8044BC83B53617047B3
:1037800053695DF8044BC83353617047137C03F0F1
:1037900003030029CBD043F00403C8E788D40120F9
:1037A000244BDA68D2E90010D3680968006810B4C5
:1037B0001842946801EA040134D0137C03F0030337
:1037C00009BB43F008039908013B11740D2B0ED877
:1037D000DFE803F0100722070D1C10101C0D072254
:1037E00007105169137E01390133516113765DF879
:1037F000044B7047137E51690133013113765DF834
:10380000044B5161704743F00403DAE753695DF8F4
:10381000044BC83B5361704753695DF8044BC83390
:1038200053617047137C03F003030029CBD043F0AE
:103830000403C8E788D40120244B5A6FD2E9001052
:10384000D3680968006810B41842946801EA04015A
:1038500034D0137C03F0030309BB43F00803990839
:10386000013B11740D2B0ED8DFE803F0100722077F
:103870000D1C10101C0D072207105169137E013911
:103880000133516113765DF8044B7047137E516923
:103890000133013113765DF8044B5161704743F0F9
:1038A0000403DAE753695DF8044BC83B5361704782
:1038B00053695DF8044BC83353617047137C03F0C0
:1038C00003030029CBD043F00403C8E788D40120C8
:1038D000254BD3F8D420D2E90010D36809680068DA
:1038E00010B41842946801EA040134D0137C03F048
:1038F000030309BB43F008039908013B11740D2B26
:103900000ED8DFE803F0100722070D1C10101C0D65
:10391000072207105169137E013901335161137673
:103920005DF8044B7047137E516901330131137602
:103930005DF8044B5161704743F00403DAE75369C3
:103940005DF8044BC83B5361704753695DF8044B05
:10395000C83353617047137C03F003030029CBD0B5
:1039600043F00403C8E700BF88D40120244BDA6F7A
:10397000D2E90010D3680968006810B4184294684E
:1039800001EA040134D0137C03F0030309BB43F0C4
:1039900008039908013B11740D2B0ED8DFE803F0E2
:1039A000100722070D1C10101C0D0722071051696B
:1039B000137E01390133516113765DF8044B704772
:1039C000137E51690133013113765DF8044B516167
:1039D000704743F00403DAE753695DF8044BC83BD2
:1039E0005361704753695DF8044BC83353617047A6
:1039F000137C03F003030029CBD043F00403C8E792
:103A000088D40120254BD3F88020D2E90010D36858
:103A10000968006810B41842946801EA040134D0BF
:103A2000137C03F0030309BB43F008039908013B2F
:103A300011740D2B0ED8DFE803F0100722070D1CC0
:103A400010101C0D072207105169137E0139013334
:103A5000516113765DF8044B7047137E5169013351
:103A6000013113765DF8044B5161704743F0040354
:103A7000DAE753695DF8044BC83B536170475369FB
:103A80005DF8044BC83353617047137C03F00303A4
:103A90000029CBD043F00403C8E700BF88D401203D
:103AA000254BD3F88420D2E90010D3680968006858
:103AB00010B41842946801EA040134D0137C03F076
:103AC000030309BB43F008039908013B11740D2B54
:103AD0000ED8DFE803F0100722070D1C10101C0D94
:103AE000072207105169137E0139013351611376A2
:103AF0005DF8044B7047137E516901330131137631
:103B00005DF8044B5161704743F00403DAE75369F1
:103B10005DF8044BC83B5361704753695DF8044B33
:103B2000C83353617047137C03F003030029CBD0E3
:103B300043F00403C8E700BF88D40120244B1A686F
:103B4000D2E90010D3680968006810B4184294687C
:103B500001EA040134D0137C03F0030309BB43F0F2
:103B600008039908013B11740D2B0ED8DFE803F010
:103B7000100722070D1C10101C0D07220710516999
:103B8000137E01390133516113765DF8044B7047A0
:103B9000137E51690133013113765DF8044B516195
:103BA000704743F00403DAE753695DF8044BC83B00
:103BB0005361704753695DF8044BC83353617047D4
:103BC000137C03F003030029CBD043F00403C8E7C0
:103BD00088D40120244BDA6AD2E90010D36809683E
:103BE000006810B41842946801EA040134D0137CD0
:103BF00003F0030309BB43F008039908013B117468
:103C00000D2B0ED8DFE803F0100722070D1C101053
:103C10001C0D072207105169137E013901335161D0
:103C200013765DF8044B7047137E516901330131FF
:103C300013765DF8044B5161704743F00403DAE7F3
:103C400053695DF8044BC83B5361704753695DF895
:103C5000044BC83353617047137C03F003030029FE
:103C6000CBD043F00403C8E788D40120244B1A6A60
:103C7000D2E90010D3680968006810B4184294684B
:103C800001EA040134D0137C03F0030309BB43F0C1
:103C900008039908013B11740D2B0ED8DFE803F0DF
:103CA000100722070D1C10101C0D07220710516968
:103CB000137E01390133516113765DF8044B70476F
:103CC000137E51690133013113765DF8044B516164
:103CD000704743F00403DAE753695DF8044BC83BCF
:103CE0005361704753695DF8044BC83353617047A3
:103CF000137C03F003030029CBD043F00403C8E78F
:103D000088D40120244B5A6BD2E90010D36809688B
:103D1000006810B41842946801EA040134D0137C9E
:103D200003F0030309BB43F008039908013B117436
:103D30000D2B0ED8DFE803F0100722070D1C101022
:103D40001C0D072207105169137E0139013351619F
:103D500013765DF8044B7047137E516901330131CE
:103D600013765DF8044B5161704743F00403DAE7C2
:103D700053695DF8044BC83B5361704753695DF864
:103D8000044BC83353617047137C03F003030029CD
:103D9000CBD043F00403C8E788D40120244B5A68F1
:103DA000D2E90010D3680968006810B4184294681A
:103DB00001EA040134D0137C03F0030309BB43F090
:103DC00008039908013B11740D2B0ED8DFE803F0AE
:103DD000100722070D1C10101C0D07220710516937
:103DE000137E01390133516113765DF8044B70473E
:103DF000137E51690133013113765DF8044B516133
:103E0000704743F00403DAE753695DF8044BC83B9D
:103E10005361704753695DF8044BC8335361704771
:103E2000137C03F003030029CBD043F00403C8E75D
:103E300088D40120244BDA6BD2E90010D3680968DA
:103E4000006810B41842946801EA040134D0137C6D
:103E500003F0030309BB43F008039908013B117405
:103E60000D2B0ED8DFE803F0100722070D1C1010F1
:103E70001C0D072207105169137E0139013351616E
:103E800013765DF8044B7047137E5169013301319D
:103E900013765DF8044B5161704743F00403DAE791
:103EA00053695DF8044BC83B5361704753695DF833
:103EB000044BC83353617047137C03F0030300299C
:103EC000CBD043F00403C8E788D40120244B5A6ABE
:103ED000D2E90010D3680968006810B418429468E9
:103EE00001EA040134D0137C03F0030309BB43F05F
:103EF00008039908013B11740D2B0ED8DFE803F07D
:103F0000100722070D1C10101C0D07220710516905
:103F1000137E01390133516113765DF8044B70470C
:103F2000137E51690133013113765DF8044B516101
:103F3000704743F00403DAE753695DF8044BC83B6C
:103F40005361704753695DF8044BC8335361704740
:103F5000137C03F003030029CBD043F00403C8E72C
:103F600088D40120244B5A6CD2E90010D368096828
:103F7000006810B41842946801EA040134D0137C3C
:103F800003F0030309BB43F008039908013B1174D4
:103F90000D2B0ED8DFE803F0100722070D1C1010C0
:103FA0001C0D072207105169137E0139013351613D
:103FB00013765DF8044B7047137E5169013301316C
:103FC00013765DF8044B5161704743F00403DAE760
:103FD00053695DF8044BC83B5361704753695DF802
:103FE000044BC83353617047137C03F0030300296B
:103FF000CBD043F00403C8E788D40120244B9A684F
:10400000D2E90010D3680968006810B418429468B7
:1040100001EA040134D0137C03F0030309BB43F02D
:1040200008039908013B11740D2B0ED8DFE803F04B
:10403000100722070D1C10101C0D072207105169D4
:10404000137E01390133516113765DF8044B7047DB
:10405000137E51690133013113765DF8044B5161D0
:10406000704743F00403DAE753695DF8044BC83B3B
:104070005361704753695DF8044BC833536170470F
:10408000137C03F003030029CBD043F00403C8E7FB
:1040900088D40120244BDA6CD2E90010D368096877
:1040A000006810B41842946801EA040134D0137C0B
:1040B00003F0030309BB43F008039908013B1174A3
:1040C0000D2B0ED8DFE803F0100722070D1C10108F
:1040D0001C0D072207105169137E0139013351610C
:1040E00013765DF8044B7047137E5169013301313B
:1040F00013765DF8044B5161704743F00403DAE72F
:1041000053695DF8044BC83B5361704753695DF8D0
:10411000044BC83353617047137C03F00303002939
:10412000CBD043F00403C8E788D40120244BDA69DC
:10413000D2E90010D3680968006810B41842946886
:1041400001EA040134D0137C03F0030309BB43F0FC
:1041500008039908013B11740D2B0ED8DFE803F01A
:10416000100722070D1C10101C0D072207105169A3
:10417000137E01390133516113765DF8044B7047AA
:10418000137E51690133013113765DF8044B51619F
:10419000704743F00403DAE753695DF8044BC83B0A
:1041A0005361704753695DF8044BC83353617047DE
:1041B000137C03F003030029CBD043F00403C8E7CA
:1041C00088D40120244B5A6DD2E90010D3680968C5
:1041D000006810B41842946801EA040134D0137CDA
:1041E00003F0030309BB43F008039908013B117472
:1041F0000D2B0ED8DFE803F0100722070D1C10105E
:104200001C0D072207105169137E013901335161DA
:1042100013765DF8044B7047137E51690133013109
:1042200013765DF8044B5161704743F00403DAE7FD
:1042300053695DF8044BC83B5361704753695DF89F
:10424000044BC83353617047137C03F00303002908
:10425000CBD043F00403C8E788D40120244B9A69EB
:10426000D2E90010D3680968006810B41842946855
:1042700001EA040134D0137C03F0030309BB43F0CB
:1042800008039908013B11740D2B0ED8DFE803F0E9
:10429000100722070D1C10101C0D07220710516972
:1042A000137E01390133516113765DF8044B704779
:1042B000137E51690133013113765DF8044B51616E
:1042C000704743F00403DAE753695DF8044BC83BD9
:1042D0005361704753695DF8044BC83353617047AD
:1042E000137C03F003030029CBD043F00403C8E799
:1042F00088D40120244BDA6DD2E90010D368096814
:10430000006810B41842946801EA040134D0137CA8
:1043100003F0030309BB43F008039908013B117440
:104320000D2B0ED8DFE803F0100722070D1C10102C
:104330001C0D072207105169137E013901335161A9
:1043400013765DF8044B7047137E516901330131D8
:1043500013765DF8044B5161704743F00403DAE7CC
:1043600053695DF8044BC83B5361704753695DF86E
:10437000044BC83353617047137C03F003030029D7
:10438000CBD043F00403C8E788D40120244B1A6E35
:10439000D2E90010D3680968006810B41842946824
:1043A00001EA040134D0137C03F0030309BB43F09A
:1043B00008039908013B11740D2B0ED8DFE803F0B8
:1043C000100722070D1C10101C0D07220710516941
:1043D000137E01390133516113765DF8044B704748
:1043E000137E51690133013113765DF8044B51613D
:1043F000704743F00403DAE753695DF8044BC83BA8
:104400005361704753695DF8044BC833536170477B
:10441000137C03F003030029CBD043F00403C8E767
:1044200088D40120244B5A6ED2E90010D368096861
:10443000006810B41842946801EA040134D0137C77
:1044400003F0030309BB43F008039908013B11740F
:104450000D2B0ED8DFE803F0100722070D1C1010FB
:104460001C0D072207105169137E01390133516178
:1044700013765DF8044B7047137E516901330131A7
:1044800013765DF8044B5161704743F00403DAE79B
:1044900053695DF8044BC83B5361704753695DF83D
:1044A000044BC83353617047137C03F003030029A6
:1044B000CBD043F00403C8E788D40120244B9A6A88
:1044C000D2E90010D3680968006810B418429468F3
:1044D00001EA040134D0137C03F0030309BB43F069
:1044E00008039908013B11740D2B0ED8DFE803F087
:1044F000100722070D1C10101C0D07220710516910
:10450000137E01390133516113765DF8044B704716
:10451000137E51690133013113765DF8044B51610B
:10452000704743F00403DAE753695DF8044BC83B76
:104530005361704753695DF8044BC833536170474A
:10454000137C03F003030029CBD043F00403C8E736
:1045500088D40120244B9A6BD2E90010D3680968F3
:10456000006810B41842946801EA040134D0137C46
:1045700003F0030309BB43F008039908013B1174DE
:104580000D2B0ED8DFE803F0100722070D1C1010CA
:104590001C0D072207105169137E01390133516147
:1045A00013765DF8044B7047137E51690133013176
:1045B00013765DF8044B5161704743F00403DAE76A
:1045C00053695DF8044BC83B5361704753695DF80C
:1045D000044BC83353617047137C03F00303002975
:1045E000CBD043F00403C8E788D40120244B9A6C55
:1045F000D2E90010D3680968006810B418429468C2
:1046000001EA040134D0137C03F0030309BB43F037
:1046100008039908013B11740D2B0ED8DFE803F055
:10462000100722070D1C10101C0D072207105169DE
:10463000137E01390133516113765DF8044B7047E5
:10464000137E51690133013113765DF8044B5161DA
:10465000704743F00403DAE753695DF8044BC83B45
:104660005361704753695DF8044BC8335361704719
:10467000137C03F003030029CBD043F00403C8E705
:1046800088D40120244B1A6FD2E90010D36809683E
:10469000006810B41842946801EA040134D0137C15
:1046A00003F0030309BB43F008039908013B1174AD
:1046B0000D2B0ED8DFE803F0100722070D1C101099
:1046C0001C0D072207105169137E01390133516116
:1046D00013765DF8044B7047137E51690133013145
:1046E00013765DF8044B5161704743F00403DAE739
:1046F00053695DF8044BC83B5361704753695DF8DB
:10470000044BC83353617047137C03F00303002943
:10471000CBD043F00403C8E788D40120254BD3F85D
:104720009820D2E90010D3680968006810B41842D4
:10473000946801EA040134D0137C03F0030309BB3D
:1047400043F008039908013B11740D2B0ED8DFE8E4
:1047500003F0100722070D1C10101C0D0722071074
:104760005169137E01390133516113765DF8044BB1
:104770007047137E51690133013113765DF8044BA4
:104780005161704743F00403DAE753695DF8044B65
:10479000C83B5361704753695DF8044BC83353619C
:1047A0007047137C03F003030029CBD043F00403CC
:1047B000C8E700BF88D40120254BD3F89020D2E968
:1047C0000010D3680968006810B41842946801EAC0
:1047D000040134D0137C03F0030309BB43F0080346
:1047E0009908013B11740D2B0ED8DFE803F0100778
:1047F00022070D1C10101C0D072207105169137E93
:1048000001390133516113765DF8044B7047137E13
:1048100051690133013113765DF8044B51617047E2
:1048200043F00403DAE753695DF8044BC83B536176
:10483000704753695DF8044BC83353617047137C6C
:1048400003F003030029CBD043F00403C8E700BF03
:1048500088D40120244B9A6DD2E90010D3680968EE
:10486000006810B41842946801EA040134D0137C43
:1048700003F0030309BB43F008039908013B1174DB
:104880000D2B0ED8DFE803F0100722070D1C1010C7
:104890001C0D072207105169137E01390133516144
:1048A00013765DF8044B7047137E51690133013173
:1048B00013765DF8044B5161704743F00403DAE767
:1048C00053695DF8044BC83B5361704753695DF809
:1048D000044BC83353617047137C03F00303002972
:1048E000CBD043F00403C8E788D40120244B1A6DD1
:1048F000D2E90010D3680968006810B418429468BF
:1049000001EA040134D0137C03F0030309BB43F034
:1049100008039908013B11740D2B0ED8DFE803F052
:10492000100722070D1C10101C0D072207105169DB
:10493000137E01390133516113765DF8044B7047E2
:10494000137E51690133013113765DF8044B5161D7
:10495000704743F00403DAE753695DF8044BC83B42
:104960005361704753695DF8044BC8335361704716
:10497000137C03F003030029CBD043F00403C8E702
:1049800088D40120244B1A6BD2E90010D36809683F
:10499000006810B41842946801EA040134D0137C12
:1049A00003F0030309BB43F008039908013B1174AA
:1049B0000D2B0ED8DFE803F0100722070D1C101096
:1049C0001C0D072207105169137E01390133516113
:1049D00013765DF8044B7047137E51690133013142
:1049E00013765DF8044B5161704743F00403DAE736
:1049F00053695DF8044BC83B5361704753695DF8D8
:104A0000044BC83353617047137C03F00303002940
:104A1000CBD043F00403C8E788D40120244B1A6CA0
:104A2000D2E90010D3680968006810B4184294688D
:104A300001EA040134D0137C03F0030309BB43F003
:104A400008039908013B11740D2B0ED8DFE803F021
:104A5000100722070D1C10101C0D072207105169AA
:104A6000137E01390133516113765DF8044B7047B1
:104A7000137E51690133013113765DF8044B5161A6
:104A8000704743F00403DAE753695DF8044BC83B11
:104A90005361704753695DF8044BC83353617047E5
:104AA000137C03F003030029CBD043F00403C8E7D1
:104AB00088D40120254BD3F8D820D2E90010D36840
:104AC0000968006810B41842946801EA040134D0FF
:104AD000137C03F0030309BB43F008039908013B6F
:104AE00011740D2B0ED8DFE803F0100722070D1C00
:104AF00010101C0D072207105169137E0139013374
:104B0000516113765DF8044B7047137E5169013390
:104B1000013113765DF8044B5161704743F0040393
:104B2000DAE753695DF8044BC83B5361704753693A
:104B30005DF8044BC83353617047137C03F00303E3
:104B40000029CBD043F00403C8E700BF88D401207C
:104B5000254BD3F88820D2E90010D3680968006893
:104B600010B41842946801EA040134D0137C03F0B5
:104B7000030309BB43F008039908013B11740D2B93
:104B80000ED8DFE803F0100722070D1C10101C0DD3
:104B9000072207105169137E0139013351611376E1
:104BA0005DF8044B7047137E516901330131137670
:104BB0005DF8044B5161704743F00403DAE7536931
:104BC0005DF8044BC83B5361704753695DF8044B73
:104BD000C83353617047137C03F003030029CBD023
:104BE00043F00403C8E700BF88D40120244B9A6E29
:104BF000D2E90010D3680968006810B418429468BC
:104C000001EA040134D0137C03F0030309BB43F031
:104C100008039908013B11740D2B0ED8DFE803F04F
:104C2000100722070D1C10101C0D072207105169D8
:104C3000137E01390133516113765DF8044B7047DF
:104C4000137E51690133013113765DF8044B5161D4
:104C5000704743F00403DAE753695DF8044BC83B3F
:104C60005361704753695DF8044BC8335361704713
:104C7000137C03F003030029CBD043F00403C8E7FF
:104C800088D40120244B9A6FD2E90010D3680968B8
:104C9000006810B41842946801EA040134D0137C0F
:104CA00003F0030309BB43F008039908013B1174A7
:104CB0000D2B0ED8DFE803F0100722070D1C101093
:104CC0001C0D072207105169137E01390133516110
:104CD00013765DF8044B7047137E5169013301313F
:104CE00013765DF8044B5161704743F00403DAE733
:104CF00053695DF8044BC83B5361704753695DF8D5
:104D0000044BC83353617047137C03F0030300293D
:104D1000CBD043F00403C8E788D40120254BD3F857
:104D2000A420D2E90010D3680968006810B41842C2
:104D3000946801EA040134D0137C03F0030309BB37
:104D400043F008039908013B11740D2B0ED8DFE8DE
:104D500003F0100722070D1C10101C0D072207106E
:104D60005169137E01390133516113765DF8044BAB
:104D70007047137E51690133013113765DF8044B9E
:104D80005161704743F00403DAE753695DF8044B5F
:104D9000C83B5361704753695DF8044BC833536196
:104DA0007047137C03F003030029CBD043F00403C6
:104DB000C8E700BF88D4012043782DE9F0410446BC
:104DC0002DED028B82B0002B00F0A1800378002B28
:104DD00000F0848003690F4682690221DFF8D481E4
:104DE00093424269D8F80050C8BF8361C368D8F8BD
:104DF00000609342B8BF4361D0E90123134483604C
:104E0000C369ED1A036A6048F61A1FF05BFB37B1FD
:104E1000384622F0B5FF014638461FF053FBA36920
:104E200022695A495A481CF003FD6369E2685949EE
:104E300057481CF0FDFC07EE905A5749B8EE675AE8
:104E4000D4ED027A5248B8EEE76AD4ED017AB7EEB3
:104E5000C55A524FB8EEE77A07EE906AB7EEC66AC7
:104E6000B8EE678AB7EEC77A9FED414BB7EEC88AB6
:104E700085EE043B88EE042B87EE037B86EE025B17
:104E800053EC172B8DED005B1CF0D2FC0321444842
:104E90001FF018FBA7FB05310A22002389093C48B3
:104EA0001CF0D4FC03213F481FF00CFB3E4B9E42FC
:104EB0004FD84EF660239E423ED8A7FB06710023D2
:104EC0000A22334889091CF0C1FC012137481FF030
:104ED000F9FA012136481FF0F5FA09E0DFF8D4802D
:104EE00042F20F7283618360D8F80030426103623E
:104EF0000023D8F8002042F20F7163602370E26152
:104F0000C4E9031302B0BDEC028BBDE8F08129496E
:104F100042F20F72836183600D6808680121256287
:104F2000E26063602370E0616170C4E9043202B042
:104F3000BDEC028BBDE8F0819FED0F0B0121144801
:104F400088EE000B1CF098FC01211B481FF0BAFAF8
:104F5000BFE79FED0B0B01210D4888EE000B1CF005
:104F60008BFC012115481FF0ADFAB2E7AFF30080CA
:104F70000000000000408F4000000000004CED40A9
:104F80000000000040774B41CC4200206828002000
:104F9000E03501207428002080280020D34D6210C5
:104FA000942800209828002080EE36006C460020CF
:104FB000C04F0020B0DE01209C28002000220020ED
:104FC00038B5037B04460D4693B900680F4AA368C1
:104FD00012680F49D31AA260A1FB03139B09B0FB0F
:104FE000F3F00023A84223602CBF401B002038BDF3
:104FF0001DF044F9237B1BB9206800232373E5E7E8
:10500000D4E900329B1A1844F7E700BFB0DE012054
:10501000D34D6210000000005B4B1B6830B50446A6
:1050200083B08362092938D8DFE801F047161637C4
:1050300005272737055790F85130042B0AD0002058
:10504000A17C84F8520084F85310002A78D10423FC
:1050500084F8513003B030BD90F85130022BF9D0B4
:10506000407C002184F8520084F85310002A5FD15C
:10507000022384F8513003B030BD90F85130032B37
:10508000E8D00020A17C84F8520084F85310002A54
:105090005ED1032384F85130DCE790F85130002BC7
:1050A000D8D00025026C3949A0F8525038480095F4
:1050B0001CF0BEFB84F85150CCE790F85130012B26
:1050C000C8D0407C002184F8520084F85310002A94
:1050D0004ED1012384F85130BCE790F85130052BB4
:1050E00021D0417CB6EE084B06EE101A817C07EE0B
:1050F000101AB8EEC66BB8EEC77B26EE046B9FEDB8
:10510000205BFCEEC66B27EE057B16EE900A84F85A
:105110005200FCEEC77B17EE901A84F85310FAB9D0
:10512000052384F85130002384F8303003B030BDBB
:105130000220226C1549009015481CF079FB97E776
:105140000420226C1149009011481CF071FB7EE78D
:105150000320226C0D4900900D481CF069FB98E774
:105160000520226C0949009009481CF061FBD7E733
:105170000120226C0549009005481CF059FBA8E766
:105180009A9999999999E93FB0DE0120A0280020C9
:10519000E0350120F0B587B01FF06EF9C4B2632C82
:1051A00000F0A280672C00F0C9806C2C00F0AC806D
:1051B0006D2C73D06E2C00F0D180A4F10A03692B02
:1051C00000F2A680DFE813F08E00A400A4008E0099
:1051D000A400A400A400A400A400A400A400A400AF
:1051E000A400A400A400A400A400A400A400A4009F
:1051F000A400A400A400A400A400A400A400A4008F
:10520000A400A400A400A400A400A400A400A4007E
:10521000A400A4008E008301A001B3013E0243025A
:10522000590268020A020C01A400A400A400A40010
:10523000A400A400A400A400A400A400A400A4004E
:10524000A400A400A400A400A400A400A400A4003E
:10525000A400A400A400A400BC01A400A400A40015
:10526000A400A400A400A400A400A400A400A4001E
:10527000A400A400A400A400A400A400A400A4000E
:10528000A400A400A400A400A400A400A400A400FE
:10529000A400A400C201A4003E013B021FF0A8F834
:1052A000002835DD1FF0E8F83038AA4CC3B2AA490F
:1052B0006846052B9CBF226813701CF001FC6946F0
:1052C00003A81CF01BFC236803A819781CF0E6FC5B
:1052D0000146A2481CF05EFA03A81CF02BFC6846AD
:1052E0001CF028FC07B0F0BD9D4C1B219D48237885
:1052F00083F0010323701FF0E5F82178974807B089
:10530000BDE8F0401CF06CBA1FF072F8002840DCD9
:1053100095499248FDF748FB214600230A228F4811
:105320001CF094FA91498D48FDF73EFB01E01FF017
:10533000A3F81FF05DF80028F9D1D3E71FF058F863
:1053400000287FF73AAF1FF097F83038C1B205292F
:10535000C8D801228648FFF75FFEC3E71FF048F870
:1053600020B11FF023F8C0B232282BD0814C162177
:10537000814A2378814883F00103237082F88334C3
:105380001FF0A0F82178754807B0BDE8F0401CF088
:1053900027BA1FF071F8C0B2A0F13004E3B2052BB8
:1053A000A0D800EB8003724A754903EB83036B4876
:1053B0005B00603B1374FDF7F7FA3221674804FB8A
:1053C00001F19CE71FF058F86E4C6F492378634851
:1053D00083F001032370FDF7E7FA21785F488EE739
:1053E0006A4C882301256A495C4884F8A53084F812
:1053F000305184F82F51FDF7D7FA2946204609F09D
:10540000F3F9002840F0598162495448FDF7CCFA7D
:10541000E02301255148604984F8A53084F83051D3
:1054200084F82F51FDF7C0FA2946584809F0DCF9F5
:10543000002840F040815749484807B0BDE8F04097
:10544000FDF7B2BA55494548FDF7AEFA54495548FB
:1054500000230C6842F20F724360C4610C68037051
:10546000836004620C68C0E90323C0E905234E4849
:10547000C4610C6843600370836004620C68C0E917
:105480000323C0E905234948C4610C6843600370E5
:105490008360C0E90323C0E90523046244480C6823
:1054A0004360C4610C680370046283600C6809681F
:1054B000C0E90523C0E903233E48C0E90323436054
:1054C0000370426183600162C0E906340AE73A4E24
:1054D0001CF0D4FE04463578002D00F0F380012D39
:1054E00000F00A81022D00F021811CF0C7FE334933
:1054F00005461A48FDF758FA291B00230A221748C7
:105500001CF0A4F92E4997E72E4E1CF0B7FE044676
:105510003578002D00F0E380012D00F0FA80022D97
:1055200000F011811CF0AAFE27490546E1E700239F
:10553000012126481A4607B0BDE8F04009F08CBCAE
:105540004FF0E023224AC3F80C2DCBE6214C224930
:105550003CE700BF1CDB0120381A0020E0350120A9
:1055600048E60120001A00207C1C0020A41C00201A
:1055700074CF012044E60120F8810120681A002040
:105580001C1A002045E60120501A00203438012062
:10559000381C0020501C0020681C0020A81A002085
:1055A000B0DE012004DA012028DA012038DD0120F4
:1055B0005CDD012044D901202AE60120841B002063
:1055C0008C1B00202BE60120301C002024DD012054
:1055D0000400FA054AE60120801A0020604C0023EE
:1055E000604F0F21251D264638461A4609F034FC27
:1055F000AE4208D0002316F8011F38461A4609F0BB
:105600002BFCAE42F6D15849584A594B48681268AB
:10561000A3FB02329623920C03FB02F24B681B1A87
:105620009A42FBD80F214F4E0123BB22304609F08E
:1056300013FCA5423FF456AE14F8011FF4E74D4C9D
:105640004D49C3E6012300224648194673E7444CFE
:105650000023444E0F21251D1A46304609F0FCFB5D
:10566000A5423FF43FAE002314F8011F30461A460E
:1056700009F0F2FBA542F6D134E6394C0F21394E40
:10568000251D01230022304609F0E6FBAC423FF421
:1056900029AE14F8011FF4E7314C0F21314E251DBE
:1056A0000123BB22304609F0D7FBA5423FF41AAED6
:1056B00014F8011FF4E73149BEE630493048FDF7E0
:1056C00073F9A5E62F492E48FDF76EF901232A4606
:1056D0000F21244809F0C0FB0123337005E72A4954
:1056E0002748FDF761F901232A460E211D4809F0DC
:1056F000B3FB0123337015E724492148FDF754F922
:105700002B46ED220F21174809F0A6FB0223337028
:10571000EBE61F491A48FDF747F92B46ED220E210B
:10572000104809F099FB02233370FBE6194914482D
:10573000FDF73AF900230F210A481A4609F08CFBBD
:1057400000233370D1E614490D48FDF72DF90023ED
:105750000E2104481A4609F07FFB00233370E1E66E
:105760001827002024DD0120001000E0DC35012096
:1057700083DE1B4349E60120C81A0020581C002084
:10578000E0350120E01A0020901B0020101B0020B3
:10579000BC1B0020541B0020001C00201A4A30B5FE
:1057A00092F8983083B0C3F19603092B1BDC01AB50
:1057B00018461FF033FCC1B2022912D0032908BFDA
:1057C000042101221148FFF727FC0D201CF0AAFD3F
:1057D00001460D20B1FA81F149091CF079FD03B0B1
:1057E00030BD0521EDE792F88C4001AB92F88D10A9
:1057F000002014440131657811446070184622F08D
:10580000DDF965700346D3E724DC012074CF012065
:105810002DE9F047DFF8A89241F28832416A82B060
:10582000D9F8003004465B1A934200F2AC80D9F8F4
:10583000003040F6B832A16A5B1A934200F28F80C2
:10584000D9F80030216AA28D5B1A9A4275D2D9F834
:105850000030274604F1130604F11F0ADFF86482C2
:10586000236297F84C30023B012B03D894F82E307A
:10587000002B69D197F84D302046217CC3EB0332D1
:1058800097F84E50A8FB02320123120901FB02F2E5
:10589000A8FB02127178C2F30F1209F0DDFA217C25
:1058A000C5EB053235460123A8FB0202204612094A
:1058B00001FB02F2A8FB0212B178C2F30F1209F049
:1058C000CBFA0123002215F8031F204609F0C4FA81
:1058D000554507F105072E46C3D194F82E3083F0C5
:1058E000010384F82E3043BBD9F800200121A08D9C
:1058F00084F82F3002EB5003628E84F83010A3EB53
:1059000052036363D9F800209A421AD9012327462B
:1059100004F10C082646DFF8ACA184F82F3097F884
:1059200050300537002B40F09C800336B045F6D14F
:1059300094F82F302BB1636B3FE094F83030002B9C
:1059400036D102B0BDE8F087F51C16F8011F01231F
:105950000022204609F080FAAE42F6D1B8E7D9F825
:10596000002094F85130A262002B3FF469AF00256B
:10597000226C5149A4F85250504800951BF058FF32
:1059800084F851505CE790F84C30032B3FF44FAF54
:10599000817C0325002280F84E1080F84D20464976
:1059A0000095C26B45481BF043FF84F84C503EE71E
:1059B00094F82F20636B002AA4D0628ED9F80010CF
:1059C00013448B42BDD24FF0000A264604F1130562
:1059D00004F11F0984F830A096F85030DFF8E48015
:1059E0004BB9EF1C4F453D4606F10506A9D096F888
:1059F0005030002BF5D096F84C30023B012B4FD99C
:105A000096F84D30204696F84E70C3EB0332697815
:105A1000A8FB0232237C120903FB02F2A8FB02322C
:105A20000123C2F30F1209F017FAA978C7EB073266
:105A30002F462046A8FB0232237C120903FB02F208
:105A4000A8FB02320123C2F30F1209F005FA012369
:105A5000002217F8031F204609F0FEF986F850A02F
:105A6000C0E7E57C2046317D0123002209F0F4F9EE
:105A7000717D01232046002209F0EEF9B17DC5EBCE
:105A800005322046AAFB0232237C120903FB02F2F4
:105A9000AAFB02320123C2F30F1209F0DDF944E739
:105AA000EF1C15F8011F01230022204609F0D4F94C
:105AB000BD42F6D1D2E700BFA0280020E03501208A
:105AC000B0DE0120B5814E1B06EE902A00F58862FB
:105AD0002DE9F043B8EEE61B06EE903A044600F5D9
:105AE0008467B8EEE64B00F5826004F586662DED1E
:105AF000028B83B0C4F84814DDED0C6ADDED0F5A5B
:105B0000B8EEE62BDDED0D6AB8EEE55B119BB8EE65
:105B1000E63BDDED0E6A9FEDAA8BB8EEE66B9FEDDE
:105B2000AA7B9FEDAB0BA6EE087BDDED106AB8EE0D
:105B3000E66B25EE005B26EE006B21EE001B24EEEB
:105B4000004B32EE052B33EE063B9FEDA30B80EDB1
:105B5000001B07ED024BB4EEC07B02ED025BF1EEE1
:105B600010FA87ED002BA8BF37EE407B82ED006B6B
:105B7000B5EEC07B06ED023BF1EE10FA03D59FEDCA
:105B8000966B37EE067B94F883249FED956B27EE9A
:105B9000067B86ED007BC4F86834002A40F08480E0
:105BA000954D2A68D4F80014521AC4F888242A683B
:105BB000C4F800242A68C4F8902494F8812412B907
:105BC000012284F88424012213F0010503F0020865
:105BD00003F0040984F8822484F88124C3F3C10209
:105BE000C4F8782431D0B8F1000F3DD0B9F1000FDE
:105BF00049D02DB3D4F87834012B40F39A8016EDB8
:105C0000027BB5EE407BF1EE10FA00F08B8004F5DC
:105C10008E6597ED000B80EE070B1EF0AFFE9FED3B
:105C2000727B20EE070B012194F8833485ED000B85
:105C300084F88014002B40F09280704C84ED000BAF
:105C400003B0BDEC028BBDE8F08311216C481EF05F
:105C500039FC29466B481BF0C3FD04216A481EF03D
:105C600031FCB8F1000FC1D1102168481EF02AFCA8
:105C7000414664481BF0B4FD042163481EF022FC39
:105C8000B9F1000FDCD1132161481EF01BFC00218B
:105C90005C481BF0A5FD04215B4803B0BDEC028B02
:105CA000BDE8F0431EF00EBC534D022159481EF0D2
:105CB00009FC002329680A2252481BF0C7FDB4F8EA
:105CC000982455494F481BF0B3FDD4F80034296897
:105CD0000A224C48C91A00231BF0B8FD01214F4885
:105CE0001EF0F0FBD4F848144D4B4648A3FB0123AB
:105CF0004FF47A729B0902FB13114A4B0A22A3FB51
:105D000001310023C9081BF0A1FD012143481EF009
:105D1000D9FB02213B4896ED000B1BF0ADFDD4F8FA
:105D200068343EE79FED2A6B37EE067B06ED027B7B
:105D30006DE794F88334002B3BD00E213A4804F5EC
:105D40008E651EF0BFFBD4F878142E481BF048FD7A
:105D500095ED000B9FED267B20EE070B63E72F48A8
:105D6000264C1EF0AFFB0221264895ED000B1BF0E0
:105D700083FDB6EE007B94ED006B95ED000B36EEE7
:105D8000475BB4EEC50BF1EE10FA07D936EE077B90
:105D9000B4EEC70BF1EE10FAFFF650AF23491948E5
:105DA0008DED000B53EC162B1BF042FD95ED000B17
:105DB00044E7022117481EF085FBBEE7AFF30080E1
:105DC0002D431CEBE2361A3F0000000000208C40FF
:105DD0007B14AE47E17A843F000000000020AC4015
:105DE0009A9999999999B93FF8C1631ADCA54CC061
:105DF000CDCCCCCCCCCCEC3FB0DE0120E08001207F
:105E000080270020E03501201C2900209427002055
:105E1000A8270020CC4200206C270020245300201B
:105E2000D34D6210CDCCCCCCBC270020CC27002099
:105E300070B5044686B01CF021FAD4F80834A56881
:105E4000C01A072DC4F88C046FD03C2D40F0D180CF
:105E5000E07FA27F617F42EA002294F8235094F809
:105E6000330094F8223041EA022194F8322043EAC8
:105E7000052394F8315042EA002294F8570094F830
:105E800055E045EA022594F8562094F82AC042EAE3
:105E9000002294F82F004EEA022E94F82B204CEAB0
:105EA000022C94F82E2042EA002294F8540040EA92
:105EB0000E20059094F8300040EA0520029094F8F6
:105EC000270094F8265045EA002594F8290040EA76
:105ED0000C2094F82DC04CEA022C94F83B2004923C
:105EE00094F83A20039294F8212042EA032294F88D
:105EF000253043EA052394F8245045EA032394F817
:105F0000205045EA0222257F45EA012194F82C50D1
:105F100045EA0C25019594F8285045EA00252046CD
:105F20000095FFF7D1FD06B070BD94F8333094F8BA
:105F3000320094F8312040EA032094F8303094F88D
:105F4000375042EA002294F8361094F8830443EA6A
:105F5000022394F83B2041EA0521E57E06EE103A43
:105F600094F83A3043EA022394F83520B8EEC66B31
:105F700042EA012294F8391041EA032194F83430BE
:105F800043EA022304F58C6205EE103A94F83830A7
:105F90009FED377BB8EEC55B43EA0123A17E26EE79
:105FA000076B41EA0521384D25EE075B07EE103AF5
:105FB000637EB8EEC77B43EA0123217E9FED2E4B23
:105FC00041EA032694F82F3027EE047B84F84C3402
:105FD00004F58A6383ED005B02ED026B82ED007BCA
:105FE000F0B92A682B68C4F80424C4F8943406B0C5
:105FF00070BD112125481EF065FA00231022E9B278
:1060000023481BF023FC052122481EF05BFA0023E5
:10601000102221791E4806B0BDE870401BF016BC66
:1060200002211D481EF04EFA296800230A22184852
:106030001BF00CFC0C2119481EF044FAD4F804346F
:1060400029680A221248C91A00231BF0FFFB01210C
:1060500013481EF037FA07EE906A02210C48B8EE9A
:10606000677B9FED070B87EE000B1BF005FCB8E785
:1060700048AFBC9AF2D77A3EFCA9F1D24D62503FAC
:106080000000000000408F40B0DE012050270020BB
:10609000E035012064270020CC420020402700206A
:1060A00024530020B52970B50D4604462BD0622933
:1060B00018D02378022B07D0033B052B11D8DFE83B
:1060C00003F081869B5B724C237C0321627C6560BC
:1060D0002B442170DBB21A44237494F88334627425
:1060E0007BBB70BD0378012BE4D10221002290F824
:1060F000833401700282002BF3D005216948BDE88A
:1061000070401EF0DFB94369002BD2DA012303701F
:106110001CF0B4F894F88334C4F80804002BE0D0E1
:10612000022161481EF0CEF9604900230A22096865
:106130005F481BF08BFB09215E48BDE870401EF0F4
:10614000C1B903215C481EF0BDF929460023102285
:106150005748BDE870401BF079BB637CAB4265D10A
:1061600094F88334002B40F097802046FFF760FEC0
:106170004FF0FF33636170BD237CEAB2617C13444E
:10618000DBB21944237463696174E11801330A7640
:1061900094F883246361002A74D1E2689A42A0D102
:1061A0000723237070BD237CAB4255D1082294F89D
:1061B00083342270002B94D040493D48BDE87040A4
:1061C000FCF7F2BB237C0421627CA56080E7237C82
:1061D0000520627C2B4494F88314E560DBB22070C8
:1061E0001A442374627400293FF47BAF3449304869
:1061F000BDE87040FCF7D8BB237C0620E1682B4447
:10620000627C01EB05212070DBB20020E1601A44C2
:1062100094F8831460612374627400293FF461AFC1
:1062200028492348BDE87040FCF7BEBB00254FF06D
:10623000FF3302211C48636125701EF043F91B499E
:106240002B460A2209681A481BF000FB10211E4841
:10625000BDE870401EF036B900254FF0FF33022133
:106260001148636125701EF02DF910492B460A2252
:1062700009680F481BF0EAFA10211448BDE8704085
:106280001EF020B90A481249FCF78EFB294608483F
:106290001BF0A6FA636980E70E490548FCF784FB0A
:1062A00063E700BF24280020CC420020B0DE01209C
:1062B000E0350120182800202C2800203828002054
:1062C0003028002034280020542800203C280020BA
:1062D00024530020502800209FED9D7B90ED042B3F
:1062E0009FED9D3B9FED9E1B22EE072B90ED164BE5
:1062F00090ED0E5B22EE032B24EE014B25EE075BA7
:1063000090ED086B10B532EE067B044680ED0A4B2B
:1063100037EE447B80ED0E5BB5EEC07B80ED042B49
:10632000F1EE10FA03D59FED904B37EE047B9FED15
:10633000904BB4EEC47BF1EE10FAC0F2F7809FED03
:106340008E4BB4EEC47BF1EE10FA00F2EF80B1EEAA
:10635000477B9FED854BB4EEC47BF1EE10FAC8BFCE
:1063600037EE447B9FED864B84ED067BB4EEC47B19
:10637000F1EE10FA05D59FED7C4B37EE047B84EDF2
:10638000067BB0EEC74B9FED803BB4EEC34BF1EE06
:1063900010FA40F1D7809FED6E3BA7EE036B9FEDA7
:1063A000724B9FED777BB4EEC46BF1EE10FAC8BF71
:1063B00036EE446BB4EEC76B84ED086BF1EE10FA69
:1063C00005D59FED697B36EE076B84ED086BB7EE64
:1063D000C55B32EE067B94ED124BB7EEC55A9FEDCE
:1063E0006C1B34EE454B9FED602B24EE016BB4EE3D
:1063F000C27B94ED023B9FED680BF1EE10FAA3EE29
:10640000006BC8BF37EE427B84ED004BB5EEC07B1E
:10641000F1EE10FA84ED026B03D59FED536B37EE6E
:10642000067B0C2162489FED5E6B27EE067B84EDB8
:106430000C7B1EF047F85F481BF0DEF909215E482F
:106440001EF040F802215B4894ED160B1BF014FA85
:1064500058481BF0D1F90A2158481EF033F80221A0
:10646000544894ED120B1BF007FA52481BF0C4F984
:106470000C2153481EF026F84E481BF0BDF913219D
:1064800050481EF01FF802214A4894ED040B1BF0FF
:10649000F3F948481BF0B0F906214B481EF012F8FA
:1064A0000221444894ED0E0B1BF0E6F941481BF025
:1064B000A3F90F2145481EF005F83E481BF09CF952
:1064C0000F2143481DF0FEFF02213A4894ED080BCE
:1064D0001BF0D2F937481BF08FF90B213D481DF016
:1064E000F1FF0221334894ED000B1BF0C5F9314850
:1064F0001BF082F9112138481DF0E4FF02212D48DC
:1065000094ED020B1BF0B8F92A481BF075F90E2127
:1065100032481DF0D7FF0221264894ED0C0B1BF0EA
:10652000ABF92448BDE810401BF066B99FED124B53
:10653000B4EEC47B9FED0C4BF1EE10FA05DD34EEAA
:10654000477B06E79FED183B27E737EE047BFEE627
:106550009A9999999999B93F399D52A246DF91BF6D
:10656000399D52A246DF913F182D4454FB2119401A
:10657000182D4454FB21F9BF182D4454FB21F93F39
:10658000182D4454FB2119C00AD7A3703D0AC73FF8
:10659000333333333333D33F666666666666E63F2E
:1065A000F8C1631ADCA54C409A9999999999C93F09
:1065B000502C0020E0350120602C00206C2C0020A5
:1065C000782C0020882C00209C2C0020A42C00205B
:1065D000B42C0020C42C0020D02C0020E42C00205F
:1065E0002DE9F047844C84B01BF048FE012394F859
:1065F0009850824EC5F1960570609D42337300F34A
:10660000B180002D00F39F807D4B012293F881140F
:1066100083F8802409B983F884240122794F7A4CC5
:1066200083F881243A68C3F8902494F86030002BF2
:1066300036D176481EF0EEFC754D94F8603085ED4D
:10664000000B002B68D1734B93F83030042B00F013
:10665000C680714A403595ED000B9FED637B137842
:1066600020EE070B85ED000B002B5ED00A220023E5
:1066700039686A481BF0EAF8694968481BF0D8F89D
:1066800001A821F07DFB01AB023818441EF0C6FCC6
:10669000014662481BF0A4F860481BF0ADF844E0E6
:1066A00060481EF0BBFC07EE900A5F4BB8EEE77B3C
:1066B0005E4D5F4829469FED4E6B27EE067BBDEE93
:1066C000C77B17EE102A9A5CFCF756F959481EF062
:1066D000A1FC4E4884ED120B1EF09CFCB5F9003075
:1066E000204606EE103AB5F9023007EE103AB8EE41
:1066F000C66BB8EEC77B84ED160B84ED046B84ED9E
:106700000E7BFFF7E9FD94F86030002B91D0404BF1
:10671000D4E90C01C3E9000194ED020B464D3E4A59
:10672000137885ED000B002BA0D11BF0A7FD337B68
:1067300023B1D6E900329B1A03443360002333733C
:1067400004B0BDE8F08794F89550002394F89610B3
:1067500001A82544013121446C786B7021F02EFA98
:106760006C7051E794F894704FF0000994F895100C
:106770002744DFF89880194497F801A04046214447
:1067800087F8019021F01AFA022D87F801A0DAD0DB
:1067900094F8937008F1080094F89410274401319C
:1067A00097F801A0214487F8019021F007FA042D01
:1067B00087F801A0C7DD94F8915094F89200254421
:1067C00001306F78204485F801901EF027FC6F702F
:1067D00094F89850C8F81000C5F1960511E71548CF
:1067E00040351EF017FC9AE7CDCCCCCCCCCCEC3F9E
:1067F0009A9999999999B93F24DC0120FCCF0120FD
:10680000F8810120B0DE0120F0800120A08C012061
:10681000288601200889012044E60120E035012076
:10682000801700204CDA01203427002038D90120BD
:10683000C8D80120A88C0120688601200B484FF0A1
:10684000FF0C01210F22037880F80DC0437190F8EE
:1068500001C08372837801724FF4967180F806C08C
:1068600080F80BC0C37103731BF0A2BF284901203D
:1068700070B501201BF0F2FD04460220E4B21BF0CB
:10688000EDFD40F6641360F30F24A4B29C421C4C4F
:1068900025D0022201211B4804F10F05C4F596768C
:1068A0001BF086FF0F224FF4967117481BF080FFF4
:1068B000A0191BF0D3FD04F8010BAC42F8D12A213A
:1068C00012481DF0FFFD4FF4C87111480D221BF056
:1068D0006FFF23210F48BDE870401DF0F3BD04F1A8
:1068E0000F05C4F59676A0191BF0B8FD04F8010B4E
:1068F000AC42F8D122210848BDE870401DF0E2BD4D
:1069000028490120AC340120082300202C2100203C
:10691000D4430120582100207C210020D0E900210F
:10692000C3681268096810B41942846802EA040254
:1069300034D0037C03F003030ABB43F008039A0836
:10694000013B02740D2B0ED8DFE803F0100722077D
:106950000D1C10101C0D072207104269037E013A1E
:106960000133426103765DF8044B70474269037E50
:1069700001325DF8044B013342610376704743F006
:106980000403DAE743695DF8044BC83B4361704791
:1069900043695DF8044BC83343617047037C03F0DF
:1069A0000303002ACBD043F00403C8E70B4610B51D
:1069B000362800F29782DFE810F08C02820279021A
:1069C000700267025E0255024C0243023A02310233
:1069D00028021F02BF01B601AD01A4019B01920173
:1069E0008901800177016E0165015C0153014A0153
:1069F000410138012F0126011D0113010901FF008A
:106A0000F500EB00E100D700CD00C300B900AF00F6
:106A1000A5009B00910087007D00730069005F0066
:106A200055004B0041003700C84C0422C8493620AD
:106A3000C4F8D8301BF0CEFE012010BDC34C042298
:106A4000C4493520C4F8D4301BF0C4FE012010BD69
:106A5000BE4C0422C0493420C4F8D0301BF0BAFE2A
:106A6000012010BDB94C0422BC493320C4F8CC30FD
:106A70001BF0B0FE012010BDB44C0422B8493220F6
:106A8000C4F8C8301BF0A6FE012010BDAF4C042294
:106A9000B4493120C4F8C4301BF09CFE012010BD65
:106AA000AA4C0422B0493020C4F8C0301BF092FE3A
:106AB000012010BDA54C0422AC492F20C4F8BC30E5
:106AC0001BF088FE012010BDA04C0422A8492E20F6
:106AD000C4F8B8301BF07EFE012010BD9B4C042290
:106AE000A4492D20C4F8B4301BF074FE012010BD61
:106AF000964C0422A0492C20C4F8B0301BF06AFE4A
:106B0000012010BD914C04229C492B20C4F8AC30CC
:106B10001BF060FE012010BD8C4C042298492A20F5
:106B2000C4F8A8301BF056FE012010BD874C04228B
:106B300094492920C4F8A4301BF04CFE012010BD5C
:106B4000824C042290492820C4F8A0301BF042FE59
:106B5000012010BD7D4C04228C492720C4F89C30B4
:106B60001BF038FE012010BD784C042288492620F5
:106B7000C4F898301BF02EFE012010BD734C042287
:106B800084492520C4F894301BF024FE012010BD58
:106B90006E4C042280492420C4F890301BF01AFE69
:106BA000012010BD694C04227C492320C4F88C309C
:106BB0001BF010FE012010BD644C042278492220F5
:106BC000C4F888301BF006FE012010BD5F4C042283
:106BD00074492120C4F884301BF0FCFD012010BD55
:106BE0005A4C042270492020C4F880301BF0F2FD7A
:106BF000012010BD554C04226C491F20E3671BF097
:106C0000E9FD012010BD514C042269491E20A367F3
:106C10001BF0E0FD012010BD4C4C042265491D20F5
:106C200063671BF0D7FD012010BD484C0422624968
:106C30001C2023671BF0CEFD012010BD434C042215
