:0200000460009A
:100000004643464200000156000000000103030081
:1000100000000000000000000000000000000000E0
:1000200000000000000000000000000000000000D0
:1000300000000000000000000000000000000000C0
:1000400000000000010408000000000000000000A3
:100050000000800000000000000000000000000020
:100060000000000000000000000000000000000090
:100070000000000000000000000000000000000080
:10008000EB04180A063204260000000000000000FD
:10009000050404240000000000000000000000002F
:1000A0000000000000000000000000000000000050
:1000B0000604000000000000000000000000000036
:1000C0000000000000000000000000000000000030
:1000D00020041808000000000000000000000000DC
:1000E0000000000000000000000000000000000010
:1000F0000000000000000000000000000000000000
:10010000D8041808000000000000000000000000F3
:100110000204180804200000000000000000000095
:1001200000000000000000000000000000000000CF
:10013000600400000000000000000000000000005B
:1001400000000000000000000000000000000000AF
:10015000000000000000000000000000000000009F
:10016000000000000000000000000000000000008F
:10017000000000000000000000000000000000007F
:10018000000000000000000000000000000000006F
:10019000000000000000000000000000000000005F
:1001A000000000000000000000000000000000004F
:1001B000000000000000000000000000000000003F
:1001C000000100000010000001000000000000001D
:1001D000000001000000000000000000000000001E
:1001E000000000000000000000000000000000000F
:1001F00000000000000000000000000000000000FF
:10020000FFFFFFFFFFFFFFFFFFFFFFFFFFFFFFFFFE
:10021000FFFFFFFFFFFFFFFFFFFFFFFFFFFFFFFFEE
:10100000D10020434D1600600000000000000000E9
:101010002010006000100060001C04600000000050
:10102000000000600028040000000000FFFFFFFF38
:10103000FFFFFFFFFFFFFFFFFFFFFFFFFFFFFFFFC0
:10104000FFFFFFFFFFFFFFFFFFFFFFFFFFFFFFFFB0
:10105000FFFFFFFFFFFFFFFFFFFFFFFFFFFFFFFFA0
:10106000FFFFFFFFFFFFFFFFFFFFFFFFFFFFFFFF90
:10140000814205D051F8043B40F8043B8242F9D8B0
:10141000704700BF044A05494FF0000342F8043BFF
:101420009142FBD8704700BFC04A0120A0DA0120DA
:101430002DE98848BFF34F8F00BF00BF00BF00BF3A
:1014400000F000FA684B0822C3F8542100BF00BF27
:1014500000BF00BF00BF00BF00BF00BF00BF00BF94
:1014600000BF00BF00BF00BF00BF00BF5F4A6049B0
:101470006048FFF7C5FF604A60496148FFF7C0FF59
:10148000604CFFF7C7FF4FF470004FF0E0210023DE
:101490005D4AC1F8880D44F823200133B02BFAD1FE
:1014A0005A4B80215A4A03F8011B9342FBD14FF05B
:1014B000E0254D4E4FF08039DFF884B1DFF884A18C
:1014C0004FF0FF31C5F8084D0027C6F80491C6F863
:1014D00000B1C6F8F490C6F8F0A0D5F8243DDFF8C6
:1014E000688143F4E0234B4AC5F8243DD8F81C300A
:1014F00023F07F0343F04003C8F81C30D8F82430B1
:1015000023F07F0343F04003C8F824309166D1668E
:101510001167516700F09EF93F4B4049A363404B70
:10152000E36363236B610323AF612B613D4BC5F81C
:10153000203DD5F8FC3D43F08073C5F8FC3D3A4BA7
:101540001A6842F001021A605B680B6000F0CCFB85
:10155000C6F804913548C6F800B1C6F8F490C6F84C
:10156000F0A000F041FDD8F86C10314B314A41F445
:101570004051C8F86C101F60C3F80871C3F81871A7
:10158000C3F82871C3F83871936BDB0708D442F6AF
:101590001563294951651365936B43F00103936308
:1015A000244A264C936843F00113936000F0DAF963
:1015B00000F01EF900F008FD00F0C4FB00F044F953
:1015C0002368132BFCD900F055FC2368B3F5967FF4
:1015D000FBD300F03DF900F039F900F0F9FC00F020
:1015E000EFFC30BFFDE700BF00800D4058AD0200AA
:1015F0000022006000000000C04A01205CCF0260B1
:101600000000002000480120C901020000E400E0C1
:10161000A0E400E000C00A40E9150200E8D901207A
:10162000ED15020000002020001000E00046C3235A
:101630000040084000400D400000C056ECD9012099
:101640001B1018200C0D111300C00F40054B4FF458
:101650002A01054A05485A641864054A9963954663
:10166000FFF7E6FE00C00A40FFAFAAAA070020006D
:101670000000052043690A4A03EB011010B4037A05
:10168000084C02EB0313D3E901321460C2681A60FC
:1016900003690BB142691A605DF8044B704700BFE3
:1016A000B431002061F801004369027E03EB0212AD
:1016B00092F808C08C451CD01A7AFF2A19D09142A2
:1016C00010B5044616D01A7EFF2A06D00121D3E9B0
:1016D000002312681A4201D1217610BD064B052263
:1016E000204603EB0C135B681A60FFF7C3FF2176FB
:1016F000F3E770470021EAE7B431002043690A4A62
:1017000003EB011010B490F82830084C02EB0313DF
:10171000D3E901321460C26A1A60036B0BB1426BE9
:101720001A605DF8044B7047B431002061F8010085
:101730004369427E03EB021292F828C08C451ED00A
:1017400093F82820FF2A1AD0914210B5044617D0EA
:1017500093F83820FF2A06D00121D3E9002312682C
:101760001A4201D1617610BD064B0522204603EBDB
:101770000C135B681A60FFF7C1FF6176F3E77047EF
:101780000021EAE7B4310020164942698B6B23F44B
:101790007C0343F4802370B58B630446124DD2E979
:1017A00000130A681A4303690A60022200211A61C1
:1017B0000E4A19619A6401225A629D624FF43035D3
:1017C000DD624FF001159E6C1E6519629D651A6100
:1017D000017EFFF74FFF617E2046BDE87040FFF7B6
:1017E0008DBF00BF00C00F40B80B05053B3728195F
:1017F000104BA020104AD96E41F4403110B4D96684
:1018000040F23764D96E41F44071D96654649064F3
:10181000936C1B06FCD4094A40F23761A023516443
:101820009364936C13F08003FBD1054A13705DF849
:10183000044B704700C00F4000400C4000800C403B
:101840004CDA0120704700BF704700BF704700BFEF
:1018500000BF704710B44FF0E0230021102431483E
:10186000C3F8941DC3F89C4D1124C3F8A00D2E4855
:10187000C3F89C4D1224C3F8A00D2C48C3F89C4D0E
:101880002B4AC3F8A00D2B4C42F015022A48C3F88E
:101890009C4DC3F8A00D294C2948C3F89C4DC3F8B2
:1018A000A00D284CC3F89C2D2748284AC3F8A04D0A
:1018B000C3F89C0DC3F8A02D02F5A022244C0C32D5
:1018C0002448C3F89C4DC3F8A02D234AC3F89C0DAF
:1018D000224CC3F8A02D02F14062C3F89C4D204871
:1018E000C3F8A02D0C32C3F89C0DC3F8A02D00BF87
:1018F00000BF00BF00BF00BF0122C3F8942DBFF39B
:101900004F8FBFF36F8FC3F8501FBFF34F8FBFF3DD
:101910006F8FD3F8142D5DF8044B42F44032C3F8B6
:10192000142D70473F000010250008070900100023
:10193000A0DA01201300200021000207140000207B
:1019400025000813090000101600202027000B13A3
:1019500017000040180000602F000B0719000070EE
:101960001A000080F0B5B84B1822B84E0120B84FCD
:1019700083B0C3F85C62B749C3F86072B64DC3F870
:101980006462A6F53046B54CC3F86862C3F86C5281
:10199000C3F87052C3F87452C3F8785248F20C7509
:1019A000DA661A675A679A67DA67C3F88020C3F85D
:1019B0008420C3F88820C1F82C03A94AC1F8300359
:1019C000C1F83403C1F83803C1F83C03C1F850032F
:1019D000A169A44B0A40A448A4491343A44AA361A3
:1019E000D4F8843043F00C03C4F884304FF0FF3453
:1019F000036843F00203036003682B404FF4005573
:101A00001A439C4B026044608A689B4C13409B4A7B
:101A100043F000538360C36823F07803C360036A14
:101A2000134023430362036A1340954A2343954CB2
:101A300043628262C2620022D1F8B83023F03F03D1
:101A400043F00103C0F8B830D1F8BC308E4923F020
:101A50003F0343F00103C0F8BC3040F2056302616C
:101A600005660467C0F88030456644670224C0F804
:101A70008430036823F0020303608161834B84494F
:101A8000C46143F8042B8B42FBD1774A136843F0BF
:101A900001031360136813F00103FBD17A4802219C
:101AA00040F2F564906140F29940D16140F26641A4
:101AB000C2F8004242F20144C2F810127549C2F85D
:101AC0002002C2F8301240F235417348C2F8344265
:101AD000C2F84012714CC2F8500242F20120704923
:101AE000C2F854120121C2F86042C2F864025E4892
:101AF000C2F8A030C2F8A430C2F8B0104369DA07C7
:101B0000FCD5012300244FF4803257494361C0F8CB
:101B1000A040C0F8A420C0F8B0304B69DB07FCD56A
:101B2000012300244FF400304F4A4B61C1F8A0401C
:101B3000C1F8A400C1F8B0305369DF07FCD5012318
:101B40000024584848495361C2F8A040C2F8A40094
:101B5000C2F8B0304B69DE07FCD5D1F8003145F64C
:101B60000D5221209BB24861934265D100244FF46D
:101B7000802201233C48C1F8A040C1F8A420C1F84C
:101B8000B0304369DD07FCD501234FF40004002188
:101B9000354A4361C0F8A040C0F8A410C0F8B03086
:101BA0005369DC07FCD501234FF400044FF4803067
:101BB0002D495361C2F8A040C2F8A400C2F8B03069
:101BC0004B69D807FCD501234FF400044FF40030D3
:101BD000254A4B61C1F8A040C1F8A400C1F8B0305B
:101BE0005369D907FCD501234FF400042D481E4941
:101BF0005361C2F8A040C2F8A400C2F8B0304B69EB
:101C0000DA07FCD5D1F8003145F60D5221209BB200
:101C10004861934250D008254FF400042249002027
:101C2000224B234A009015705A1A0123214822445E
:101C300000F0D2F903B0F0BD1E4B0022C3E9002230
:101C4000C3E9022203B0F0BD00801F40F9B00100DB
:101C5000F910010000841F40F970010000C00F401E
:101C6000FFFCFF1F000300A000402A4000802A4024
:101C70001200FFFFFF37F7004000008000FFF07CFC
:101C8000FF000F8363000200F05AF05A00422A401E
:101C900000432A409F041830EB06180A3806180A39
:101CA00006320126040003000000007000000070EE
:101CB0004DDA0120A0D501204FF400044FF480221A
:101CC00001230848C1F8A040C1F8A420C1F8B030F1
:101CD0004369DB07FCD5012310254FF08074436175
:101CE0009CE700BF00402A40F0B4154A40274FF45B
:101CF00080314FF480564FF400554FF4404443F286
:101D00004200136913F0020F0ED113F4005F0FD0DD
:101D100013F4805F0ED0002BF3DA13F4803F0BD165
:101D20005B060BD5F0BC7047946151619061E8E7A8
:101D30005561E6E75661E4E79161E2E75761E0E764
:101D400000800D403F4A03203F49F3EE095AD2F884
:101D500080304FF0000C9FED3D6A23F001039FEDB2
:101D60003C5A30B4C2F88030C2F89000D1F8E0108C
:101D7000384DCBB2384C39482B6007EE903A0B0DFA
:101D8000C1F30B21F8EEE77A06EE903A07EE101A4F
:101D9000334BB8EEC77A2160F8EEE66A314937EE88
:101DA000C66A37EEC55A76EEC76A77EEE57A26EE52
:101DB000266AC3ED006A25EE265AD2F8803067EE17
:101DC000A64AC0ED007AC6EE275A274885EE276A54
:101DD000C4EEA76A75EE875AFCEEE55A36EE076A3E
:101DE00015EE904ABCEEC66A43EA045376EE877A53
:101DF000C2F8803016EE103AD2F89041FCEEE77A45
:101E000001EA0341214317EE903AC2F89011C3F35F
:101E10000B03D2F890110B431449C2F89031D2F859
:101E2000803043F00203C2F88030114B80F840C08C
:101E3000C1F840314FF0E023012230BCC3F8082143
:101E4000704700BF00810D4000441F400000AA42BF
:101E50000000B4420CD9012008D9012010D901207A
:101E60001CD901200000FF0F00E400E00048012021
:101E7000B1030200314B40F6617210B5C3F8202166
:101E800040F2044400F0B8F82D4A2E49D2F88030D0
:101E90002D4843F00303C2F880302C4BC1F8604159
:101EA00002681A4203D1D1F8A8319A071BD0254AFB
:101EB0004FF00041244B5963D2F8403143F0020304
:101EC000C2F84031D2F840319B07FBD44FF40030C8
:101ED0004FF0E0211C4B4FF00042C1F88C0219205A
:101EE0009A6300F07DF8184A4FF08040154C0021AD
:101EF00090630A20164B11604FF42072C4F8A801B9
:101F0000184600F075F84FF4800203464FF4810044
:101F100040F243111860C4F858311A640D4B0E4A50
:101F2000C4F84811C3F804224FF0E0224FF4003106
:101F30000123C2F80C11C4F8403110BD00800D40DF
:101F400000C00F4000002E4000900D40001C1E00FD
:101F500000000020004801209905020008B50E4B42
:101F60001B6E9B0700D4FBBE72B60C4B00200C4AC4
:101F7000C3F8400103F160430A49A3F55F231164EC
:101F80009D46BFF34F8F4FF400130748074ADB69A4
:101F900002609B68984700BF00441F4000002E402D
:101FA00000C00A400300200000802020000012EB47
:101FB000F8B500BFF8BC08BC9E46704700000000A2
:101FC0005FF800F0E5F701005FF800F0D5000200CF
:101FD0005FF800F0394A02005FF800F07D16020059
:101FE0005FF800F0E1F001005FF800F0F1ED0100B2
:101FF0005FF800F0313E02005FF800F0090D0200CA
:0820000069040000459B00008B
:1020080080C00F400000000319000000100000000D
:10201800E8841F4001000000FF000000FF000000EE
:102028000000000000000000180000001000000080
:10203800E4841F4001000000FF000000FF000000D2
:1020480000000000000000001F000000CDBB0000E1
:1020580070C00F40000C00001100000011000000CB
:10206800E0841F40020000002C0000001200000065
:10207800E0841F4001000000100000001100000073
:10208800DC841F40020000002D0000001200000048
:10209800DC841F40010000001E000000C1BB0000DE
:1020A80070C00F40C00000001200000013000000C4
:1020B800D0841F4001000000FF000000FF00000066
:1020C80000000000000000001300000013000000E2
:1020D800CC841F4001000000FF000000FF0000004A
:1020E80000000000000000001C000000B5BB00005C
:1020F800160355005300420020005300650072008B
:10210800690061006C000000180354006500650058
:102118006E00730079006400750069006E006F003E
:102128000403090409026200030100C032080B001D
:102138000202020100090400000102020100052454
:1021480000100105240101010424020605240600EB
:10215800010705820310001009040100020A0000AB
:10216800000705030240000007058402400000093B
:1021780004020002FF6AFF00070581024000010710
:10218800050102400001000009026200030100C0CD
:1021980032080B00020202010009040000010202D9
:1021A8000100052400100105240101010424020690
:1021B8000524060001070582031000050904010033
:1021C800020A000000070503020002000705840256
:1021D8000002000904020002FF6AC7000705810225
:1021E8000002010705010200020100000A060002C0
:0821F800EF02014001000000AC
:1022000000000000000000000000000000000000CE
:1022100000000000000000000000000000000000BE
:102220000A49D1E900231344824298BF984234BF3F
:102230000123002308D28B68801AB0FBF3F203FB62
:102240001200B0FA80F35B0918467047F84201208B
:102250000346024A00201A60704700BF5C3D01201F
:102260000120704701231A46013B002AFBD1704729
:10227000064908B5D1F8E0309A0705D4FFF7F2FF18
:10228000D1F8E0309B07F9D508BD00BF00802A4097
:1022900070B5054608460E46FFF7C2FF38B34FF447
:1022A00000121C4B2946D0691A6800699B68B21A53
:1022B00004690020A047184BB0FA80F405461B685B
:1022C0006409022B01DC204670BD41F245721349BE
:1022D000134B032012F0BCFB124B134A3146134838
:1022E000002D08BF1A4613F02BF9204670BD0A4B8B
:1022F00004461B68002BE6DD094B41F23D7207499D
:10230000012012F0A5FB3146094813F019F92046C7
:1023100070BD00BFF8420120044201205C61002032
:10232000882A00208059002084590020AC590020C0
:102330008C5900202DE9F04F2DED028BADF5077D76
:10234000044600AF07F11803F9607A607B6172B64A
:1023500007F11400FFF77CFF002847D16F4E7A6821
:10236000F368B2FBF3F503FB1525002D4CD1336860
:10237000A34200F2A780FB687A689A189342BA6079
:1023800080F0BA801D461FE03368FA68A4EB0309A9
:1023900093424BD94FF4001341464A46D8692B4625
:1023A0000069D0F808800020C047F368B0FA80FACE
:1023B0001D444FEA5A1A1C44BB68AB4294BF002329
:1023C0000AF00103002B61D02046FFF729FFD7F860
:1023D00014800028D8D021464046FFF759FF824696
:1023E0000028D1D14E4B1B68022B7CDC4FF0000A39
:1023F0004C4B1B7803B962B6504607F50777BD46CC
:10240000BDEC028BBDE8F08F454B1B68002BEDDD6A
:10241000454B41F2627245498246012012F018FB99
:10242000F2687968424813F08BF8E1E76B46F06890
:1024300008EE103A20F00303800803F1070323F0AD
:102440000703ADEB030D6B4607EE903A0ED005EB9C
:102450008000A5F1040BA3F1040A0438FFF708FF7C
:102460005BF8043F58454AF8043FF7D14FF4001099
:1024700017EE903A41464A46C0690069D0F8088094
:102480000020C04718EE103A9D468EE7244B804648
:102490001B68022BACDD244B41F28C7223490320D4
:1024A00012F0D6FAB8F1000F224A234B12BF4FF0B8
:1024B000000A4FF0010A1346224679681F4813F0BC
:1024C0003FF895E7164B1B68002B8FDD164B41F24A
:1024D00066720120154912F0BBFA21461848AA4637
:1024E00013F02EF884E7104B41F28C720F49032051
:1024F00012F0AEFA104BDFE7094B1B68022B02DC2F
:102500004FF0010A74E7084B41F28C72074903202F
:1025100012F09EFA4FF0010A064BCDE7F842012077
:102520000442012062DA0120942A00205C6100202C
:10253000D059002080590020845900200C5A0020D6
:10254000EC590020B2B12DE9F041074688461D46FE
:102550001646002408EB040138192C442A46FFF7DC
:10256000E9FEA642F6D84FF0E023054AC3F80C2D49
:10257000BDE8F0814FF0E023014AC3F80C2D70470D
:102580000400FA05F8B54FF084439D695A69154077
:102590000DD0254F01269D6195FAA5F4B4FA84F477
:1025A00057F8243006FA04F49847A543F4D11F4B9A
:1025B0009D695A6915400DD01D4F01269D6195FA00
:1025C000A5F4B4FA84F457F8243006FA04F49847D2
:1025D000A543F4D1174B9D695A6915400DD0164F8C
:1025E00001269D6195FAA5F4B4FA84F457F82430D5
:1025F00006FA04F49847A543F4D1104B9D695A6933
:1026000015400DD00E4F01269D6195FAA5F4B4FA40
:1026100084F457F8243006FA04F49847A543F4D11B
:10262000BFF34F8FF8BD00BF803F01200040004244
:1026300000400120008000428040012000C0004294
:10264000004101200548064B1B1AD90F01EBA301DD
:10265000491002D0034B03B118477047C04A01200C
:10266000C04A01200000000008B5054B1BB1054918
:102670000548AFF30080BDE80840FFF7E3BF00BFA7
:102680000000000054D8012000280460704700BFFB
:10269000704700BF704700BF00207047034B1868A9
:1026A00010B103681B681847704700BF4CD0012069
:1026B0004FF0E023014AC3F80C2D70470400FA05DF
:1026C000002070472DE9F04100F5804090B0574C54
:1026D0009646574B0094C0F860121B6A5548C3F3E6
:1026E00001230468403304F080746B4413F8406C99
:1026F000514B03FB06F60368B6FBF1F2B6FBF2F5AD
:1027000043F0A0434D1B03600368DF01FCD5052A9D
:102710004FF0000C2AD96046831C0130B2FBF3F75E
:10272000192F07FB03F3F7D84FF00108B6FBF3F3BB
:10273000CB1A002BB8BF5B42AB420BDBA7F10C03FB
:1027400018BF4FF00008062B0AD8B8F1000F07D0C9
:102750008446E1E71D46A7F10C038446062BF4D915
:10276000052FD9D80CF10103B2FBF3F2B5F5967F32
:10277000A2F105024CDC142A4AD802EB42022F4F88
:102780006E46DFF8B08002F14003BEF1020F0DEBA0
:1027900003050FCF0FC60FCF0FC60FCF0FC697E899
:1027A0000F0007C626F8023B4FEA1343337015F8B3
:1027B0003F3C15F83E2C4FEAC34315F8401C4FEA46
:1027C000024203F4601301F0070102F4E02243EA3D
:1027D000020343EA010343F4800343EA0C6343F436
:1027E0008043C8F80430D8F8043014BF23F008033D
:1027F00043F00803C8F804303CB90E4A136823F0CC
:10280000805313601368DB01FCD410B0BDE8F08185
:10281000002CFAD1074A136823F080531360136821
:10282000D901FCD410B0BDE8F08100BF3C185000C5
:1028300000C00F4000801D4040420F0048060020AD
:102840000020704700207047082070470346104A58
:10285000102110B590B0DC78029407A89C78019400
:102860005C78009405AC1B7812F08CF8002307A963
:1028700020460F93CDE90B33CDE90D3316F078F8F0
:102880000BAA94E8030017F0B1F90B9810B010BD33
:102890009822002010B5002184B0064C4FF4FA7243
:1028A000002300910448CDE9014111F0BDFF04B0BF
:1028B00010BD00BFB1040000B0D5012010490B6865
:1028C000486B0A68496B02F07F02C1F30361013271
:1028D0000431B2EB410F10D303F07F03C0F3036068
:1028E000053B0130A3EB4003DBB2054A106800F062
:1028F0007F000130C01AC0B270470023F5E700BF67
:1029000000801D4030B585B086460DF1040C8CE882
:102910000E0090F86E5090F86F402B190A2B01D9D9
:102920000B3B9BB2DAB263460B2C02EB820203CB69
:102930000EEB420C1B884EF81200CCF80410ACF8D9
:10294000083004D001348EF86F4005B030BD013539
:10295000EDB20B2D03D08EF86E5005B030BD0023C4
:102960008EF86E3005B030BD90F86F3093B1934261
:1029700010D390F86E301A440A2A88BF0B3A02EB43
:10298000820200EB420350F812005A6808604A6065
:102990001B890B81704700BF69B170B505460846B9
:1029A0000C4624F0CDF92B680246214628465B6888
:1029B000BDE8704018477047F8B5064600F11605A7
:1029C00000F12207EC1E14F8011F012300223046FB
:1029D0000BF0A2FBAC42F6D1E51CBD42F2D1304671
:1029E000F8BD00BF2DE9F043DFF8FC8085B0074655
:1029F000444608F10F06C8F5967560191EF0B4FD3F
:102A000004F8010BB442F8D1DFF8C4904C4609F148
:102A10000D06C9F5C87560191EF0A6FD04F8010B76
:102A2000B442F8D1294D2B68022B20DC98F8002005
:102A30003C4699F80C3007F120063A6198F80120DD
:102A400098F802107A6198F80320B961FA61204978
:102A500004F8013B204624F091F81E49304624F04A
:102A60008DF82B68022B1BDC05B0BDE8F0831A4BF8
:102A70001B221A49032011F0EBFF99F80C3098F84B
:102A8000002014491648CDE9029398F803300193C9
:102A900098F80230009398F8013012F051FDC5E724
:102AA0000D4B23220D49032011F0D2FF3B78FD6925
:102AB0003146CDE90243D7E905303A69CDE9000551
:102AC000084812F03DFD05B0BDE8F0830442012046
:102AD00044D60120703F0120E01E0020F01E00209F
:102AE000081F00202C1F0020544201202DE9F84F20
:102AF000012418211F48DFF88880A3461E4EDFF806
:102B000084A01E4FDFF8809020F062FD01E018F8ED
:102B100001BF33685A46514638461D1995F838505A
:102B20002B445B7C1DF068FF31680C2238460B1982
:102B300093F8383002FB031154311DF00FFF356854
:102B40005946002205EB040C95F833300134484611
:102B50009CF838C065446D7CEB1AB3FA83F35B09CB
:102B60000BF0DAFA072CD2D10448BDE8F84F1DF07B
:102B700027BF00BF2C20002064D60120582F012041
:102B800090220020482000206CD801202DE9F0413F
:102B9000144C94F89850C5F19605002D01DCBDE861
:102BA000F08194F89560002794F8961026440E481A
:102BB000013196F801802144777023F0DFFF042D66
:102BC00086F80180EBDD94F8915094F8921025443A
:102BD000064801316E7821446F7023F0CFFF6E708C
:102BE000BDE8F0816CD70120C0CD0120CCCD012003
:102BF00008B5074B1B7803B908BD5821054820F0DC
:102C0000E7FC054B05481978BDE808401DF0CCBE2F
:102C100064DA0120541900206CD70120582F0120BC
:102C200010B5114C0A460146206814F055F998B9C0
:102C30001A210E4820F0CCFC0D481DF0C1FE1EF0FC
:102C4000A3FB0C4B1A7B22B1D3E90021521A024498
:102C50001A6000221A7310BD20680021026D4830EE
:102C600011F004F9EBE700BFB0D90120B019002042
:102C7000582F0120ACCD012038B50D4604461EF07A
:102C800083FB084A084B0121D26B586092F87C20E4
:102C90001973042A00D038BD29462046BDE83840C3
:102CA000FFF7BEBFB0D50120ACCD01202DE9F04F1C
:102CB000C3690746374C00F1200B90F8188085B0A7
:102CC00090F810A0054690F81490334E84F80280D6
:102CD00084F800A0304684F80190E37017F8013BB7
:102CE0003946337323F04AFF59462C4823F046FFF8
:102CF00001230F224FF496712372FF23204684F89C
:102D0000078084F80C80DFF8A880637384F805A03E
:102D100084F80AA084F8069084F80B901EF0CEFD8B
:102D20000D224FF4C87130461EF0C8FDD8F80030AF
:102D3000022B02DC05B0BDE8F08F194B12221949B5
:102D4000032011F085FE02972B785946164803930D
:102D5000EB690193AB690093D5E9042312F0F0FB12
:102D6000D8F80030022BE5DD0D4B13220D4903206E
:102D700011F06EFE337BE078A1782278CDE9001067
:102D8000CDE9026305496378084812F0D9FB05B024
:102D9000BDE8F08F5442012044D60120703F01204D
:102DA000501F0020F01E0020601F0020081F002080
:102DB0000442012038B5044649B108460D4623F0C7
:102DC000BFFF2368024629465B6820469847204695
:102DD000BDE838401DF0F4BD2DE9F84305460F4627
:102DE00026480421144620F0F3FB00231022E97842
:102DF00023481DF00FFE0121224820F0E9FBE9786D
:102E000000230A221E481DF005FE02211E4820F064
:102E1000DFFB34B1204623F093FF0146204620F02B
:102E2000D7FB204623F08CFFC4B2132C08D8174ED2
:102E3000013401213046E4B220F0CAFB142CF7D152
:102E40007E1E3A4612490E481DF0D6FD042E12DDB4
:102E50000424DFF84090DFF828800C4F2A5D01340D
:102E600049464046E4B21DF0C7FD0121384620F036
:102E7000AFFBB442F2DBBDE8F88300BF1C250020A5
:102E8000582F01202425002028250020084E00204E
:102E90002C25002038250020244BDA6DD2E90010C3
:102EA000D3680968006810B41842946801EA040104
:102EB00034D0137C03F0030309BB43F008039908E3
:102EC000013B11740D2B0ED8DFE803F01007220729
:102ED0000D1C10101C0D072207105169137E0139BB
:102EE0000133516113765DF8044B7047137E5169CD
:102EF0000133013113765DF8044B5161704743F0A3
:102F00000403DAE753695DF8044BC83B536170472B
:102F100053695DF8044BC83353617047137C03F069
:102F200003030029CBD043F00403C8E780D001207D
:102F3000244B1A6ED2E90010D3680968006810B4F7
:102F40001842946801EA040134D0137C03F00303AF
:102F500009BB43F008039908013B11740D2B0ED8EF
:102F6000DFE803F0100722070D1C10101C0D0722CC
:102F700007105169137E01390133516113765DF8F1
:102F8000044B7047137E51690133013113765DF8AC
:102F9000044B5161704743F00403DAE753695DF86D
:102FA000044BC83B5361704753695DF8044BC83309
:102FB00053617047137C03F003030029CBD043F027
:102FC0000403C8E780D00120244B5A6ED2E90010D8
:102FD000D3680968006810B41842946801EA0401D3
:102FE00034D0137C03F0030309BB43F008039908B2
:102FF000013B11740D2B0ED8DFE803F010072207F8
:103000000D1C10101C0D072207105169137E013989
:103010000133516113765DF8044B7047137E51699B
:103020000133013113765DF8044B5161704743F071
:103030000403DAE753695DF8044BC83B53617047FA
:1030400053695DF8044BC83353617047137C03F038
:1030500003030029CBD043F00403C8E780D001204C
:10306000244BDA6ED2E90010D3680968006810B406
:103070001842946801EA040134D0137C03F003037E
:1030800009BB43F008039908013B11740D2B0ED8BE
:10309000DFE803F0100722070D1C10101C0D07229B
:1030A00007105169137E01390133516113765DF8C0
:1030B000044B7047137E51690133013113765DF87B
:1030C000044B5161704743F00403DAE753695DF83C
:1030D000044BC83B5361704753695DF8044BC833D8
:1030E00053617047137C03F003030029CBD043F0F6
:1030F0000403C8E780D00120254BD3F88020D2E913
:103100000010D3680968006810B41842946801EA96
:10311000040134D0137C03F0030309BB43F008031C
:103120009908013B11740D2B0ED8DFE803F010074E
:1031300022070D1C10101C0D072207105169137E69
:1031400001390133516113765DF8044B7047137EEA
:1031500051690133013113765DF8044B51617047B9
:1031600043F00403DAE753695DF8044BC83B53614D
:10317000704753695DF8044BC83353617047137C43
:1031800003F003030029CBD043F00403C8E700BFDA
:1031900080D00120244B1A6FD2E90010D36809684F
:1031A000006810B41842946801EA040134D0137C1A
:1031B00003F0030309BB43F008039908013B1174B2
:1031C0000D2B0ED8DFE803F0100722070D1C10109E
:1031D0001C0D072207105169137E0139013351611B
:1031E00013765DF8044B7047137E5169013301314A
:1031F00013765DF8044B5161704743F00403DAE73E
:1032000053695DF8044BC83B5361704753695DF8DF
:10321000044BC83353617047137C03F00303002948
:10322000CBD043F00403C8E780D00120254BD3F86E
:10323000D020D2E90010D3680968006810B41842A1
:10324000946801EA040134D0137C03F0030309BB42
:1032500043F008039908013B11740D2B0ED8DFE8E9
:1032600003F0100722070D1C10101C0D0722071079
:103270005169137E01390133516113765DF8044BB6
:103280007047137E51690133013113765DF8044BA9
:103290005161704743F00403DAE753695DF8044B6A
:1032A000C83B5361704753695DF8044BC8335361A1
:1032B0007047137C03F003030029CBD043F00403D1
:1032C000C8E700BF80D00120244B5A6FD2E900101C
:1032D000D3680968006810B41842946801EA0401D0
:1032E00034D0137C03F0030309BB43F008039908AF
:1032F000013B11740D2B0ED8DFE803F010072207F5
:103300000D1C10101C0D072207105169137E013986
:103310000133516113765DF8044B7047137E516998
:103320000133013113765DF8044B5161704743F06E
:103330000403DAE753695DF8044BC83B53617047F7
:1033400053695DF8044BC83353617047137C03F035
:1033500003030029CBD043F00403C8E780D0012049
:10336000254BD3F88820D2E90010D368096800689B
:1033700010B41842946801EA040134D0137C03F0BD
:10338000030309BB43F008039908013B11740D2B9B
:103390000ED8DFE803F0100722070D1C10101C0DDB
:1033A000072207105169137E0139013351611376E9
:1033B0005DF8044B7047137E516901330131137678
:1033C0005DF8044B5161704743F00403DAE7536939
:1033D0005DF8044BC83B5361704753695DF8044B7B
:1033E000C83353617047137C03F003030029CBD02B
:1033F00043F00403C8E700BF80D00120244B9A6F3C
:10340000D2E90010D3680968006810B418429468C3
:1034100001EA040134D0137C03F0030309BB43F039
:1034200008039908013B11740D2B0ED8DFE803F057
:10343000100722070D1C10101C0D072207105169E0
:10344000137E01390133516113765DF8044B7047E7
:10345000137E51690133013113765DF8044B5161DC
:10346000704743F00403DAE753695DF8044BC83B47
:103470005361704753695DF8044BC833536170471B
:10348000137C03F003030029CBD043F00403C8E707
:1034900080D00120254BD3F8C820D2E90010D36892
:1034A0000968006810B41842946801EA040134D035
:1034B000137C03F0030309BB43F008039908013BA5
:1034C00011740D2B0ED8DFE803F0100722070D1C36
:1034D00010101C0D072207105169137E01390133AA
:1034E000516113765DF8044B7047137E51690133C7
:1034F000013113765DF8044B5161704743F00403CA
:10350000DAE753695DF8044BC83B53617047536970
:103510005DF8044BC83353617047137C03F0030319
:103520000029CBD043F00403C8E700BF80D00120BE
:10353000244BDA6FD2E90010D3680968006810B430
:103540001842946801EA040134D0137C03F00303A9
:1035500009BB43F008039908013B11740D2B0ED8E9
:10356000DFE803F0100722070D1C10101C0D0722C6
:1035700007105169137E01390133516113765DF8EB
:10358000044B7047137E51690133013113765DF8A6
:10359000044B5161704743F00403DAE753695DF867
:1035A000044BC83B5361704753695DF8044BC83303
:1035B00053617047137C03F003030029CBD043F021
:1035C0000403C8E780D00120254BD3F89020D2E92E
:1035D0000010D3680968006810B41842946801EAC2
:1035E000040134D0137C03F0030309BB43F0080348
:1035F0009908013B11740D2B0ED8DFE803F010077A
:1036000022070D1C10101C0D072207105169137E94
:1036100001390133516113765DF8044B7047137E15
:1036200051690133013113765DF8044B51617047E4
:1036300043F00403DAE753695DF8044BC83B536178
:10364000704753695DF8044BC83353617047137C6E
:1036500003F003030029CBD043F00403C8E700BF05
:1036600080D00120254BD3F88420D2E90010D36804
:103670000968006810B41842946801EA040134D063
:10368000137C03F0030309BB43F008039908013BD3
:1036900011740D2B0ED8DFE803F0100722070D1C64
:1036A00010101C0D072207105169137E01390133D8
:1036B000516113765DF8044B7047137E51690133F5
:1036C000013113765DF8044B5161704743F00403F8
:1036D000DAE753695DF8044BC83B5361704753699F
:1036E0005DF8044BC83353617047137C03F0030348
:1036F0000029CBD043F00403C8E700BF80D00120ED
:10370000254BD3F8A820D2E90010D36809680068D7
:1037100010B41842946801EA040134D0137C03F019
:10372000030309BB43F008039908013B11740D2BF7
:103730000ED8DFE803F0100722070D1C10101C0D37
:10374000072207105169137E013901335161137645
:103750005DF8044B7047137E5169013301311376D4
:103760005DF8044B5161704743F00403DAE7536995
:103770005DF8044BC83B5361704753695DF8044BD7
:10378000C83353617047137C03F003030029CBD087
:1037900043F00403C8E700BF80D00120254BD3F8D5
:1037A0008C20D2E90010D3680968006810B4184270
:1037B000946801EA040134D0137C03F0030309BBCD
:1037C00043F008039908013B11740D2B0ED8DFE874
:1037D00003F0100722070D1C10101C0D0722071004
:1037E0005169137E01390133516113765DF8044B41
:1037F0007047137E51690133013113765DF8044B34
:103800005161704743F00403DAE753695DF8044BF4
:10381000C83B5361704753695DF8044BC83353612B
:103820007047137C03F003030029CBD043F004035B
:10383000C8E700BF80D00120254BD3F89820D2E9FB
:103840000010D3680968006810B41842946801EA4F
:10385000040134D0137C03F0030309BB43F00803D5
:103860009908013B11740D2B0ED8DFE803F0100707
:1038700022070D1C10101C0D072207105169137E22
:1038800001390133516113765DF8044B7047137EA3
:1038900051690133013113765DF8044B5161704772
:1038A00043F00403DAE753695DF8044BC83B536106
:1038B000704753695DF8044BC83353617047137CFC
:1038C00003F003030029CBD043F00403C8E700BF93
:1038D00080D00120254BD3F89420D2E90010D36882
:1038E0000968006810B41842946801EA040134D0F1
:1038F000137C03F0030309BB43F008039908013B61
:1039000011740D2B0ED8DFE803F0100722070D1CF1
:1039100010101C0D072207105169137E0139013365
:10392000516113765DF8044B7047137E5169013382
:10393000013113765DF8044B5161704743F0040385
:10394000DAE753695DF8044BC83B5361704753692C
:103950005DF8044BC83353617047137C03F00303D5
:103960000029CBD043F00403C8E700BF80D001207A
:10397000254BD3F8B820D2E90010D3680968006855
:1039800010B41842946801EA040134D0137C03F0A7
:10399000030309BB43F008039908013B11740D2B85
:1039A0000ED8DFE803F0100722070D1C10101C0DC5
:1039B000072207105169137E0139013351611376D3
:1039C0005DF8044B7047137E516901330131137662
:1039D0005DF8044B5161704743F00403DAE7536923
:1039E0005DF8044BC83B5361704753695DF8044B65
:1039F000C83353617047137C03F003030029CBD015
:103A000043F00403C8E700BF80D00120254BD3F862
:103A10009C20D2E90010D3680968006810B41842ED
:103A2000946801EA040134D0137C03F0030309BB5A
:103A300043F008039908013B11740D2B0ED8DFE801
:103A400003F0100722070D1C10101C0D0722071091
:103A50005169137E01390133516113765DF8044BCE
:103A60007047137E51690133013113765DF8044BC1
:103A70005161704743F00403DAE753695DF8044B82
:103A8000C83B5361704753695DF8044BC8335361B9
:103A90007047137C03F003030029CBD043F00403E9
:103AA000C8E700BF80D00120254BD3F8D420D2E94D
:103AB0000010D3680968006810B41842946801EADD
:103AC000040134D0137C03F0030309BB43F0080363
:103AD0009908013B11740D2B0ED8DFE803F0100795
:103AE00022070D1C10101C0D072207105169137EB0
:103AF00001390133516113765DF8044B7047137E31
:103B000051690133013113765DF8044B51617047FF
:103B100043F00403DAE753695DF8044BC83B536193
:103B2000704753695DF8044BC83353617047137C89
:103B300003F003030029CBD043F00403C8E700BF20
:103B400080D00120254BD3F8A420D2E90010D368FF
:103B50000968006810B41842946801EA040134D07E
:103B6000137C03F0030309BB43F008039908013BEE
:103B700011740D2B0ED8DFE803F0100722070D1C7F
:103B800010101C0D072207105169137E01390133F3
:103B9000516113765DF8044B7047137E5169013310
:103BA000013113765DF8044B5161704743F0040313
:103BB000DAE753695DF8044BC83B536170475369BA
:103BC0005DF8044BC83353617047137C03F0030363
:103BD0000029CBD043F00403C8E700BF80D0012008
:103BE000254BD3F8C020D2E90010D36809680068DB
:103BF00010B41842946801EA040134D0137C03F035
:103C0000030309BB43F008039908013B11740D2B12
:103C10000ED8DFE803F0100722070D1C10101C0D52
:103C2000072207105169137E013901335161137660
:103C30005DF8044B7047137E5169013301311376EF
:103C40005DF8044B5161704743F00403DAE75369B0
:103C50005DF8044BC83B5361704753695DF8044BF2
:103C6000C83353617047137C03F003030029CBD0A2
:103C700043F00403C8E700BF80D00120254BD3F8F0
:103C8000AC20D2E90010D3680968006810B418426B
:103C9000946801EA040134D0137C03F0030309BBE8
:103CA00043F008039908013B11740D2B0ED8DFE88F
:103CB00003F0100722070D1C10101C0D072207101F
:103CC0005169137E01390133516113765DF8044B5C
:103CD0007047137E51690133013113765DF8044B4F
:103CE0005161704743F00403DAE753695DF8044B10
:103CF000C83B5361704753695DF8044BC833536147
:103D00007047137C03F003030029CBD043F0040376
:103D1000C8E700BF80D00120254BD3F8A020D2E90E
:103D20000010D3680968006810B41842946801EA6A
:103D3000040134D0137C03F0030309BB43F00803F0
:103D40009908013B11740D2B0ED8DFE803F0100722
:103D500022070D1C10101C0D072207105169137E3D
:103D600001390133516113765DF8044B7047137EBE
:103D700051690133013113765DF8044B516170478D
:103D800043F00403DAE753695DF8044BC83B536121
:103D9000704753695DF8044BC83353617047137C17
:103DA00003F003030029CBD043F00403C8E700BFAE
:103DB00080D00120254BD3F8B420D2E90010D3687D
:103DC0000968006810B41842946801EA040134D00C
:103DD000137C03F0030309BB43F008039908013B7C
:103DE00011740D2B0ED8DFE803F0100722070D1C0D
:103DF00010101C0D072207105169137E0139013381
:103E0000516113765DF8044B7047137E516901339D
:103E1000013113765DF8044B5161704743F00403A0
:103E2000DAE753695DF8044BC83B53617047536947
:103E30005DF8044BC83353617047137C03F00303F0
:103E40000029CBD043F00403C8E700BF80D0012095
:103E5000254BD3F8B020D2E90010D3680968006878
:103E600010B41842946801EA040134D0137C03F0C2
:103E7000030309BB43F008039908013B11740D2BA0
:103E80000ED8DFE803F0100722070D1C10101C0DE0
:103E9000072207105169137E0139013351611376EE
:103EA0005DF8044B7047137E51690133013113767D
:103EB0005DF8044B5161704743F00403DAE753693E
:103EC0005DF8044BC83B5361704753695DF8044B80
:103ED000C83353617047137C03F003030029CBD030
:103EE00043F00403C8E700BF80D00120244B9A6E42
:103EF000D2E90010D3680968006810B418429468C9
:103F000001EA040134D0137C03F0030309BB43F03E
:103F100008039908013B11740D2B0ED8DFE803F05C
:103F2000100722070D1C10101C0D072207105169E5
:103F3000137E01390133516113765DF8044B7047EC
:103F4000137E51690133013113765DF8044B5161E1
:103F5000704743F00403DAE753695DF8044BC83B4C
:103F60005361704753695DF8044BC8335361704720
:103F7000137C03F003030029CBD043F00403C8E70C
:103F800080D00120254BD3F8CC20D2E90010D36893
:103F90000968006810B41842946801EA040134D03A
:103FA000137C03F0030309BB43F008039908013BAA
:103FB00011740D2B0ED8DFE803F0100722070D1C3B
:103FC00010101C0D072207105169137E01390133AF
:103FD000516113765DF8044B7047137E51690133CC
:103FE000013113765DF8044B5161704743F00403CF
:103FF000DAE753695DF8044BC83B53617047536976
:104000005DF8044BC83353617047137C03F003031E
:104010000029CBD043F00403C8E700BF80D00120C3
:10402000254BD3F8BC20D2E90010D368096800689A
:1040300010B41842946801EA040134D0137C03F0F0
:10404000030309BB43F008039908013B11740D2BCE
:104050000ED8DFE803F0100722070D1C10101C0D0E
:10406000072207105169137E01390133516113761C
:104070005DF8044B7047137E5169013301311376AB
:104080005DF8044B5161704743F00403DAE753696C
:104090005DF8044BC83B5361704753695DF8044BAE
:1040A000C83353617047137C03F003030029CBD05E
:1040B00043F00403C8E700BF80D00120254BD3F8AC
:1040C000C420D2E90010D3680968006810B418420F
:1040D000946801EA040134D0137C03F0030309BBA4
:1040E00043F008039908013B11740D2B0ED8DFE84B
:1040F00003F0100722070D1C10101C0D07220710DB
:104100005169137E01390133516113765DF8044B17
:104110007047137E51690133013113765DF8044B0A
:104120005161704743F00403DAE753695DF8044BCB
:10413000C83B5361704753695DF8044BC833536102
:104140007047137C03F003030029CBD043F0040332
:10415000C8E700BF80D00120244B9A6DD2E900103F
:10416000D3680968006810B41842946801EA040131
:1041700034D0137C03F0030309BB43F00803990810
:10418000013B11740D2B0ED8DFE803F01007220756
:104190000D1C10101C0D072207105169137E0139E8
:1041A0000133516113765DF8044B7047137E5169FA
:1041B0000133013113765DF8044B5161704743F0D0
:1041C0000403DAE753695DF8044BC83B5361704759
:1041D00053695DF8044BC83353617047137C03F097
:1041E00003030029CBD043F00403C8E780D00120AB
:1041F000254BD3F8D820D2E90010D36809680068AD
:1042000010B41842946801EA040134D0137C03F01E
:10421000030309BB43F008039908013B11740D2BFC
:104220000ED8DFE803F0100722070D1C10101C0D3C
:10423000072207105169137E01390133516113764A
:104240005DF8044B7047137E5169013301311376D9
:104250005DF8044B5161704743F00403DAE753699A
:104260005DF8044BC83B5361704753695DF8044BDC
:10427000C83353617047137C03F003030029CBD08C
:1042800043F00403C8E700BF80D00120244BDA6963
:10429000D2E90010D3680968006810B41842946825
:1042A00001EA040134D0137C03F0030309BB43F09B
:1042B00008039908013B11740D2B0ED8DFE803F0B9
:1042C000100722070D1C10101C0D07220710516942
:1042D000137E01390133516113765DF8044B704749
:1042E000137E51690133013113765DF8044B51613E
:1042F000704743F00403DAE753695DF8044BC83BA9
:104300005361704753695DF8044BC833536170477C
:10431000137C03F003030029CBD043F00403C8E768
:1043200080D00120244B1A68D2E90010D3680968B4
:10433000006810B41842946801EA040134D0137C78
:1043400003F0030309BB43F008039908013B117410
:104350000D2B0ED8DFE803F0100722070D1C1010FC
:104360001C0D072207105169137E01390133516179
:1043700013765DF8044B7047137E516901330131A8
:1043800013765DF8044B5161704743F00403DAE79C
:1043900053695DF8044BC83B5361704753695DF83E
:1043A000044BC83353617047137C03F003030029A7
:1043B000CBD043F00403C8E780D00120244BDA6A55
:1043C000D2E90010D3680968006810B418429468F4
:1043D00001EA040134D0137C03F0030309BB43F06A
:1043E00008039908013B11740D2B0ED8DFE803F088
:1043F000100722070D1C10101C0D07220710516911
:10440000137E01390133516113765DF8044B704717
:10441000137E51690133013113765DF8044B51610C
:10442000704743F00403DAE753695DF8044BC83B77
:104430005361704753695DF8044BC833536170474B
:10444000137C03F003030029CBD043F00403C8E737
:1044500080D00120244BDA6BD2E90010D3680968C0
:10446000006810B41842946801EA040134D0137C47
:1044700003F0030309BB43F008039908013B1174DF
:104480000D2B0ED8DFE803F0100722070D1C1010CB
:104490001C0D072207105169137E01390133516148
:1044A00013765DF8044B7047137E51690133013177
:1044B00013765DF8044B5161704743F00403DAE76B
:1044C00053695DF8044BC83B5361704753695DF80D
:1044D000044BC83353617047137C03F00303002976
:1044E000CBD043F00403C8E780D00120244BDA6C22
:1044F000D2E90010D3680968006810B418429468C3
:1045000001EA040134D0137C03F0030309BB43F038
:1045100008039908013B11740D2B0ED8DFE803F056
:10452000100722070D1C10101C0D072207105169DF
:10453000137E01390133516113765DF8044B7047E6
:10454000137E51690133013113765DF8044B5161DB
:10455000704743F00403DAE753695DF8044BC83B46
:104560005361704753695DF8044BC833536170471A
:10457000137C03F003030029CBD043F00403C8E706
:1045800080D00120244B5A68D2E90010D368096812
:10459000006810B41842946801EA040134D0137C16
:1045A00003F0030309BB43F008039908013B1174AE
:1045B0000D2B0ED8DFE803F0100722070D1C10109A
:1045C0001C0D072207105169137E01390133516117
:1045D00013765DF8044B7047137E51690133013146
:1045E00013765DF8044B5161704743F00403DAE73A
:1045F00053695DF8044BC83B5361704753695DF8DC
:10460000044BC83353617047137C03F00303002944
:10461000CBD043F00403C8E780D00120244BDA68F4
:10462000D2E90010D3680968006810B41842946891
:1046300001EA040134D0137C03F0030309BB43F007
:1046400008039908013B11740D2B0ED8DFE803F025
:10465000100722070D1C10101C0D072207105169AE
:10466000137E01390133516113765DF8044B7047B5
:10467000137E51690133013113765DF8044B5161AA
:10468000704743F00403DAE753695DF8044BC83B15
:104690005361704753695DF8044BC83353617047E9
:1046A000137C03F003030029CBD043F00403C8E7D5
:1046B00080D00120244B5A6DD2E90010D3680968DC
:1046C000006810B41842946801EA040134D0137CE5
:1046D00003F0030309BB43F008039908013B11747D
:1046E0000D2B0ED8DFE803F0100722070D1C101069
:1046F0001C0D072207105169137E013901335161E6
:1047000013765DF8044B7047137E51690133013114
:1047100013765DF8044B5161704743F00403DAE708
:1047200053695DF8044BC83B5361704753695DF8AA
:10473000044BC83353617047137C03F00303002913
:10474000CBD043F00403C8E780D00120244B9A6902
:10475000D2E90010D3680968006810B41842946860
:1047600001EA040134D0137C03F0030309BB43F0D6
:1047700008039908013B11740D2B0ED8DFE803F0F4
:10478000100722070D1C10101C0D0722071051697D
:10479000137E01390133516113765DF8044B704784
:1047A000137E51690133013113765DF8044B516179
:1047B000704743F00403DAE753695DF8044BC83BE4
:1047C0005361704753695DF8044BC83353617047B8
:1047D000137C03F003030029CBD043F00403C8E7A4
:1047E00080D00120244B1A6DD2E90010D3680968EB
:1047F000006810B41842946801EA040134D0137CB4
:1048000003F0030309BB43F008039908013B11744B
:104810000D2B0ED8DFE803F0100722070D1C101037
:104820001C0D072207105169137E013901335161B4
:1048300013765DF8044B7047137E516901330131E3
:1048400013765DF8044B5161704743F00403DAE7D7
:1048500053695DF8044BC83B5361704753695DF879
:10486000044BC83353617047137C03F003030029E2
:10487000CBD043F00403C8E780D00120244B5A6911
:10488000D2E90010D3680968006810B4184294682F
:1048900001EA040134D0137C03F0030309BB43F0A5
:1048A00008039908013B11740D2B0ED8DFE803F0C3
:1048B000100722070D1C10101C0D0722071051694C
:1048C000137E01390133516113765DF8044B704753
:1048D000137E51690133013113765DF8044B516148
:1048E000704743F00403DAE753695DF8044BC83BB3
:1048F0005361704753695DF8044BC8335361704787
:10490000137C03F003030029CBD043F00403C8E772
:1049100080D00120244B1A6CD2E90010D3680968BA
:10492000006810B41842946801EA040134D0137C82
:1049300003F0030309BB43F008039908013B11741A
:104940000D2B0ED8DFE803F0100722070D1C101006
:104950001C0D072207105169137E01390133516183
:1049600013765DF8044B7047137E516901330131B2
:1049700013765DF8044B5161704743F00403DAE7A6
:1049800053695DF8044BC83B5361704753695DF848
:10499000044BC83353617047137C03F003030029B1
:1049A000CBD043F00403C8E780D00120244B5A6CDD
:1049B000D2E90010D3680968006810B418429468FE
:1049C00001EA040134D0137C03F0030309BB43F074
:1049D00008039908013B11740D2B0ED8DFE803F092
:1049E000100722070D1C10101C0D0722071051691B
:1049F000137E01390133516113765DF8044B704722
:104A0000137E51690133013113765DF8044B516116
:104A1000704743F00403DAE753695DF8044BC83B81
:104A20005361704753695DF8044BC8335361704755
:104A3000137C03F003030029CBD043F00403C8E741
:104A400080D00120244B9A6CD2E90010D368096809
:104A5000006810B41842946801EA040134D0137C51
:104A600003F0030309BB43F008039908013B1174E9
:104A70000D2B0ED8DFE803F0100722070D1C1010D5
:104A80001C0D072207105169137E01390133516152
:104A900013765DF8044B7047137E51690133013181
:104AA00013765DF8044B5161704743F00403DAE775
:104AB00053695DF8044BC83B5361704753695DF817
:104AC000044BC83353617047137C03F00303002980
:104AD000CBD043F00403C8E780D00120244B9A6870
:104AE000D2E90010D3680968006810B418429468CD
:104AF00001EA040134D0137C03F0030309BB43F043
:104B000008039908013B11740D2B0ED8DFE803F060
:104B1000100722070D1C10101C0D072207105169E9
:104B2000137E01390133516113765DF8044B7047F0
:104B3000137E51690133013113765DF8044B5161E5
:104B4000704743F00403DAE753695DF8044BC83B50
:104B50005361704753695DF8044BC8335361704724
:104B6000137C03F003030029CBD043F00403C8E710
:104B700080D00120244B1A6AD2E90010D36809685A
:104B8000006810B41842946801EA040134D0137C20
:104B900003F0030309BB43F008039908013B1174B8
:104BA0000D2B0ED8DFE803F0100722070D1C1010A4
:104BB0001C0D072207105169137E01390133516121
:104BC00013765DF8044B7047137E51690133013150
:104BD00013765DF8044B5161704743F00403DAE744
:104BE00053695DF8044BC83B5361704753695DF8E6
:104BF000044BC83353617047137C03F0030300294F
:104C0000CBD043F00403C8E780D00120244B5A6A7C
:104C1000D2E90010D3680968006810B4184294689B
:104C200001EA040134D0137C03F0030309BB43F011
:104C300008039908013B11740D2B0ED8DFE803F02F
:104C4000100722070D1C10101C0D072207105169B8
:104C5000137E01390133516113765DF8044B7047BF
:104C6000137E51690133013113765DF8044B5161B4
:104C7000704743F00403DAE753695DF8044BC83B1F
:104C80005361704753695DF8044BC83353617047F3
:104C9000137C03F003030029CBD043F00403C8E7DF
:104CA00080D00120244B9A6AD2E90010D3680968A9
:104CB000006810B41842946801EA040134D0137CEF
:104CC00003F0030309BB43F008039908013B117487
:104CD0000D2B0ED8DFE803F0100722070D1C101073
:104CE0001C0D072207105169137E013901335161F0
:104CF00013765DF8044B7047137E5169013301311F
:104D000013765DF8044B5161704743F00403DAE712
:104D100053695DF8044BC83B5361704753695DF8B4
:104D2000044BC83353617047137C03F0030300291D
:104D3000CBD043F00403C8E780D00120244B1A698C
:104D4000D2E90010D3680968006810B4184294686A
:104D500001EA040134D0137C03F0030309BB43F0E0
:104D600008039908013B11740D2B0ED8DFE803F0FE
:104D7000100722070D1C10101C0D07220710516987
:104D8000137E01390133516113765DF8044B70478E
:104D9000137E51690133013113765DF8044B516183
:104DA000704743F00403DAE753695DF8044BC83BEE
:104DB0005361704753695DF8044BC83353617047C2
:104DC000137C03F003030029CBD043F00403C8E7AE
:104DD00080D00120244B1A6BD2E90010D3680968F7
:104DE000006810B41842946801EA040134D0137CBE
:104DF00003F0030309BB43F008039908013B117456
:104E00000D2B0ED8DFE803F0100722070D1C101041
:104E10001C0D072207105169137E013901335161BE
:104E200013765DF8044B7047137E516901330131ED
:104E300013765DF8044B5161704743F00403DAE7E1
:104E400053695DF8044BC83B5361704753695DF883
:104E5000044BC83353617047137C03F003030029EC
:104E6000CBD043F00403C8E780D00120244B5A6B19
:104E7000D2E90010D3680968006810B41842946839
:104E800001EA040134D0137C03F0030309BB43F0AF
:104E900008039908013B11740D2B0ED8DFE803F0CD
:104EA000100722070D1C10101C0D07220710516956
:104EB000137E01390133516113765DF8044B70475D
:104EC000137E51690133013113765DF8044B516152
:104ED000704743F00403DAE753695DF8044BC83BBD
:104EE0005361704753695DF8044BC8335361704791
:104EF000137C03F003030029CBD043F00403C8E77D
:104F000080D00120244B9A6BD2E90010D368096845
:104F1000006810B41842946801EA040134D0137C8C
:104F200003F0030309BB43F008039908013B117424
:104F30000D2B0ED8DFE803F0100722070D1C101010
:104F40001C0D072207105169137E0139013351618D
:104F500013765DF8044B7047137E516901330131BC
:104F600013765DF8044B5161704743F00403DAE7B0
:104F700053695DF8044BC83B5361704753695DF852
:104F8000044BC83353617047137C03F003030029BB
:104F9000CBD043F00403C8E780D00120000000001C
:104FA00043782DE9F04104462DED028B82B0002BB1
:104FB00000F0A1800378002B00F0848003690F4685
:104FC00082690221DFF8D48193424269D8F8005007
:104FD000C8BF8361C368D8F800609342B8BF43611B
:104FE000D0E9012313448360C369ED1A036A604862
:104FF000F61A1EF0EDFA37B1384621F0A1FE01464F
:1050000038461EF0E5FAA36922695A495A481BF04E
:10501000F3FC6369E268594957481BF0EDFC07EE61
:10502000905A5749B8EE675AD4ED027A5248B8EE12
:10503000E76AD4ED017AB7EEC55A524FB8EEE77A77
:1050400007EE906AB7EEC66AB8EE678AB7EEC77A1F
:105050009FED414BB7EEC88A85EE043B88EE042BEA
:1050600087EE037B86EE025B53EC172B8DED005B26
:105070001BF0C2FC032144481EF0AAFAA7FB05312D
:105080000A22002389093C481BF0C4FC03213F4845
:105090001EF09EFA3E4B9E424FD84EF660239E4233
:1050A0003ED8A7FB067100230A22334889091BF06A
:1050B000B1FC012137481EF08BFA012136481EF061
:1050C00087FA09E0DFF8D48042F20F7283618360CF
:1050D000D8F80030426103620023D8F8002042F281
:1050E0000F7163602370E261C4E9031302B0BDEC89
:1050F000028BBDE8F081294942F20F72836183601F
:105100000D68086801212562E26063602370E06138
:105110006170C4E9043202B0BDEC028BBDE8F081DD
:105120009FED0F0B0121144888EE000B1BF088FC4B
:1051300001211B481EF04CFABFE79FED0B0B01212C
:105140000D4888EE000B1BF07BFC012115481EF07A
:105150003FFAB2E7AFF300800000000000408F404C
:1051600000000000004CED400000000040774B4183
:10517000AC3D0020D8230020582F0120E42300203C
:10518000F0230020D34D62100424002008240020C6
:1051900080EE360044410020A44A0020ECD90120D2
:1051A0000C2400207021002038B5037B04460D46F6
:1051B00093B900680F4AA36812680F49D31AA26016
:1051C000A1FB03139B09B0FBF3F00023A84223606B
:1051D0002CBF401B002038BD1CF0D6F8237B1BB928
:1051E000206800232373E5E7D4E900329B1A1844B2
:1051F000F7E700BFECD90120D34D6210000000009A
:105200005B4B1B6830B5044683B08362092938D8EC
:10521000DFE801F04716163705272737055790F8BE
:105220005130042B0AD00020A17C84F8520084F86D
:105230005310002A78D1042384F8513003B030BDD4
:1052400090F85130022BF9D0407C002184F85200B4
:1052500084F85310002A5FD1022384F8513003B040
:1052600030BD90F85130032BE8D00020A17C84F8A9
:10527000520084F85310002A5ED1032384F8513081
:10528000DCE790F85130002BD8D00025026C39496A
:10529000A0F85250384800951BF0AEFB84F85150EE
:1052A000CCE790F85130012BC8D0407C002184F825
:1052B000520084F85310002A4ED1012384F8513053
:1052C000BCE790F85130052B21D0417CB6EE084B5D
:1052D00006EE101A817C07EE101AB8EEC66BB8EE17
:1052E000C77B26EE046B9FED205BFCEEC66B27EEC2
:1052F000057B16EE900A84F85200FCEEC77B17EE91
:10530000901A84F85310FAB9052384F85130002319
:1053100084F8303003B030BD0220226C1549009073
:1053200015481BF069FB97E70420226C1149009097
:1053300011481BF061FB7EE70320226C0D490090B1
:105340000D481BF059FB98E70520226C0949009095
:1053500009481BF051FBD7E70120226C054900905A
:1053600005481BF049FBA8E79A9999999999E93F53
:10537000ECD9012010240020582F0120F0B587B06F
:105380001EF000F9C4B2632C00F0A280672C00F07C
:10539000C9806C2C00F0AC806D2C73D06E2C00F0AA
:1053A000D180A4F10A03692B00F2A680DFE813F094
:1053B0008E00A400A4008E00A400A400A400A400F9
:1053C000A400A400A400A400A400A400A400A400BD
:1053D000A400A400A400A400A400A400A400A400AD
:1053E000A400A400A400A400A400A400A400A4009D
:1053F000A400A400A400A400A400A4008E003F0107
:1054000061010C0115011A0130017A018901310293
:10541000A400A400A400A400A400A400A400A4006C
:10542000A400A400A400A400A400A400A400A4005C
:10543000A400A400A400A400A400A400A400A4004C
:105440007401A400A400A400A400A400A400A4006B
:10545000A400A400A400A400A400A400A400A4002C
:10546000A400A400A400A400A400A400A400A4001C
:10547000A400A400A400A400A400A400A400A4000C
:10548000EC015A021EF03AF8002835DD1EF07AF8D9
:105490003038A44CC3B2A4496846052B9CBF22688F
:1054A00013701BF0F1FB694603A81BF00BFC23688B
:1054B00003A819781BF078FC01469C481BF04EFAB3
:1054C00003A81BF01BFC68461BF018FC07B0F0BDDE
:1054D000974C1B219748237883F0010323701EF01B
:1054E00077F82178914807B0BDE8F0401BF05CBA2E
:1054F0001EF004F8002840DC8F498C48FDF74CFA78
:10550000214600230A2289481BF084FA8B498748E8
:10551000FDF742FA01E01EF035F81DF0EFFF00281C
:10552000F9D1D3E71DF0EAFF00287FF73AAF1EF06C
:1055300029F83038C1B20529C8D801228048FFF7C0
:105540005FFEC3E71DF0DAFF20B11DF0B5FFC0B26A
:1055500032282BD07B4C16217B4A23787B4883F062
:105560000103237082F883341EF032F821786F48EB
:1055700007B0BDE8F0401BF017BA1EF003F8C0B248
:10558000A0F13004E3B2052BA0D800EB80036C4AF5
:105590006F4903EB830365485B00603B1374FDF7C1
:1055A000FBF93221614804FB01F19CE71DF0EAFFA1
:1055B000684C694923785D4883F001032370FDF747
:1055C000EBF9217859488EE70023012163481A46F8
:1055D00007B0BDE8F04008F09FBD012300225F48FE
:1055E0001946F5E75E4C00235C4E0F21251D1A4637
:1055F000304608F091FDA5423FF468AF002314F84F
:10560000011F30461A4608F087FDA542F6D15DE736
:10561000534C0F21514E251D01230022304608F026
:105620007BFDAC423FF452AF14F8011FF4E74D4E3E
:105630001BF0AAFE04463578002D00F02A81012DCA
:1056400000F04181022D00F04B811BF09DFE464988
:1056500005463648FDF7A0F9291B00230A223348E6
:105660001BF0D8F94149314807B0BDE8F040FDF7DB
:1056700093B93F4E1BF088FE04463578002D00F0AC
:10568000FB80012D00F01281022D00F036811BF00D
:105690007BFE38490546DCE74FF0E023364AC3F885
:1056A0000C2D13E72E4C0F212C4E251D0123BB2260
:1056B000304608F031FDA5423FF408AF14F8011F51
:1056C000F4E7274C0023254F0F21251D2646384699
:1056D0001A4608F021FDAE4208D0002316F8011F3B
:1056E00038461A4608F018FDAE42F6D12349244A3E
:1056F000244B48681268A3FB02329623920C03FBEA
:1057000002F24B681B1A9A42FBD80F21134E012359
:10571000BB22304608F000FDA5423FF4D7AE14F896
:10572000011FF4E764D601208C1A0020582F0120B5
:105730005EDA0120541A0020A81C0020D01C002092
:105740006CCB01205ADA0120F07D0120BC1A002028
:10575000701A00205BDA0120A41A00206CD8012006
:105760008822002042DA0120B01B0020B81B002054
:1057700043DA01205C1C00200400FA05001000E060
:10578000542F012083DE1B4362496348FDF704F96F
:105790006249634800230C6842F20F724360C4619F
:1057A0000C680370836004620C68C0E90323C0E9DD
:1057B00005235C48C4610C68436003708360046225
:1057C0000C68C0E90323C0E905235748C4610C688D
:1057D000436003708360C0E90323C0E905230462CA
:1057E00052480C684360C4610C68037004628360B3
:1057F0000C680968C0E90523C0E903234C48C0E9E7
:10580000032343600370426183600162C0E9063490
:105810005CE6484C8823012547493F4884F8A53079
:1058200084F8305184F82F51FDF7B6F82946204608
:1058300008F03AF9D8B941493748FDF7ADF8E02307
:10584000012535483E4984F8A53084F8305184F864
:105850002F51FDF7A1F82946364808F025F920B95F
:10586000364900E7374C3849A4E63849FBE6374962
:105870002948FDF791F8E2E735492748FDF78CF80C
:1058800001232A460E21334808F046FC01233370D9
:10589000FDE631492048FDF77FF801232A460F2114
:1058A0002C4808F039FC01233370CEE62B491A4806
:1058B000FDF772F82B46ED220E21264808F02CFC4D
:1058C00002233370E3E626491348FDF765F82B46BB
:1058D000ED220F211F4808F01FFC02233370B4E6AD
:1058E00020490D48FDF758F800230F2119481A46A2
:1058F00008F012FC00233370A7E61B490648FDF7A9
:105900004BF800230E2113481A4608F005FC00232B
:105910003370BCE6D41A0020582F0120ECD90120A6
:10592000FCD5012020D601207CD80120A0D8012060
:105930003CD50120AC310120641C00207C1C0020DF
:10594000941C00205FDA0120F41A0020841C00203F
:10595000BC1B00206CD801200C1B0020E81B002081
:105960003C1B0020801B00202C1C00201A4A30B554
:1059700092F8983083B0C3F19603092B1BDC01AB7E
:1059800018461EF0CFFBC1B2022912D0032908BF6E
:10599000042101221148FFF733FC0D201BF048FDC4
:1059A00001460D20B1FA81F149091BF017FD03B042
:1059B00030BD0521EDE792F88C4001AB92F88D10D7
:1059C000002014440131657811446070184621F0BC
:1059D000D5F865700346D3E76CD701206CCB012066
:1059E0002DE9F047DFF8A89241F28832416A82B08F
:1059F000D9F8003004465B1A934200F2AC80D9F823
:105A0000003040F6B832A16A5B1A934200F28F80F0
:105A1000D9F80030216AA28D5B1A9A4275D2D9F862
:105A20000030274604F1130604F11F0ADFF86482F0
:105A3000236297F84C30023B012B03D894F82E30A8
:105A4000002B69D197F84D302046217CC3EB0332FF
:105A500097F84E50A8FB02320123D20901FB02F253
:105A6000A8FB02127178C2F3CF1208F055FB217C1B
:105A7000C5EB053235460123A8FB02022046D209B8
:105A800001FB02F2A8FB0212B178C2F3CF1208F0B8
:105A900043FB0123002215F8031F204608F03CFBBE
:105AA000554507F105072E46C3D194F82E3083F0F3
:105AB000010384F82E3043BBD9F800200121A08DCA
:105AC00084F82F3002EB5003628E84F83010A3EB81
:105AD00052036363D9F800209A421AD9012327465A
:105AE00004F10C082646DFF8ACA184F82F3097F8B3
:105AF00050300537002B40F09C800336B045F6D17E
:105B000094F82F302BB1636B3FE094F83030002BCA
:105B100036D102B0BDE8F087F51C16F8011F01234D
:105B20000022204608F0F8FAAE42F6D1B8E7D9F8DC
:105B3000002094F85130A262002B3FF469AF002599
:105B4000226C5149A4F85250504800951AF054FF65
:105B500084F851505CE790F84C30032B3FF44FAF82
:105B6000817C0325002280F84E1080F84D204649A4
:105B70000095C26B45481AF03FFF84F84C503EE751
:105B800094F82F20636B002AA4D0628ED9F80010FD
:105B900013448B42BDD24FF0000A264604F1130590
:105BA00004F11F0984F830A096F85030DFF8E48043
:105BB0004BB9EF1C4F453D4606F10506A9D096F8B6
:105BC0005030002BF5D096F84C30023B012B4FD9CA
:105BD00096F84D30204696F84E70C3EB0332697844
:105BE000A8FB0232237CD20903FB02F2A8FB02329B
:105BF0000123C2F3CF1208F08FFAA978C7EB07325E
:105C00002F462046A8FB0232237CD20903FB02F276
:105C1000A8FB02320123C2F3CF1208F07DFA012360
:105C2000002217F8031F204608F076FA86F850A0E5
:105C3000C0E7E57C2046317D0123002208F06CFAA4
:105C4000717D01232046002208F066FAB17DC5EB84
:105C500005322046AAFB0232237CD20903FB02F262
:105C6000AAFB02320123C2F3CF1208F055FA44E72F
:105C7000EF1C15F8011F01230022204608F04CFA02
:105C8000BD42F6D1D2E700BF10240020582F0120DA
:105C9000ECD901208180808006EE902A00F5886290
:105CA0002DE9F043B8EEE61B06EE903A044600F507
:105CB0008467B8EEE64B00F5826004F586662DED4C
:105CC000028B83B0C4F84814DDED0C6ADDED0F5A89
:105CD000B8EEE62BDDED0D6AB8EEE55B119BB8EE94
:105CE000E63BDDED0E6A9FEDAA8BB8EEE66B9FED0D
:105CF000AA7B9FEDAB0BA6EE087BDDED106AB8EE3C
:105D0000E66B25EE005B26EE006B21EE001B24EE19
:105D1000004B32EE052B33EE063B9FEDA30B80EDDF
:105D2000001B07ED024BB4EEC07B02ED025BF1EE0F
:105D300010FA87ED002BA8BF37EE407B82ED006B99
:105D4000B5EEC07B06ED023BF1EE10FA03D59FEDF8
:105D5000966B37EE067B94F883249FED956B27EEC8
:105D6000067B86ED007BC4F86834002A40F084800E
:105D7000954D2A68D4F80014521AC4F888242A6869
:105D8000C4F800242A68C4F8902494F8812412B935
:105D9000012284F88424012213F0010503F0020893
:105DA00003F0040984F8822484F88124C3F3C10237
:105DB000C4F8782431D0B8F1000F3DD0B9F1000F0C
:105DC00049D02DB3D4F87834012B40F39A8016EDE6
:105DD000027BB5EE407BF1EE10FA00F08B8004F50B
:105DE0008E6597ED000B80EE070B1DF04DFE9FEDCD
:105DF000727B20EE070B012194F8833485ED000BB4
:105E000084F88014002B40F09280704C84ED000BDD
:105E100003B0BDEC028BBDE8F08311216C481DF08E
:105E2000D7FB29466B481AF0BFFD04216A481DF0D4
:105E3000CFFBB8F1000FC1D1102168481DF0C8FB9D
:105E4000414664481AF0B0FD042163481DF0C0FBD0
:105E5000B9F1000FDCD1132161481DF0B9FB00211D
:105E60005C481AF0A1FD04215B4803B0BDEC028B35
:105E7000BDE8F0431DF0ACBB534D022159481DF065
:105E8000A7FB002329680A2252481AF0C3FDB4F880
:105E9000982455494F481AF0AFFDD4F800342968CA
:105EA0000A224C48C91A00231AF0B4FD01214F48B8
:105EB0001DF08EFBD4F848144D4B4648A3FB01233C
:105EC0004FF47A729B0902FB13114A4B0A22A3FB7F
:105ED00001310023C9081AF09DFD012143481DF03E
:105EE00077FB02213B4896ED000B1AF0A9FDD4F890
:105EF00068343EE79FED2A6B37EE067B06ED027BAA
:105F00006DE794F88334002B3BD00E213A4804F51A
:105F10008E651DF05DFBD4F878142E481AF044FD10
:105F200095ED000B9FED267B20EE070B63E72F48D6
:105F3000264C1DF04DFB0221264895ED000B1AF072
:105F40007FFDB6EE007B94ED006B95ED000B36EE19
:105F5000475BB4EEC50BF1EE10FA07D936EE077BBE
:105F6000B4EEC70BF1EE10FAFFF650AF2349194813
:105F70008DED000B53EC162B1AF03EFD95ED000B4A
:105F800044E7022117481DF023FBBEE7AFF3008072
:105F90002D431CEBE2361A3F0000000000208C402D
:105FA0007B14AE47E17A843F000000000020AC4043
:105FB0009A9999999999B93FF8C1631ADCA54CC08F
:105FC000CDCCCCCCCCCCEC3FECD90120E07C01207A
:105FD000F0220020582F01208C24002004230020D0
:105FE00018230020AC3D0020DC220020084E0020B9
:105FF000D34D6210CDCCCCCC2C2300203C230020F0
:1060000070B5044686B01BF0BFF9D4F80834A56813
:10601000C01A072DC4F88C046FD03C2D40F0D180FD
:10602000E07FA27F617F42EA002294F8235094F837
:10603000330094F8223041EA022194F8322043EAF6
:10604000052394F8315042EA002294F8570094F85E
:1060500055E045EA022594F8562094F82AC042EA11
:10606000002294F82F004EEA022E94F82B204CEADE
:10607000022C94F82E2042EA002294F8540040EAC0
:106080000E20059094F8300040EA0520029094F824
:10609000270094F8265045EA002594F8290040EAA4
:1060A0000C2094F82DC04CEA022C94F83B2004926A
:1060B00094F83A20039294F8212042EA032294F8BB
:1060C000253043EA052394F8245045EA032394F845
:1060D000205045EA0222257F45EA012194F82C5000
:1060E00045EA0C25019594F8285045EA00252046FC
:1060F0000095FFF7D1FD06B070BD94F8333094F8E9
:10610000320094F8312040EA032094F8303094F8BB
:10611000375042EA002294F8361094F8830443EA98
:10612000022394F83B2041EA0521E57E06EE103A71
:1061300094F83A3043EA022394F83520B8EEC66B5F
:1061400042EA012294F8391041EA032194F83430EC
:1061500043EA022304F58C6205EE103A94F83830D5
:106160009FED377BB8EEC55B43EA0123A17E26EEA7
:10617000076B41EA0521384D25EE075B07EE103A23
:10618000637EB8EEC77B43EA0123217E9FED2E4B51
:1061900041EA032694F82F3027EE047B84F84C3430
:1061A00004F58A6383ED005B02ED026B82ED007BF8
:1061B000F0B92A682B68C4F80424C4F8943406B0F3
:1061C00070BD112125481DF003FA00231022E9B209
:1061D00023481AF01FFC052122481DF0F9F900237D
:1061E000102221791E4806B0BDE870401AF012BC9A
:1061F00002211D481DF0ECF9296800230A221848E5
:106200001AF008FC0C2119481DF0E2F9D4F8043406
:1062100029680A221248C91A00231AF0FBFB01213F
:1062200013481DF0D5F907EE906A02210C48B8EE2C
:10623000677B9FED070B87EE000B1AF001FCB8E7B8
:1062400048AFBC9AF2D77A3EFCA9F1D24D62503FDA
:106250000000000000408F40ECD90120C022002047
:10626000582F0120D4220020AC3D0020B022002075
:10627000084E0020B52970B50D4604462BD0622982
:1062800018D02378022B07D0033B052B11D8DFE869
:1062900003F04B5E728BA3B3237C0321627C2B44FF
:1062A00065602170DBB21A44237494F883346274FD
:1062B0007BBB70BD0378012BE4D10221002290F852
:1062C000833401700282002BF3D005216F48BDE8B2
:1062D00070401DF07DB94369002BD2DA01230370B1
:1062E0001BF052F894F88334C4F80804002BE0D073
:1062F000022167481DF06CF9664900230A220968EB
:1063000065481AF087FB65496348BDE87040FCF7B3
:1063100043BB63481DF05CF92946002310225E4808
:10632000BDE870401AF076BB237C0421627C2B44CC
:10633000A5602170DBB21A44237494F8833462742C
:10634000002BB6D056495448FCF726FBE4E7237CE3
:106350000520627C2B4494F88314E560DBB2207046
:106360001A44237462740029A3D04E494A48BDE8F8
:106370007040FCF711BB237C0620E1682B44627C53
:1063800001EB05212070DBB20020E1601A4494F893
:10639000831460612374627400298AD042493E48A4
:1063A000BDE87040FCF7F8BA237CEAB2617C134484
:1063B000DBB21944237463696174E11801330A760E
:1063C00094F883246361002A50D1E2689A427FF4F2
:1063D00070AF0723237070BD237CAB421AD1082213
:1063E00094F883342270002B3FF463AF2F492A487E
:1063F000BDE87040FCF7D0BA637CAB4220D194F882
:106400008334002B3CD12046FFF7FAFD4FF0FF33D9
:10641000636170BD00254FF0FF3302211C486361AA
:1064200025701DF0D5F81B492B460A2209681A4829
:106430001AF0F0FA10211E48BDE870401DF0C8B8EF
:1064400000254FF0FF3302211148636125701DF0D4
:10645000BFF810492B460A2209680F481AF0DAFAE9
:1064600010211448BDE870401DF0B2B80A48124926
:10647000FCF792FA294608481AF096FA6369A4E7ED
:106480000E490548FCF788FABDE700BF94230020B9
:10649000AC3D0020ECD90120582F0120882300209A
:1064A0009C230020A0230020A4230020A823002058
:1064B000AC230020C4230020084E0020C02300206D
:1064C0009FED9D7B90ED042B9FED9D3B9FED9E1BD3
:1064D00022EE072B90ED164B90ED0E5B22EE032B78
:1064E00024EE014B25EE075B90ED086B10B532EE04
:1064F000067B044680ED0A4B37EE447B80ED0E5B55
:10650000B5EEC07B80ED042BF1EE10FA03D59FEDC4
:10651000904B37EE047B9FED904BB4EEC47BF1EED5
:1065200010FAC0F2F7809FED8E4BB4EEC47BF1EE13
:1065300010FA00F2EF80B1EE477B9FED854BB4EE91
:10654000C47BF1EE10FAC8BF37EE447B9FED864B5B
:1065500084ED067BB4EEC47BF1EE10FA05D59FED19
:106560007C4B37EE047B84ED067BB0EEC74B9FED92
:10657000803BB4EEC34BF1EE10FA40F1D7809FEDB3
:106580006E3BA7EE036B9FED724B9FED777BB4EEF6
:10659000C46BF1EE10FAC8BF36EE446BB4EEC76BB5
:1065A00084ED086BF1EE10FA05D59FED697B36EEB0
:1065B000076B84ED086BB7EEC55B32EE067B94ED9E
:1065C000124BB7EEC55A9FED6C1B34EE454B9FED59
:1065D000602B24EE016BB4EEC27B94ED023B9FED89
:1065E000680BF1EE10FAA3EE006BC8BF37EE427BEA
:1065F00084ED004BB5EEC07BF1EE10FA84ED026B3A
:1066000003D59FED536B37EE067B0C2162489FED5F
:106610005E6B27EE067B84ED0C7B1CF0D9FF5F4898
:106620001AF0CEF909215E481CF0D2FF02215B4826
:1066300094ED160B1AF004FA58481AF0C1F90A2121
:1066400058481CF0C5FF0221544894ED120B1AF073
:10665000F7F952481AF0B4F90C2153481CF0B8FF6E
:106660004E481AF0ADF9132150481CF0B1FF022139
:106670004A4894ED040B1AF0E3F948481AF0A0F9DF
:1066800006214B481CF0A4FF0221444894ED0E0B58
:106690001AF0D6F941481AF093F90F2145481CF039
:1066A00097FF3E481AF08CF90F2143481CF090FFE9
:1066B00002213A4894ED080B1AF0C2F937481AF053
:1066C0007FF90B213D481CF083FF0221334894EDF4
:1066D000000B1AF0B5F931481AF072F91121384857
:1066E0001CF076FF02212D4894ED020B1AF0A8F958
:1066F0002A481AF065F90E2132481CF069FF022180
:10670000264894ED0C0B1AF09BF92448BDE8104084
:106710001AF056B99FED124BB4EEC47B9FED0C4BB3
:10672000F1EE10FA05DD34EE477B06E79FED183BEE
:1067300027E737EE047BFEE69A9999999999B93F34
:10674000399D52A246DF91BF399D52A246DF913F4B
:10675000182D4454FB211940182D4454FB21F9BF36
:10676000182D4454FB21F93F182D4454FB2119C026
:106770000AD7A3703D0AC73F333333333333D33F94
:10678000666666666666E63FF8C1631ADCA54C403D
:106790009A9999999999C93F78270020582F0120F3
:1067A0008827002094270020A0270020B027002061
:1067B000C4270020CC270020DC270020EC27002065
:1067C000F82700200C2800202DE9F047844C84B0E5
:1067D0001AF0DAFD012394F89850824EC5F196051F
:1067E00070609D42337300F3AF80002D00F39D80F5
:1067F0007D4B012293F8811483F8802409B983F832
:1068000084240122794F7A4C83F881243A68C3F8B2
:10681000902494F86030002B34D176481DF07EFC33
:10682000754D94F8603085ED000B002B66D1734BED
:10683000042B00F0C680724A403595ED000B9FEDA9
:10684000647B137820EE070B85ED000B002B5ED0E8
:106850000A22002339686B481AF0DCF86A49694853
:106860001AF0CAF801A820F06BFA01AB02381844FC
:106870001DF058FC014663481AF096F861481AF07A
:106880009FF844E061481DF04DFC07EE900A604B14
:10689000B8EEE77B5F4D604829469FED4F6B27EED2
:1068A000067BBDEEC77B17EE102A9A5CFCF75CF8FE
:1068B0005A481DF033FC4F4884ED120B1DF02EFC9E
:1068C000B5F90030204606EE103AB5F9023007EE71
:1068D000103AB8EEC66BB8EEC77B84ED160B84EDAC
:1068E000046B84ED0E7BFFF7EBFD94F86030002B1A
:1068F00093D0414BD4E90C01C3E9000194ED020BA4
:10690000474D3F4A137885ED000B002BA0D11AF0BC
:106910003BFD337B23B1D6E900329B1A034433603D
:106920000023337304B0BDE8F08794F8955000233A
:1069300094F8961001A82544013121446C786B70BD
:1069400020F01CF96C7053E794F894704FF0000934
:1069500094F895102744DFF89C80194497F801A01B
:106960004046214487F8019020F008F9022D87F86D
:1069700001A0DAD094F8937008F1080094F894100C
:106980002744013197F801A0214487F8019020F0B5
:10699000F5F8042D87F801A0C7DD94F8915094F81C
:1069A0009200254401306F78204485F801901DF055
:1069B000B9FB6F7094F89850C8F81000C5F19605AF
:1069C00013E7164840351DF0A9FB9AE7AFF30080A6
:1069D000CDCCCCCCCCCCEC3F9A9999999999B93F34
:1069E0006CD70120F4CB0120F07D0120ECD90120EF
:1069F000F07C012098880120208201203085012030
:106A00005ADA0120582F01207817002044D601209F
:106A1000A422002030D50120C0D40120A08801206C
:106A2000608201200B484FF0FF0C01210F220378F8
:106A300080F80DC0437190F801C0837283780172B1
:106A40004FF4967180F806C080F80BC0C3710373D1
:106A50001AF034BF5442012070B501201AF084FDB1
:106A600004460220E4B21AF07FFD40F6641360F39E
:106A70000F24A4B29C42174C1BD0022201211648BD
:106A800004F10F05C4F596761AF018FF0F224FF4A3
:106A9000967112481AF012FFA0191AF065FD04F859
:106AA000010BAC42F8D12A210D48BDE870401CF022
:106AB0008FBD04F10F05C4F59676A0191AF054FDA8
:106AC00004F8010BAC42F8D122210648BDE8704021
:106AD0001CF07EBD54420120202E0120782200208F
:106AE000C0200020EC200020D0E90021C3681268FB
:106AF000096810B41942846802EA040234D0037CA5
:106B000003F003030ABB43F008039A08013B027435
:106B10000D2B0ED8DFE803F0100722070D1C101014
:106B20001C0D072207104269037E013A01334261BE
:106B300003765DF8044B70474269037E01325DF8CD
:106B4000044B013342610376704743F00403DAE7F4
:106B500043695DF8044BC83B4361704743695DF886
:106B6000044BC83343617047037C03F00303002ADE
:106B7000CBD043F00403C8E70B4610B5362800F22B
:106B80009782DFE810F08C028202790270026702BD
:106B90005E0255024C0243023A02310228021F02F1
:106BA000BF01B601AD01A4019B01920189018001E1
:106BB00077016E0165015C0153014A014101380111
:106BC0002F0126011D0113010901FF00F500EB0053
:106BD000E100D700CD00C300B900AF00A5009B00C5
:106BE000910087007D00730069005F0055004B0035
:106BF00041003700C84C0422C8493620C4F8D830B8
:106C00001AF06EFE012010BDC34C0422C449352089
:106C1000C4F8D4301AF064FE012010BDBE4C04222A
:106C2000C0493420C4F8D0301AF05AFE012010BDFB
:106C3000B94C0422BC493320C4F8CC301AF050FEC1
